:020000040800F2
:10000000100D002029020008772D00082128000883
:10001000752D00081F040008913B00080000000037
:10002000000000000000000000000000A7340008ED
:10003000BD07000800000000A5340008A93400082E
:10004000430200084302000843020008430200087C
:10005000430200084302000843020008430200086C
:10006000430200084302000843020008430200085C
:1000700001070008430200080D07000843020008BA
:100080004302000843020008430200083905000843
:100090002D0500084302000843020008430200083F
:1000A00043020008513500084302000843020008DB
:1000B000430200084302000843020008430200080C
:1000C00043020008430200084302000843020008FC
:1000D000430200084302000843020008853B000871
:1000E00043020008430200084302000843020008DC
:1000F00043020008430200084302000843020008CC
:1001000043020008430200084302000843020008BB
:1001100043020008430200084302000843020008AB
:10012000430200084302000843020008430200089B
:10013000430200084302000843020008510500087A
:100140004505000843020008430200084302000876
:10015000430200084302000843020008430200086B
:10016000430200084302000843020008430200085B
:100170004302000843020008430200080000000098
:10018000430200084302000800F002F800F03CF8C7
:100190000AA090E8000C82448344AAF10107DA45E2
:1001A00001D100F031F8AFF2090EBAE80F0013F0F8
:1001B000010F18BFFB1A43F0010318473447000032
:1001C00054470000103A24BF78C878C1FAD85207C3
:1001D00024BF30C830C144BF04680C6070470000C1
:1001E0000023002400250026103A28BF78C1FBD840
:1001F000520728BF30C148BF0B6070471FB504F0DD
:1002000061FB1FBD10B510BD00F0CFF81146FFF720
:10021000F5FF03F017FD00F0EDF803B4FFF7F2FF70
:1002200003BC00F0F5F80000094880470948004782
:10023000FEE7FEE7FEE7FEE7FEE7FEE7FEE7FEE796
:10024000FEE7FEE704480549054A064B70470000F3
:10025000413500088901000810070020100D00201A
:10026000100900201009002053EA020C00F06980F8
:100270002DE9F04B4FF00006002B1FBFB3FA83F5BA
:1002800003FA05F424FA05F65E4012BF1643B2FAEB
:1002900082F502FA05F4C5F120051EBF22FA05FC1D
:1002A00044EA0C04203556EA044C4FEA144418BFC3
:1002B000641C4FF000084FF00009904271EB030CF2
:1002C00039D3002919BFB1FA81F701FA07F6B0FA5C
:1002D00080F700FA07F6C7F120071EBF20FA07FCD7
:1002E00046EA0C062037B6FBF4FCA7EB0507103FE7
:1002F00007F01F0BCBF120060CFA0BFB2CFA06F6CD
:1003000044BFB3460026202FA4BF5E464FF0000B2B
:100310005BEA060C08BF4FF0010B19EB0B09ABFBB6
:10032000027C48EB0608C01B06FB02CC0BFB03CC8F
:1003300071EB0C01C1E70B46024641464846BDE859
:10034000F08B13B54FF000004FF00001AFF30080C9
:10035000BDE81C4070474FF0000200B513469446BC
:100360009646203922BFA0E80C50A0E80C50B1F10D
:100370002001BFF4F7AF090728BFA0E80C5048BF21
:100380000CC05DF804EB890028BF40F8042B08BFBF
:10039000704748BF20F8022B11F0804F18BF00F8BB
:1003A000012B7047704770477047754600F02CF876
:1003B000AE4605006946534620F00700854618B052
:1003C00020B5FFF73FFFBDE820404FF000064FF09B
:1003D00000074FF000084FF0000B21F00701AC467A
:1003E000ACE8C009ACE8C009ACE8C009ACE8C00999
:1003F0008D46704710B50446AFF300802046BDE837
:100400001040FFF70ABF000000487047B006002008
:1004100001491820ABBEFEE7260002007047FEE748
:100420002DE9F04F354C2078AA2864D1607CDD2876
:1004300061D10F21A01C00F0E9F831490870617802
:10044000814258D1DFF8BCC0B4F90200DFF8B8A08F
:10045000ACF80000B4F90460DFF8B0E0AAF800607E
:10046000B4F90650DFF8A8B0AEF80050B4F908307F
:100470002849ABF80030B4F90A20DFF89C900A80D4
:10048000B4F90C10254FA9F800105FEA004800D518
:100490003843ACF800005FEA064C00D53E43AAF8AA
:1004A00000602E0400D53D43AEF800501D0400D579
:1004B0003B43ABF800301748130400D53A430280A1
:1004C0000A0400D539431648A9F80010154A0178E6
:1004D000CB0704D1A37BDB0701D00323137089076B
:1004E00004D4A17B890701D5042111700E49A27B98
:1004F0000270E07B0870BDE8F08F000088010020EA
:10050000380000202A0000202C0000202E000020AF
:100510003000002032000020340000200000FFFFE7
:10052000360000201800002037000020014800F0AD
:10053000BABA000020020020014800F0B4BA00005E
:1005400020020020014800F0AEBA0000480200205E
:10055000014800F0A8BA0000480200202DE9F84F39
:10056000DFF89CC0DDE90C95DDE90A764FF40074F4
:10057000CCF8004000244FF0080ACCF80840CCE941
:10058000034ADFF880C04FEA10288CF800808CF80E
:100590000100080A8CF802008CF80310100A8CF88D
:1005A00004008CF80520180A8CF806008CF8073037
:1005B0006B4662461249144800F015F9104840F2A3
:1005C000FF1118306B4684600160C0E9034A0D4892
:1005D000390A0830024601704770310A8170C670CE
:1005E0004FEA1921017180F80590290A81710449A7
:1005F000C5711831044800F0F6F8BDE8F88F000026
:1006000080060020D200002048020020034610B5DA
:100610000120002202E09C5C6040521C8A42FADB0E
:1006200010BD00002DE9F04105462DED0A8B012695
:100630000C46B0EE408AF0EE608A02270878E0B1FE
:1006400060789FED25BB9FED26AB9FED279B4FF07C
:100650000308012814D0022853EC192B51EC180B75
:100660009FED23CB14D004F001F825D8667085EDFA
:1006700000CBBDEC0A8BBDE8F08126704F70F8E727
:1006800053EC1A2B51EC180B03F0B6FE14D809E00A
:1006900003F0ECFFEAD953EC1A2B51EC180B03F0E2
:1006A000ABFE04D884F8018085ED00BBE1E79FED47
:1006B000120B85ED000BDCE753EC192B51EC180BFA
:1006C00003F09AFED5D253EC1A2B51EC180B03F021
:1006D000CDFFCED26770CCE7000000000000F0BF75
:1006E000000000000088B3C0000000000088B34094
:1006F000000000000000F03F0000000000000000CB
:10070000014800F0E1BC000044030020014800F073
:10071000DBBC0000A403002001681823CAB2103A11
:10072000B2FBF3F2054B6FF30901032A9B5CC3652F
:1007300000D9091D8165084670470000CE480008B1
:1007400010B5014600208B698A6A4FF0C07453B11E
:10075000B3F5005F15D072B1012A0CD0022A0AD07D
:10076000032A09D104E01AB1012A06D0022A03D1D2
:10077000C96AC90100D5012010BDC96AA142FAD0D9
:1007800010BD002AF7D0012AF2D0022AF3D0032AA2
:10079000F3D010BD30B50468256825F480252560A8
:1007A000046863608368402B036803D09960006825
:1007B000C26030BD9A600068C16030BD704772B6DB
:1007C000FEE790F82020012A07D0022A05D0416ACE
:1007D00041F48021416201207047006842690A4368
:1007E000426100207047F0B590F820500468A4687A
:1007F000012D05D0022D03D0416A41F4802153E040
:1008000014F0406F01D1E5004BD5C4F30164022C14
:1008100003D9416A41F4000146E00125A5401D606D
:100820008D684FF4C0739DB1CE6835434E6845EA7C
:10083000C605066803EB0417F5514FF4C275076847
:1008400005EB04150E697E51097D012905D009E0EB
:100850000E88CD6845EA4655EBE701684E5946F4E7
:1008600080764E511179D2F805504FF4C67641EAA0
:100870000525016806EB04168D511178D2F8012088
:100880004FF4C47541EA0221026805EB0415515189
:10089000006803EB0411425842F00102425000206C
:1008A000F0BD416A41F4001141620120F0BD000039
:1008B00010B590F82020012A07D0022A05D0416AFD
:1008C00041F480214162012010BD3B48D0F8002254
:1008D00042F00102C0F80022D0F8002222F47C523B
:1008E000C0F80022D0F800224B6A42EA0322C0F886
:1008F00000220A7D02F01F0301229A40D0F81C3228
:100900009343C0F81C32CB69B3B9D0F80C3293438F
:10091000C0F80C328C894B6864F31F434C6900EBC0
:10092000C404C4F840320C890B6864F31F434C695B
:1009300000EBC404C4F84432CB69012B16D1D0F8C3
:100940000C321343C0F80C320C884B6864F31F431D
:100950004C6900EBC404C4F840320C89CB6864F3E2
:100960001F434C6900EBC404C4F844328B69002B6C
:10097000D0F804320ED01343C0F804320B69002BB8
:10098000D0F8143208D01343C0F81432096A012990
:1009900004D008E09343EFE79343F5E7D0F81C1247
:1009A0001143C0F81C12D0F8001221F00101C0F868
:1009B0000012002010BD000000640040704730B5F8
:1009C00090F82040012C05D0022C03D0416A41F45C
:1009D00080215DE00468002955D02469A40754D023
:1009E0004FF4D874056804EB01142D5915F0040573
:1009F000956005682D594ED0ED08556005682C5955
:100A000004F00204D4604FF4DA74056804EB0114B6
:100A10002D5905F00F05156105682D59C5F30725FA
:100A2000956105682C59240C54614FF4DC720468FC
:100A300002EB0112A4581C700468A458240A5C70CC
:100A40000468A458240C9C700468A258120EDA7032
:100A50004FF4DE72046802EB0112A4581C710468A2
:100A6000A458240A5C710468A458240C9C7104687E
:100A7000A258120EDA71006881B1016941F02001BB
:100A80000161002030BDE468A8E7416A41F400112B
:100A90004162012030BD6D0D1560AFE7C16841F0C6
:100AA0002001C160EDE72DE9F05F054600680024F4
:100AB0004669D0F804908768D0F80CB0D0F810A040
:100AC000D0F81880F10748D0F90714D001218160CF
:100AD000B80703D5284600F096FA0CE0780702D54F
:100AE0004FF4006407E0380702D54FF4805402E069
:100AF000284600F087FAF80516D529684FF480706B
:100B00008860B80503D5284600F07FFA0CE0780528
:100B100002D544F4005407E0380502D544F480447B
:100B200002E0284600F070FAF80316D529684FF461
:100B300080308860B80303D5284600F068FA0CE0DE
:100B4000780302D544F4004407E0380302D544F4A6
:100B5000803402E0284600F059FA300707D55FEAF2
:100B6000CB6004D52968102044F40074C860700775
:100B70004FF0080707D55FEA0B7004D52868C760F7
:100B8000284600F0A9F9B00706D52868C068800794
:100B900002D0284600F0A2F9700607D55FEACA60C5
:100BA00004D52968102044F480640861B00607D594
:100BB0005FEA0A7004D528680761284600F0F2F958
:100BC000F00606D528680069800702D0284600F0A4
:100BD000EAF9B00308D55FEAC96005D52968102095
:100BE0004860284600F0E0F9F00307D55FEA097095
:100BF00004D528684760284600F00AFA300446D534
:100C00005FEA497040D5F00504D55FEAC87001D0AD
:100C100044F00104B00504D55FEA887001D544F0C2
:100C20000204700504D55FEA487001D544F004045D
:100C3000300529D518F0700F26D008F07000402834
:100C400015D006DC102809D020280AD0302816D16B
:100C50000AE050280ED0602811D10EE044F00804BC
:100C60000DE044F010040AE044F0200407E044F0F2
:100C7000400404E044F0800401E044F480742868F7
:100C8000816921F070018161296804204860002C8D
:100C900005D0686A204368622846FFF78FFEBDE8EA
:100CA000F09F70B5040003D094F8200010B104E068
:100CB000012070BD204600F081F82068016841F0F5
:100CC0000101016000F07CFC0546052604E000F00F
:100CD00077FC401B0A2811D820684068C007F6D06E
:100CE0002068016821F00201016000F069FC0546FE
:100CF0000BE000F065FC401B0A2806D9606A40F44E
:100D00000030606284F82060D2E720684068800785
:100D1000EFD4207E0128206801683DD021F08001B9
:100D20000160607E01282068016838D021F0400110
:100D30000160A07E01282068016833D021F02001E5
:100D40000160E07E0128206801682ED041F010018A
:100D50000160207F01282068016829D021F0080166
:100D60000160607F01282068016824D021F004011F
:100D70000160D4E902010843D4E904121143084395
:100D80006168491E08432168C86100206062012033
:100D900084F82000002070BD41F08001C0E741F0E0
:100DA0004001C5E741F02001CAE721F01001CFE77B
:100DB00041F00801D4E741F00401D9E7F0B587B06C
:100DC000044614216846FFF7C6FA3E4B3E48DFF85A
:100DD000F0E01968D4F800C03B4A03250226092731
:100DE00010300024491CF4452AD11960012907D18B
:100DF000016841F000710160006800F0007005902A
:100E0000106840F0080010601068CDE9005600F04E
:100E10000800CDE9047069462C48CDE9024500F090
:100E2000D7FA00220121132000F038FC132000F033
:100E300027FC00220121142000F030FC14203AE0AD
:100E4000DFF88CE0F44538D1D0F800C04CF0806C6D
:100E5000C0F800C0D0F800C001290CF0806CCDF8BB
:100E600014C0196007D1016841F000710160006889
:100E700000F000700590106840F0020010601068EB
:100E800002AB00F0020005906020CDE9000683E887
:100E9000B00069460F4800F09BFA002201213F2074
:100EA00000F0FCFB3F2000F0EBFB00220121402082
:100EB00000F0F4FB402000F0E3FB07B0F0BD0000C1
:100EC000006400403C00002030380240000C02402A
:100ED00000680040000402407047000030B505463D
:100EE0002C482D4C8BB0854226D101AB03AA0021A2
:100EF0002846FFF764FD0398A0F20120072817D8C1
:100F0000C0B22649207001EB001001880181BDF8B4
:100F1000041049BA0180BDF8061049BA4180BDF8F5
:100F2000081049BA81809DF80A10817102F076FE9E
:100F300002211848FFF745FC1948854227D102AB2A
:100F400004AA00212846FFF73AFD0498A0F20120E8
:100F5000072818D81149C0B26070803101EB001029
:100F600001880181BDF8081049BA0180BDF80A1056
:100F700049BA4180BDF80C1049BA81809DF80E1025
:100F8000817102F04BFE02210548FFF71AFC0BB0FD
:100F900030BD000020020020C0000020100500200D
:100FA00048020020704770477047000070B5044643
:100FB00090F82000012804D0606A40F400206062AC
:100FC00018E0022084F820002068016821F0010167
:100FD000016000F0F5FA05460EE000BF00F0F0FAFF
:100FE000401B0A2808D9606A40F40030606205207E
:100FF00084F82000012070BD20684068C007EDD152
:10100000606270BD704770477047704770477047A7
:1010100070472DE9F0410446876D00F0D1FA06468D
:1010200094F835000025022806D08020606584F8F9
:1010300034500120BDE8F0812068016821F01601DC
:1010400001602068416921F080014161206C08B98C
:10105000A06C20B12068016821F0080101602068BF
:10106000016821F0010101600CE000F0A9FA801B89
:10107000052807D920206065032084F8350084F80E
:101080003450D7E720680068C007EED194F85C10B0
:101090003F208840B860012084F8350084F834503F
:1010A0000020C7E790F83510022903D08021416560
:1010B00001207047052180F835100068016821F093
:1010C00001010160002070472DE9F84304464FF00C
:1010D0000009CDF8009063484FF41651A56D0068E3
:1010E000B0FBF1F72E6894F85C10082000FA01F1CB
:1010F00031420FD021680A6852070BD50A6822F0E6
:1011000004020A6094F85C108840A860606D40F0AA
:101110000100606594F85C104FF0010808FA01F0D6
:10112000304208D021684969090604D5A860606D7D
:1011300040F00200606594F85C1004208840304262
:1011400008D021680968890704D5A860606D40F05F
:101150000400606594F85C1010208840304218D07C
:1011600021680968090714D5A86020680168490347
:1011700004D50068000308D5A16C07E00168C90523
:1011800003D4016821F008010160216C09B12046F7
:10119000884794F85C1020208840304231D0216884
:1011A0000968C9062DD5A86094F83500052820687F
:1011B000016806D0490347D5006800031DD4616C5F
:1011C0001CE021F0160101602068416921F08001D6
:1011D0004161206C08B9A06C20B12068016821F041
:1011E0000801016094F85C103F208840A86084F8F2
:1011F000358084F83490216D1FE0E16B09B1204601
:101200008847606D00282BD0606DC00714D0052082
:1012100084F835002068016821F001010160009820
:10122000401C0090B84203D820680068C007F6D17F
:1012300084F8358084F83490E16C002910D001B036
:101240002046BDE8F04308470168C905D5D40168C8
:1012500021F01001016084F8358084F83490CCE7E7
:10126000BDE8F8834C0000202DE9F041044600F071
:10127000A7F906465CB1022084F83500002584F801
:1012800034502068016821F0010101600DE0012067
:10129000BDE8F08100F094F9801B052805D92020D5
:1012A0006065032084F83500F2E720680068C00715
:1012B000F0D12268116820480140D4E901031843A5
:1012C000D4E903363343184363691843A3691843C9
:1012D000E3691843236A18430843616A042903D168
:1012E000D4E90B1319430843106020684069666A0B
:1012F00020F0070130460E43012704280CD1A06AD4
:101300000643E06A40B12046FFF71AFA20B14020B8
:10131000606584F83570BAE7206846612046FFF7BB
:10132000FBF994F85C203F2191408160656584F869
:1013300035700020ACE700003F8010F02DE9F0414F
:101340000446866D90F83400002501280DD0012058
:1013500084F8340094F835700020012F07D084F809
:10136000340002252846BDE8F0810220FBE7022771
:1013700084F8357060652046FFF70CFA94F85C102D
:101380003F208840B0602068016841F0160101608C
:10139000206C20B12068016841F0080101602068DC
:1013A000016841F001010160DCE7000070B504460E
:1013B00000F006F90546601C02D004480078044499
:1013C00000F0FEF8401BA042FAD370BD40000020A0
:1013D0002DE9F84FDFF8BCA10022012503264FF0CC
:1013E0000F090AF1040BAAF1040E00BF0B6805FAFD
:1013F00002F42340A34270D10F7907F00307012FB5
:1014000001D0022F16D187684FEA420806FA08FC7D
:1014100027EA0C07D1F80CC00CFA08FC4CEA070CC0
:10142000C0F808C04768A7430C79C4F3001494407F
:101430003C4344600C79E443A4070AD0C4684FEAF3
:10144000420C06FA0CF7BC438F6807FA0CF72743E7
:10145000C7600C7904F00304022C12D1D40800EB0D
:10146000840CDCF820405707FF0E09FA07F824EA3D
:101470000804D1F8108008FA07F848EA0408CCF804
:10148000208004684FEA420C06FA0CF7BC430F793F
:1014900007F0030707FA0CF7274307604C6814F4BA
:1014A000403F70D03C4C276847F480472760246851
:1014B00022F0030704F480440094384C07EB040C3A
:1014C000DCF8084897074FEA177809FA08F7BC4391
:1014D000334FB84202D1002724E054E0314FB842E4
:1014E00001D101271EE0304FB84201D1022719E097
:1014F0002E4FB84201D1032714E02D4FB84201D13D
:1015000004270FE02B4FB84201D105270AE02A4FEC
:10151000B84201D1062705E0284FB84201D107277C
:1015200000E0082707FA08F72743CCF80878DAF82C
:1015300000405746D1F804C09C435FEACC2C00D54C
:101540001C433C60DBF800405F46D1F804C09C437C
:101550005FEA8C2C00D51C433C60DEF800407746E7
:10156000D1F804C09C435FEA8C3C00D51C433C602E
:10157000084F083F3C68D1F804C09C435FEACC3C6C
:1015800000D51C433C60521C102AFFF42FAFBDE86D
:10159000F88F0000083C0140443802400030014010
:1015A000000002400004024000080240000C02401B
:1015B000001002400014024000180240001C0240CB
:1015C00001488068704700004000002002488168A0
:1015D0000278114481607047400000200B4810B52C
:1015E000016841F400710160016841F480610160AB
:1015F000016841F480710160032000F06FF80F2052
:1016000000F006F800F024F8002010BD003C024075
:1016100070B50D4D04464FF47A712878B1FBF0F0A7
:101620000A490968B1FBF0F000F00CFB48B9102C36
:1016300007D200222146501E00F030F800206C60D6
:1016400070BD012070BD0000400000204C00002053
:101650000A4808B5016841F480410160006800F45F
:10166000804000900548001F016841F080510160F2
:10167000006800F08050009008BD0000443802402F
:10168000002809DB00F01F02012191404009800081
:1016900000F1E020C0F8001170470000F0B40E4BDC
:1016A0001B680C46C3F30223C3F10705042D00D9C0
:1016B0000425191D072901D2002300E0DB1E0126A5
:1016C00006FA05F1491E214099409E40761E1640BB
:1016D0003143F0BC02F05DBA0CED00E0064900F0C9
:1016E000070208684FF6FF03184040EA0220034A49
:1016F00010430860704700000CED00E00000FA05A0
:101700002DE9F0470E46050065D0DFF81481D8F8C2
:101710000000F7B200F00700B04207D288F800706E
:10172000D8F8000000F00700B04254D128683D4CC2
:10173000810712D5400703D5206840F4E0502060AF
:101740002878000703D5206840F4604020602068B6
:10175000A96820F0F000084320602878C0072DD049
:10176000304968680839012812D0022813D00328AC
:1017700011D00968890700292DDA216821F00301B9
:1017800001432160FFF71CFF814641F2883A0EE0D9
:1017900009688903EFE709688901ECE7FFF710FFA3
:1017A000A0EB0901514502D90320BDE8F08720686C
:1017B000696800F00C00B0EB810FEFD1D8F8001091
:1017C000404601F00701B14207D90770006800F0F8
:1017D0000700B04201D00120E7E72878400705D58F
:1017E0002068E96820F4E05008432060287800076A
:1017F00006D52068296920F4604040EAC1002060D5
:1018000000F038F82168084AC1F30311515CC84060
:101810000649086006480068FFF7FAFE0020C4E7A2
:10182000003C024008380240D64800084C00002026
:10183000440000200448054900680968044AC1F3CF
:101840008221515CC84070474C000020083802409B
:10185000E64800080448054900680968044AC1F3DD
:101860004231515CC84070474C00002008380240AB
:10187000E6480008154810B5006810F00C0214483E
:1018800013D01449042A0FD0082A0ED10F4C241F5C
:101890002268236802F03F025B0207D52068C0F38C
:1018A0008810A0FB010106E0084610BD2168C1F3C5
:1018B0008811A1FB00010023FEF7D6FC2168C1F3CB
:1018C0000141491C4900B0FBF1F010BD083802404D
:1018D0000024F40040787D012DE9F84F04006ED01B
:1018E0002078DFF84C93C007A9F104054AD009F12C
:1018F00004000168C1F38101012908D00068C0F328
:10190000810002280AD1D9F80000400206D52868D3
:10191000800337D560680028E1D033E06068B0F517
:10192000803F10D0B0F5A02F286810D020F4803070
:101930002860286820F4802028606068A8B1FFF73C
:101940003FFE06460DE0286840F48030F4E740F49E
:1019500080202860F7E700BFFFF732FE801B642875
:1019600073D828688003F7D50CE0FFF729FE0646F8
:1019700005E000BFFFF724FE801B6428F0D828682C
:101980008003F7D42078DFF8AC8280074FF0000A9C
:101990003ED5A748001D016811F00C0F08D0006863
:1019A000C0F3810002280BD1D9F80000400207D40F
:1019B0002868800716D5E068012800D112E033E1DD
:1019C000E068B8B10120C8F80000FFF7F9FD06464D
:1019D00005E000BFFFF7F4FD801B0228C0D828688F
:1019E0008007F7D52868216920F0F80040EAC10097
:1019F00028600DE0C8F800A0FFF7E2FD064604E00D
:101A0000FFF7DEFD801B02281FD828688007F7D467
:101A10002078000722D5864F87486169703771B1F9
:101A200001210160FFF7CCFD064604E0FFF7C8FD89
:101A3000801B022809D838688007F7D50EE0C0F867
:101A400000A0FFF7BDFD064605E082E0FFF7B8FD08
:101A5000801B02287DD838688007F7D4207840079B
:101A600068D5DFF8CCB100270BF13C0BDBF80000A8
:101A7000C0000BD4DBF8001041F08051CBF800100F
:101A8000DBF80000012700F0805000906B4E3068BA
:101A9000C00510D4306840F480703060FFF790FDCE
:101AA000009005E0FFF78CFD0099401A022850D8FD
:101AB0003068C005F6D55E4EA0686C3601280FD0A0
:101AC0000528306810D020F001003060306820F028
:101AD00004003060A068B8B1FFF772FD00900FE01D
:101AE000306840F00100F4E740F004003060F7E7B0
:101AF000FFF766FD0099411A41F28830814266D8AD
:101B000030688007F4D50EE0FFF75AFD009007E03B
:101B1000FFF756FD0099411A41F28830814256D8AC
:101B200030688007F4D42FB1DBF8001021F0805129
:101B3000CBF80010A069C8B33D49091D0968C1F37D
:101B4000810102294AD00228504607D0C8F8600017
:101B500000E03CE0FFF734FD04463BE04746C8F8B0
:101B60006000FFF72DFD064605E000BFFFF728FDEA
:101B7000801B02282BD828688001F7D4D4E90701FC
:101B80000843A16A2E4A490802EB0141626A41EA10
:101B90008211084394F82C1040EA0161C9F8001042
:101BA00001203866FFF70CFD044606E03EE000BF6A
:101BB000FFF706FD001B022809D828688001F7D529
:101BC00034E000BFFFF7FCFC001B022802D9032011
:101BD000BDE8F88F28688001F4D427E00128F7D009
:101BE000D9F80000E26900F4800191421CD1226A18
:101BF00000F03F01914217D147F6C071626A01407F
:101C0000B1EB821F10D1A26A4FF0FF3300F44031D4
:101C100003EB5202B1EB024F06D194F82C1000F006
:101C20007060B0EB016F01D00120D1E70020CFE759
:101C30000438024000004742800E474200700040D6
:101C40000000FFFF10B5401EB0F1807F01D30120DE
:101C500010BD4FF0E02460610F21601701F099FF83
:101C60000020A06107202061002010BD7047704750
:101C700070B590F83C20012A32D0012480F83C4015
:101C8000022280F83D2003685A689D6822F07006A1
:101C90000A6832435A60134B02689A4214D0B2F178
:101CA000804F11D0104B9A420ED0104B9A420BD05D
:101CB0000F4B9A4208D00F4B9A4205D00E4B9A42D6
:101CC00002D00E4B9A4204D1496825F08003194393
:101CD000916080F83D40002180F83C10084670BDBE
:101CE000022070BD000001400004004000080040D8
:101CF000000C00400004014000400140001800407A
:101D000010B5040003D094F83D0010B107E00120A5
:101D100010BD002084F83C00204600F01FF802208F
:101D200084F83D00211D206801F018FC012084F892
:101D3000460084F83E0084F83F0084F8400084F8B0
:101D4000410084F8420084F8430084F8440084F899
:101D5000450084F83D00002010BD000008B5006873
:101D60000B49884212D10B48016841F400310160EF
:101D70000068002200F40030009011461920FFF79F
:101D80008DFCBDE808401920FFF77ABC08BD0000B3
:101D9000004401404438024090F83D10012901D030
:101DA00001207047022180F83D100168CA6842F0A6
:101DB0000102CA6000681149884214D0B0F1804F16
:101DC00011D00F4988420ED00E4988420BD00E49DF
:101DD000884208D00D49884205D00D49884202D07A
:101DE0000C49884204D1816801F00701062903D01B
:101DF000016841F0010101600020704700000140CE
:101E00000004004000080040000C004000040140B5
:101E10000040014000180040704770B5044600685B
:101E200001694FF00005C943890715D4C168C9434A
:101E3000890711D4E91E016101202077206880699B
:101E40008007204602D0FFF7E7FF04E000F0C0F86B
:101E5000204600F065F9257720680169C9434907E4
:101E600017D4C168C943490713D46FF00401016155
:101E7000022020772068806910F4407F204602D03D
:101E8000FFF7CAFF04E000F0A3F8204600F048F98D
:101E9000257720680169C943090716D4C168C94379
:101EA000090712D46FF0080101610420207720682F
:101EB000C0698007204602D0FFF7AEFF04E000F0C3
:101EC00087F8204600F02CF9257720680169C9437E
:101ED000C90617D4C168C943C90613D46FF01001ED
:101EE0000161082020772068C06910F4407F2046F7
:101EF00002D0FFF791FF04E000F06AF8204600F0FE
:101F00000FF9257720680169C943C90708D1C1685D
:101F1000C943C90704D1891E0161204600F066F952
:101F200020680169C943090609D4C168C943090683
:101F300005D46FF0800101612046FFF797FE20680D
:101F40000169C943490609D4C168C943490605D492
:101F50006FF040010161204600F024FA2068016919
:101F6000C94389060BD4C168C943890607D46FF0F9
:101F7000200101612046BDE87040FFF778BE70BDCA
:101F800010B586B0044614216846FEF7E4F90D4901
:101F90002068884213D10C480021026842F00202F6
:101FA0000260006800F00200059002200090CDE978
:101FB0000101CDE9031069460448FFF709FA06B0AC
:101FC00010BD000000040040303802400004024010
:101FD000704770B5044690F83C0000260D46012875
:101FE0000FD0012084F83C006AB1042A1DD0082AD1
:101FF0002FD00C2A3FD00126002084F83C00304628
:1020000070BD022070BD206801F01AFB2068816954
:1020100041F0080181612068816921F0040181613A
:10202000206881692A69114311E0206801F038FBBA
:102030002068816941F4006181612068816921F42F
:1020400080618161206881692A6941EA0221816198
:10205000D2E7206801F05AFB2068C16941F008010D
:10206000C1612068C16921F00401C1612068C169B2
:102070002A69114311E0206801F07CFB2068C169E6
:1020800041F40061C1612068C16921F48061C161CE
:102090002068C1692A6941EA0221C161ACE710B533
:1020A000040003D094F83D0010B107E0012010BDFA
:1020B000002084F83C00204600F01EF8022084F83E
:1020C0003D00211D206801F049FA012084F84600F6
:1020D00084F83E0084F83F0084F8400084F8410012
:1020E00084F8420084F8430084F8440084F84500F2
:1020F00084F83D00002010BD08B5006806498842FC
:1021000008D10648016841F002010160006800F052
:102110000200009008BD000000040040403802406A
:102120007047000010B50446022249B104290ED0C0
:10213000082913D094F84100012816D0012010BDC1
:1021400094F83E000128F9D184F83E200FE094F87D
:102150003F000128F2D184F83F2008E094F84000C5
:102160000128EBD184F8402001E084F841200122CD
:10217000206801F057FA16492068164A884201D0B3
:10218000904203D1436C43F4004343642068884287
:1021900013D0B0F1804F10D00F4988420DD00F49B5
:1021A00088420AD00E49884207D0904205D00D4996
:1021B000884202D00C49884204D1816801F00701AD
:1021C000062903D0016841F001010160002010BD23
:1021D00000000140000401400004004000080040ED
:1021E000000C004000400140001800402DE9F0477D
:1021F0005B492DED068B84B088427DD101F0E6FD70
:10220000584F97ED040B9FED581B51EC100B53ECFE
:10221000112B02F02DF99FED56AB53EC1A2B02F067
:1022200027F99FED551B53EC112B01F033FF07F1FC
:10223000400A9FED538B544CCAE90401DFF84C81EE
:1022400084ED108BC4E90E01D8F80850E86802F05C
:10225000A8F841EC190BDFF8389184ED169B99ED45
:10226000080B51EC100B02F06DF807F18006B0601E
:10227000B5F9020002F095F8C4E90C01288802F0D3
:10228000A7F8C4E91201B5F9080002F08AF8C4E918
:10229000140151EC190B02F055F8E86097ED060BAC
:1022A0009FED3C1B51EC100B53EC112B02F0E0F8AE
:1022B00053EC1A2B02F0DCF853EC182B02F0D8F890
:1022C0009FED361B53EC112B01F0E4FECAE9060129
:1022D00084ED048BC4E90201D8F80C50E86802F0E0
:1022E00060F841EC180B84ED0A8B99ED020B51EC70
:1022F000100B02F027F800E02CE0F060B5F90200C6
:1023000002F04FF8C4E90001288802F061F8C4E93E
:102310000601B5F9080002F044F8C4E9080151ECDF
:10232000180B02F00FF8E86000F034FD0020009078
:10233000019002900390B089002103B2308902B26B
:102340000846FEF70BF904B0BDEC068BBDE8F0477C
:1023500001F026BD04B0BDEC068BBDE8F08700009F
:10236000B8020020E800002000000000000EAC4091
:102370000000000000FFBF4000000000806FF04040
:102380000000000000000040800400203006002013
:10239000E0040020000000000000424000000000B7
:1023A000008076407047704710B500680549884244
:1023B00007D101220449054800F0E6F9044900204C
:1023C000087010BD00480040880100200003002074
:1023D00028000020F8B5016804460868CA684B69FF
:1023E00010F00F0F4FF0000559D003F0010602F472
:1023F0009077374365D0C10705D0D10503D5216C4F
:1024000041F001012164410705D5D90703D0216CB2
:1024100041F002012164810705D5D90703D0216C61
:1024200041F004012164010707D502F02001314386
:1024300003D0216C41F008012164216C00293AD0BD
:10244000800604D5900602D5204601F06BFA20687C
:102450004069216CC0F38010090700D460B32046A6
:1024600001F02BFA20684069400621D5206814301D
:1024700050E8001F21F0400140E80012002AF5D189
:10248000A06BA8B16C490165A06BFEF70BFE00289C
:1024900011D0A06B016D01B0BDE8F0400847830684
:1024A0000FD593060DD52046BDE8F84001F03ABAA5
:1024B0002046FFF779FFF8BD2046FFF775FF25643A
:1024C000F8BD266B2023012E79D1C60677D5D60616
:1024D00075D50868486800904869400640D5A16BEA
:1024E000086840680004000CEAD0A28D8242E7D957
:1024F000E085C869B0F5807F2DD020680C3050E8A9
:10250000001F21F4807140E80012002AF5D12068F4
:10251000143050E8001F21F0010140E80012002AA9
:10252000F5D12068143050E8001F21F0400140E848
:102530000012002AF5D184F83E30256320680C3063
:1025400050E8001F21F0100140E80012002AF5D1E8
:10255000A06BFEF75EFDA08DE18D401A81B229E0EF
:10256000A08DE18D401A81B2E08D0028A8D000290D
:10257000A6D020680C3050E8002F22F4907240E87A
:102580000026002EF5D12068143050E8002F22F0EC
:10259000010240E80026002EF5D184F83E30256384
:1025A00020680C3050E8002F22F0100240E8002391
:1025B000002BF5D12046FFF7F6FEF8BDFFE7050634
:1025C0002BD5150629D594F83D002128F5D1A06812
:1025D000B0F5805F01D12069B0B1206A411C216251
:1025E000216800784860E08C401E0004000CE08404
:1025F000E3D12068C16821F08001C1602068C16812
:1026000041F04001C160D8E7206A0088C0F30800AB
:102610004860206A801C2062E5E74006CDD5500660
:10262000CBD5CA68204622F04002CA6084F83D300B
:1026300000F0F5F8C1E70000C537000870B50400E8
:1026400004D094F83D00002510B106E0012070BDD3
:1026500084F83C50204600F023F8242084F83D0004
:102660002068C16821F40051C160204601F0BAF928
:102670002068016921F4904101612068416921F0DD
:102680002A0141612068C16841F40051C16025649C
:10269000202084F83D0084F83E00002070BD00003A
:1026A0002DE9F04186B0064614216846FDF753FE39
:1026B00030493068884259D12F480024016841F4DC
:1026C00080210160006800F4802005902A481038BD
:1026D000016841F0020101600068694600F00200F3
:1026E00005904FF4406000900220CDE901040320E2
:1026F0000390072004902148FEF76AFE214D2048F0
:102700004FF000672860C5E901744FF48068C5E99F
:1027100003486C61AC61EC612C6228466C62FEF788
:10272000A3FD08B1FEF74BF8B563AE63154D144831
:1027300060353030E5E802074020A5E81101114876
:1027400045F814496030AC61EC612C626C62FEF7B4
:102750008BFD08B1FEF733F8756300221146272080
:10276000AE63FEF79BFF2720FEF78AFF06B0BDE8A9
:10277000F081000000480040403802400004024060
:10278000286002404403002090F83E30202B0ED1F8
:1027900059B152B190F83C30012B08D0012380F898
:1027A0003C300023036301F0A3B9012070470220ED
:1027B0007047000070B50068144988421CD1144C61
:1027C000144D2078AA2810D1287858B9FDF728FE92
:1027D0001122611C1048FFF7D7FF012028702078D4
:1027E000AA2802D12878012807D0012208490A48DE
:1027F000FFF7CAFF0020287070BDFDF711FEBDE88D
:102800007040122202490448FFF7BEBF0048004052
:102810008801002028000020000300207047704736
:10282000FEE700002DE9F84FBF48DFF8F4E2DFF8DB
:1028300000A30178BD489EF8008001250226B94F0B
:1028400090F800C09AF803309AF802204FF0000B7D
:1028500050464FF47A79B8F1000F1ED09FEDB50BBA
:102860009FEDB61B9FEDB72BB848BA4CB8F1010FDE
:1028700000680090B648007869D0B8F1020F70D0B7
:10288000B8F1030F28D1BCF1000F6BD0BCF1010FE0
:1028900069D0BCF1020F67D1F7E00446022B09D0E2
:1028A000CBB319D1002A17D14846FEF77FFD9FED23
:1028B000AA0BE0E0022AF5D19B4F02290ED04C462C
:1028C0004846FEF773FDA14944F288500968086440
:1028D0002046FEF76BFD3E70BDE8F88FA04903204F
:1028E0000A78032A18D0042AF6D1904ABCF1000FC6
:1028F000F2D08EF80000ACF1010C954882F800C0CF
:102900000422027081F800B087F800B084F803B0A8
:1029100084F802B0E0E70CE0844ABCF1030FDBD29C
:102920008EF800500CF1010C82F800C0884A10703B
:10293000E8E74E464846FEF739FD9FED8A0B3046E4
:1029400087ED060BE570BDE8F84FFEF72FBDBCF133
:10295000010F0AD0BCF1020F0AD0BCF1030F0CD159
:1029600009E056E08BE08DE091E084ED000B04E09F
:1029700084ED001B01E084ED002BD046022B02D138
:102980005346022A04D0DFF8C8A1032811D017E06B
:10299000654C022905D0032801D004289CD1484663
:1029A0008FE0032803D000218EF800108FE0022171
:1029B000FAE7009944F6701008644846FEF7F6FC02
:1029C00098F8020088B1022886D198F80300002800
:1029D00082D19AF80000032811D004289AD14846E1
:1029E000FEF7E4FC88F8036076E74846FEF7DEFC75
:1029F0009FED5E0B87ED040B88F802506CE74846AC
:102A0000FEF7D4FC94ED000B87ED060B88F803501D
:102A100062E75446022B01D1022A0BD032B3022ABC
:102A2000E2D1002BE0D10328DED14846FEF7BEFC00
:102A3000E67051E73C4D02290FD00328D4D14C4613
:102A40004846FEF7B3FC414944F2885009680864DF
:102A50002046FEF7ABFC2E703EE78EF800B084F8FF
:102A600003B08AF802B085F800B035E74846FEF7B3
:102A70009DFC9FED400B87ED040BA5702CE784EDCA
:102A8000000B04E084ED001B01E084ED002B022B21
:102A900002D15346022A02D004281FD025E0224C3E
:102AA000022912D004289FD14D464846FEF77EFCED
:102AB0002846FEF77BFC254944F670100968086437
:102AC0002846FEF773FC267006E78EF8005083F860
:102AD00003B08AF802B084F800B0FDE6009944F231
:102AE000885008644846FEF761FC9AF80200564692
:102AF00068B102288CD1F078002889D14846FEF7C9
:102B000055FC94ED000B87ED060BF570E4E64846A6
:102B1000FEF74CFC9FED190B87ED040BB570DBE65F
:102B200000000020E80000200A0000200B00002028
:102B300002000020CDCCCCCCCC1C6440A4703D0A5B
:102B4000D70B614085EB51B81EF55B407002002049
:102B50000100002010000020000000000000000024
:102B6000180000207B14AE47E1FA3D400000000051
:102B700000789440000000000058914000000000E0
:102B8000000089400F4810B50D49016003214160E4
:102B900000214FF400228160C0E903124FF440127B
:102BA0004261017641768176C17601774177FEF701
:102BB00078F8002803D0BDE81040FDF700BE10BD36
:102BC00000640040200200200F4810B50D4901604C
:102BD0000321416000214FF400228160C0E903120B
:102BE0004FF440124261017641768176C1760177D9
:102BF0004177FEF756F8002803D0BDE81040FDF7F6
:102C0000DEBD10BD00680040480200200D4808B538
:102C1000016841F4001101600068002200F4001016
:102C2000009011460C20FEF739FD0C20FEF728FD20
:102C3000002211460E20FEF731FDBDE808400E20AF
:102C4000FEF71EBD30380240114808B5016841F05A
:102C500080010160016801F080010091016841F08C
:102C600002010160016801F002010091016841F078
:102C700001010160016801F001010091016841F06A
:102C800008010160006800F00800009008BD000025
:102C9000303802400B4810B509490160A721416056
:102CA00000214FF47A72C0E9021201618161FFF7DD
:102CB00027F8002803D0BDE81040FDF780BD10BD07
:102CC00000440140B802002010B58AB000240794E7
:102CD0001C2168460894FDF73EFB17481549016022
:102CE0005321C0E9011444F61F61C0E90314846153
:102CF000FFF7D5F908B1FDF762FD079407A90E4863
:102D00000894FEF7B5FF08B1FDF759FD602000906B
:102D100043F68C40CDE901040C2269460648049430
:102D2000FFF757F908B1FDF74AFD0348FFF728F907
:102D30000AB010BD00040040700200200C4810B51D
:102D40000A4901604FF4E1314160002181600C22A9
:102D5000C160C0E904128161C161FFF76FFC002806
:102D600003D0BDE81040FDF72ABD10BD004800406B
:102D700000030020FEE7FEE703489FED040B80ED13
:102D8000040B80ED020B70470804002000000000D7
:102D9000000000002DE9F041FF4F2DED108B97ED65
:102DA000040B51EC100B01F0CDFA9FEDFCABFD4E86
:102DB000A7F178049FEDFC8B9FEDFD9B394604F154
:102DC000D80591ED02BB012802D0022872D172E031
:102DD00097ED000B51EC1B0B53EC102B01F088FC12
:102DE00041EC1B0B96ED060B53EC1B2B51EC100B1F
:102DF00001F03EFB94ED1A1B53EC112B01F078FC13
:102E00009FEDED1B53EC112B01F032FB96ED160BF1
:102E100041EC1D0B53EC1B2B51EC100B01F028FB6C
:102E200094ED1C1B53EC112B01F080F853EC1D2B7F
:102E300001F07CF841EC1C0B53EC182B01F016FC54
:102E400004D2B0EE480AF0EE680A0AE053EC192BFF
:102E500051EC1C0B01F0D0FA06D2B0EE490AF0EEAC
:102E6000690A85ED000B01E085ED00CB9FEDD4CB29
:102E700051EC1D0B53EC1C2B01F0FAFA94ED1A1BCC
:102E800053EC112B01F052F8C4E91A0196ED0E0B28
:102E900053EC1B2B51EC100B01F0EAFA53EC1C2BFA
:102EA00001F0E6FA94ED1C1B53EC112B01F03EF8F7
:102EB000C4E91C012EE197ED0A0B9FEDC31B51ECF9
:102EC000100B53EC112B01F0D3FA97ED061B53ECCA
:102ED000112B01F02BF853EC1B2B01F0FDFB41EC07
:102EE0001C0BB0EE4C0AF0EE6C0A00F062FEB0EE85
:102EF00040BAF0EE60BA96ED000B51EC1B0B53ECB0
:102F0000102B01F079FA03D8B0EE4ACAF0EE6ACA83
:102F100096ED020B53EC1C2B51EC100B01F0A8FAB0
:102F200094ED141B53EC112B01F0E2FB9FEDA2DB9F
:102F300053EC1D2B01F09CFA96ED000B41EC1E0B9F
:102F400053EC102B51EC1B0B01F090FB39D296ED9A
:102F5000120B53EC1C2B51EC100B01F089FA94ED81
:102F6000121B53EC112B00F0E1FF53EC1E2B00F071
:102F7000DDFF41EC1B0B53EC182B01F077FB04D267
:102F8000B0EE48BAF0EE68BA0AE053EC192B51ECF7
:102F90001B0B01F031FA03D2B0EE49BAF0EE69BA78
:102FA00096ED1A0B53EC1B2B51EC100B01F060FA51
:102FB00097ED001B53EC112B01F09AFB41EC1B0B1E
:102FC00003E0B0EE4ABAF0EE6ABA96ED060B53ECA7
:102FD0001B2B51EC100B01F04BFA94ED161B53EC2C
:102FE000112B01F085FB53EC1D2B01F041FA96EDFE
:102FF000160B41EC1F0B53EC1B2B51EC100B01F08B
:1030000037FA94ED181B53EC112B00F08FFF53ECA3
:103010001F2B00F08BFF41EC1D0B53EC182B01F024
:1030200025FB04D2B0EE480AF0EE680A0AE053EC41
:10303000192B51EC1D0B01F0DFF906D2B0EE490A55
:10304000F0EE690A85ED020B01E085ED02DB97EDFC
:10305000081B97ED060B53EC112B51EC100B01F0F4
:1030600047FB41EC100B4C48A11C6838FDF7DAFA1D
:1030700097ED0A0B94ED041B53EC102B51EC110B44
:1030800000F054FFC5E9040196ED0A0B53EC1C2B2C
:1030900051EC100B01F0ECF99FED49CB53EC1C2BDC
:1030A00001F0E6F994ED121B53EC112B00F03EFFFA
:1030B000C4E9120153EC1C2B51EC1E0B01F0D8F9A2
:1030C00094ED141B53EC112B00F030FFC4E91401F4
:1030D00053EC1C2B51EC1F0B01F0CAF994ED161B9D
:1030E00053EC112B00F022FFC4E9160196ED0E0BF4
:1030F00053EC1B2B51EC100B01F0BAF953EC1C2BC9
:1031000001F0B6F994ED181B53EC112B00F00EFFF3
:10311000C4E9180197ED100B51EC100B01F012F9F6
:1031200001287DD002287CD197ED160B9FED261B40
:1031300051EC100B53EC112B01F09AF997ED121B87
:1031400053EC112B00F0F2FE97ED0E1B53EC112BFC
:1031500001F0C2FA41EC1C0BB0EE4C0AF0EE6C0A26
:1031600000F027FDB0EE40BAF0EE60BA96ED000B2D
:1031700051EC1B0B53EC102B01F03EF903D8B0EED1
:103180004ACAF0EE6ACA96ED040B53EC1C2B51ECC4
:10319000100B01F06DF91BE080040020000000001E
:1031A0000000000050000020000000000000D0409F
:1031B000000000000000D0C00000000000005940E6
:1031C000FCA9F1D24D62503F0000000000FFBF405B
:1031D00094ED081B53EC112B01F08AFA1FED0AEB5A
:1031E00053EC1E2B01F044F996ED000B41EC1D0B46
:1031F00053EC102B51EC1B0B01F038FA7DD296EDFD
:10320000140B53EC1C2B51EC100B01F031F994ED25
:10321000061B53EC112B00F089FE53EC1D2B01E033
:103220000EE07DE000F082FE41EC1B0B53EC182B0E
:1032300001F01CFA79D2B0EE48BAF0EE68BA7FE03D
:1032400097ED0C0B97ED0E1B53EC102B51EC110B63
:1032500001F04EFA41EC1B0B96ED080B53EC1B2BC7
:1032600051EC100B01F004F994ED0E0B53EC102B04
:1032700001F03EFA1FED301B53EC112B01F0F8F872
:1032800096ED180B41EC1A0B53EC1B2B51EC100B69
:1032900001F0EEF894ED101B53EC112B00F046FEFC
:1032A00053EC1A2B00F042FE41EC1C0B53EC182B94
:1032B00001F0DCF902D285ED068B0BE053EC192B03
:1032C00051EC1C0B01F098F802D285ED069B01E051
:1032D00085ED06CB1FED468B51EC1A0B53EC182BEA
:1032E00001F0C6F894ED0E1B53EC112B00F01EFEFE
:1032F000C4E90E0196ED100B00E031E053EC1B2BFE
:1033000051EC100B01F0B4F853EC182B01F0B0F8AD
:1033100094ED101B53EC112B00F008FEC4E91001D2
:10332000BDEC108BBDE8F081FFE753EC192B51EC9D
:103330001B0B01F061F803D2B0EE49BAF0EE69BAA6
:1033400096ED1A0B53EC1B2B51EC100B01F090F87F
:1033500097ED0C1B53EC112B01F0CAF941EC1A0B41
:1033600096ED080B53EC1A2B51EC100B01F080F882
:1033700094ED0A1B53EC112B01F0BAF953EC1E2B00
:1033800001F076F896ED180B41EC1E0B53EC1A2B5E
:1033900051EC100B01F06CF894ED0C1B53EC112B5D
:1033A00000F0C4FD53EC1E2B00F0C0FD41EC1B0BE4
:1033B00053EC182B01F05AF902D285ED088B0BE083
:1033C00053EC192B51EC1B0B01F016F802D285EDD2
:1033D000089B01E085ED08BB97ED141B97ED120BE0
:1033E00053EC112B51EC100B01F082F941EC100B56
:1033F0002B4901F10800FDF715F997ED160B94ED37
:10340000021B53EC102B51EC110B00F08FFDC5E9A2
:103410000A0196ED0C0B53EC1C2B51EC100B01F038
:1034200027F81FED998B53EC182B01F021F894ED40
:10343000061B53EC112B00F079FDC4E9060153EC97
:10344000182B51EC1D0B01F013F894ED081B53ECF5
:10345000112B00F06BFDC4E9080153EC182B51EC63
:103460001E0B01F005F894ED0A1B53EC112B00F034
:103470005DFDC4E90A0196ED100B53EC1A2B51ECDB
:10348000100B00F0F5FF53EC182B00F0F1FF94ED5A
:103490000C1B53EC112B00F049FDC4E90C013FE774
:1034A0000804002070477047FEF790B830B593B01D
:1034B00030216846FCF74FFF14210CA8FCF74BFFA6
:1034C0001D480025016841F080510160006800F04E
:1034D000805011901948016841F4804101600068F2
:1034E000022400F4804011900120039010200490E9
:1034F000009406940820CDE90750A820CDE90904DE
:1035000004200B906846FEF7E7F908B172B6FEE7B3
:103510000CA90F2081E831004FF4A0500F904FF418
:103520008050109005210CA8FEF7EAF8002801D081
:1035300072B6FEE713B030BD403802400070004064
:103540000248016841F470010160704788ED00E0B5
:103550000148FEF762BC0000B8020020F0B5026826
:10356000254C264D264E274F274B4FF0804CA0422E
:1035700009D0604507D0A84205D0B04203D0B84278
:1035800001D0984204D122F0700E4A6842EA0E023D
:10359000A0421BD0604519D0A84217D0B04215D028
:1035A000B84213D0984211D0184DA8420ED0184DF1
:1035B000A8420BD0174DA84208D0174DA84205D0FD
:1035C000164DA84202D0164DA84203D122F44075F0
:1035D000CA682A434D6922F080022A4302608A6841
:1035E000C2620A688262A04201D0984201D1096990
:1035F000016301214161F0BD000001400004004071
:1036000000080040000C0040000401400040014060
:10361000004401400048014000180040001C0040E8
:103620000020004010B501F01F030121046A9940F9
:103630008C430462016A9A401143016210BD00008C
:10364000F0B5026A22F001020262036A42688469EC
:10365000124E24F073050C682C4323F002058B688E
:103660002B430D4DA84201D0B04205D123F00807ED
:10367000CB683B4323F00403A84201D0B04205D1FC
:103680004D6922F4407215438A692A43426084617D
:10369000496841630362F0BD00000140000401403D
:1036A000F0B5026A22F010020262026A436884697D
:1036B0000D6824F4E64444EA05248D6822F02002D3
:1036C00042EA05120F4D104EA84201D0B04206D179
:1036D000CF6822F0800242EA071222F04002A8429C
:1036E00001D0B04207D14D6923F4406343EA85031A
:1036F0008D6943EA8503436084614968816302629E
:10370000F0BD00000000014000040140F0B5026A75
:1037100022F480720262026A4368C46922F4007271
:1037200024F073050C68124E2C438D6842EA052282
:103730000E4DA84201D0B04206D1CF6822F40062FB
:1037400042EA072222F48062A84201D0B04207D1A7
:103750004D6923F4405343EA05138D6943EA051389
:103760004360C4614968C1630262F0BD000001406A
:103770000004014030B5026A22F480520262046AF9
:103780004268C3690D6823F4E64343EA05238D6864
:1037900024F4005444EA0534084DA84202D0084DF0
:1037A000A84204D14D6922F4804242EA8512426067
:1037B000C36149680164046230BD0000000001403B
:1037C0000004014010B5806B0021C185C184FEF763
:1037D000EBFD10BD70B5846B2068406994F83D1016
:1037E000C0F3C0100025212904D118B1E58420467A
:1037F00000F08AF82068406994F83E10C0F3801009
:10380000222904D118B1E585204600F056F8206C35
:1038100040F0100020642046FEF7C6FD70BD10B5D4
:103820000146806B09680968C9052FD40021C1854C
:1038300001680C3151E8002F22F4807241E8002326
:10384000002BF5D10168143151E8002F22F001025C
:1038500041E80023002BF5D10168143151E8002F15
:1038600022F0400241E80023002BF5D1202180F80E
:103870003E10016B012909D101680C3151E8002F7C
:1038800022F0100241E80023002BF5D1016B012941
:1038900002D0FEF78FFF10BD818DFEF784FD10BDB5
:1038A00010B5806B016B012902D0FEF7B7FF10BD88
:1038B000818D4908FEF777FD10BD01680C3151E894
:1038C000002F22F4907241E80023002BF5D101680B
:1038D000143151E8002F22F0010241E80023002BAF
:1038E000F5D1016B012909D101680C3151E8002F94
:1038F00022F0100241E80023002BF5D1202180F8AE
:103900003E1000210163704701680C3151E8002F1F
:1039100022F0C00241E80023002BF5D1202180F8DD
:103920003D10704708B590F83E10222901D00220C2
:1039300008BD82684FF480539A4201D1016921B1D8
:10394000816A9A421BD04AB10AE00268816A5268D1
:10395000C2F308020A80816A891C08E0026972B118
:103960000268526802F07F020A70816A491C816213
:10397000C18D491E0904090CC18503D019E00268F4
:103980005268F1E70168CA6822F02002CA60016843
:10399000CA6822F48072CA6001684A6922F0010292
:1039A0004A61202180F83E10016B012903D0FEF707
:1039B00001FF002008BD0021016301680C3151E8BE
:1039C000002F22F0100241E80023002BF5D10168FE
:1039D0000A68D20602D50A6849680091818DFEF70F
:1039E000E2FCE6E770B5044600680169E26821F48C
:1039F0004051114301612169A068E269084361698E
:103A0000114308432168CA6849F20C639A43024390
:103A1000CA6020684169A26921F440711143416183
:103A200031492068884202D03049884202D1FDF7EE
:103A300011FF01E0FDF7FEFEE26900231921642574
:103A40003226B2F5004F626828D0A0FB0101930F27
:103A50009200FCF709FC0146B0FBF5F06FF018028C
:103A6000504301EB800006EB0010B0FBF5F000F0D6
:103A7000F002B1FBF5F002EB0012B1FBF5F06FF0D4
:103A80001803584301EB800006EB0010B0FBF5F083
:103A900000F00F0021681044886070BDA0FB010198
:103AA00092185B41FCF7E0FB0146B0FBF5F0020128
:103AB000B1FBF5F06FF01803584301EB800006EB03
:103AC000C000B0FBF5F000F0F80002EB4002B1FBE3
:103AD000F5F0584301EB800006EBC000B0FBF5F0B9
:103AE00000F00700D6E7000000100140001401407C
:103AF00038B581628285002513460446056422207C
:103B000084F83E00A26B1C48D063A26B1B48106473
:103B1000A26B1B48D064A06B0A4605652168A06BA8
:103B2000091DFDF70BFC206801684068009084F8CF
:103B30003C50206948B120680C3050E8001F41F427
:103B4000807140E80012002AF5D12068143050E856
:103B5000001F41F0010140E80012002AF5D1206861
:103B6000143050E8001F41F0400140E80012002AE4
:103B7000F5D1002038BD00001F380008A13800082A
:103B8000D53700080148FEF725BC000000030020DF
:103B9000FEE70907090E002804DB00F1E02080F8A9
:103BA0000014704700F00F0000F1E02080F8141DB1
:103BB00070472DED020B019820F0004001909DED23
:103BC000000B02B07047000000B58BB0002001214F
:103BD000CDE90601089100900190029003900590B4
:103BE000049069460B48FCF763FE0A48FDF7DEF9CE
:103BF00002210848FCF7E5FD69460748FCF758FE36
:103C00000548FDF7D3F902210348FCF7DAFD0BB0B4
:103C100000BD000020020020480200200188B0F909
:103C20000820891A41F28832914202DDC168491E9A
:103C300005E041F28832D14202DAC168491CC16014
:103C400070470000FDF7CAFCFFF730FCFEF7FCFFF1
:103C5000FEF7DCFFFFF71EF8FFF770F8FFF734F808
:103C6000FEF790FFFEF7B0FFFFF786F82C48FEF74F
:103C700093F80C212B48FEF755FAFFF7A5FF2A48C9
:103C8000FDF794F902212848FCF79BFD0122274902
:103C90002748FEF779FD29489FED260B9FED301B45
:103CA00080ED160B9FED260B1E4980ED0E0B9FED50
:103CB000260B80ED060B9FED260B80ED120B9FED82
:103CC000260B80ED0A0B80ED021B9FED271B80ED7C
:103CD000181B9FED271B80ED101B9FED271B80ED10
:103CE000081B9FED271B80ED141B80ED0C0B9FED37
:103CF000260B80ED040B9FED260B80ED000B9FED56
:103D0000260B80ED1A0B096844F2885008644FF4C2
:103D1000FA7000BFFDF74AFBFEF784FD6420F9E767
:103D2000B802002070020020480200208801002014
:103D3000000300202670EB6E9EEADE3F500000205C
:103D4000C5A9D6C22CB4D03F20D26F5F07CE893F21
:103D500000529B38B9DFDF3F9307D8FD19947F3FAE
:103D6000666A12BC218DAA3F39454772F98FE03F40
:103D700060066344A2D0D93F7B14AE47E17A843F0A
:103D8000C0046EDDCD93E63F7B14AE47E17AA43FDD
:103D90000000000000008940000000000000F03F2B
:103DA000094901F1A00001601031416010318160CA
:103DB0001031C160103101611031416110318161F8
:103DC0001031C16170470000900500202DE9F047D7
:103DD000464E474F474C484D4FF002092DED048B9E
:103DE0009FED468BF068DFF81C81C1680088C1EB4D
:103DF0004131084400F0D5FA41EC100B84ED060B7C
:103E000095ED061B53EC112B00F072FC53EC182BB4
:103E100000F02CFC0CD295ED061B94ED060B53EC38
:103E2000112B51EC100B00F063FC41EC100B03E084
:103E3000B0EE480AF0EE680A9FED331B87ED060BE3
:103E400053EC112B51EC100B00F0D6FA05D298F878
:103E50000310012901D188F80390B068C168008877
:103E6000C1EB4131084400F09CFA41EC190B9FED85
:103E7000280B84ED049B53EC102B00F0F9FA9FED16
:103E8000261B53EC112B00F005F9254AC2E900016D
:103E900095ED040B51EC190B53EC102B00F028FCA2
:103EA00053EC182B00F0E2FB0BD295ED041B94EDC4
:103EB000040B53EC112B51EC100B00F019FC41ECEE
:103EC000180B9FED180B87ED048B53EC102B51EC66
:103ED000180B00F091FA05D298F80210012901D1CF
:103EE00088F80290BDEC048BBDE8F0873006002016
:103EF000E0010020A00100202801002000000000B7
:103F000000000000020000200000000000409F4070
:103F100000000000806FF040000000901F0D7C4109
:103F200020000020000000000088B34010B591EA96
:103F3000030F48BF83F0004300F1E283841A71EB62
:103F4000030C05D2121943EB0C03001B61EB0C01AF
:103F5000DFF824E14FEA1154A4EB135C1EEA430F8F
:103F600018BF9EEA445F73D023EA0E03DCF1200EF3
:103F700021EA045143F4801332D322FA0CFE10EBF1
:103F80000E0023FA0CFE41EB0E01CCF1200E03FAD9
:103F90000EFE10EB0E0051F10001B1F5801FCCF1C7
:103FA000200E32D201EB045112FA0EF2BDE810409D
:103FB00058BF7047401C38BF5FEA420218BF7047C5
:103FC000002814BF20F0010041F100014FEA410335
:103FD00013F5001F38BF7047A1F1C04100F040BB8E
:103FE000012A43EB0302ACF1200CDCF11F0E32BFBF
:103FF0004FF0000E23FA0CF310EB030041EB0451D9
:10400000B4EB115FD0D0A1EB045101F58011490848
:104010005FEA300001EB04510ED350F1000038BFCD
:1040200012FA0EFE08D1BDE81040C9E7401C38BFA7
:104030005FEA4202CAD1C3E7BDE810404FEA41033C
:1040400013F5001F38BF7047A1F1C04100F008BB55
:104050009EEA445F08D011EA5E0FBDE8104004BF3D
:1040600001F0004100207047BDE8104070B500F03D
:10407000A9FA00BF64FBBE3E0000E0FF491058BF34
:10408000C1F140415B1058BFC3F140438B42EFF395
:10409000008070472DE9C04130B4DFF8A0C23CEA8F
:1040A000111418BF3CEA131400F0EC8081EA0305F8
:1040B0001CEA111444EAD57418BF1CEA131500F069
:1040C000C780A4EB05044FF0004545EAC12145EA4D
:1040D000C32341EA505143EA525304F17F74994299
:1040E00004F500344FEAC0204FEAC22208BF9042D4
:1040F00000F09C804FEA13650FF24016765D4FEAA0
:10410000134506FB05F7C7F1807706FB07F74FEA73
:10411000D737A7FB03687642C8F58038A7FB06CEE1
:1041200038BFA8F1010807FB08E64FF0000EA6FB18
:10413000028CE6FB03CEDCF1000CCEF1004E38BF62
:10414000AEF1010EA6FB0C584FF000074FF0000532
:10415000E6FB0E87A1FB08C6A0FB07CE16EB0E06FA
:1041600045F10005E1FB076515F1E04E7EBFA4F5C2
:1041700080345FEA46066D4116F1800745F100057F
:104180004FEA17274FEA066647EA0567A6F1DE46BB
:10419000B6F1805F4FEA15251FD9384624F0010C8F
:1041A00005EBC471BCF1FE6F01EB0C1102D8F0BC41
:1041B000BDE8008124425CBF01F5801E9EEAC47FF9
:1041C00002D4F0BCBDE80081244238D4F0BCA1F197
:1041D000C041BDE8004100F043BA4FEAD22242EAB2
:1041E00043524FEAD323A7FB02864FEAD02040EA8E
:1041F000415007FB03661EEA0E0F4FEAD12105FB73
:10420000026658BFA6EB0056B6EB00564FEA520EB8
:104210004EEAC37E18EB0E0E56EB530EBDD518EBCF
:1042200002085E417F1C55F10005B6E74FF480158A
:104230004FF000074FF000064FF00008ADE7F0BC6C
:104240004FF0000001F1C04101F00041BDE80081E4
:1042500011EA0C1F0CEA131500D00CE013EA0C1F36
:1042600000F025804FF00000F0BC81EA030101F06E
:104270000041BDE80081F0BCBDE8004181EA0301D6
:1042800000F0EEB9F0BCBDE8004170B500F09AF95D
:10429000097EFC3E00F007B881EA03014FF0000000
:1042A00001F00041704781EA030100F0D9B9F0BC88
:1042B000BDE800414FF0000021497047FFFDFBF9C8
:1042C000F7F5F4F2F0EEEDEBE9E8E6E4E3E1E0DE49
:1042D000DDDBDAD8D7D5D4D3D1D0CFCDCCCBCAC8BB
:1042E000C7C6C5C4C2C1C0BFBEBDBCBBBAB9B8B7E2
:1042F000B6B5B4B3B2B1B0AFAEADACABAAA9A8A8D5
:10430000A7A6A5A4A3A3A2A1A09F9F9E9D9C9C9BA2
:104310009A9999989797969595949393929191904D
:104320008F8F8E8E8D8C8C8B8B8A898988888787DE
:104330008685858484838382828181800000FF0753
:104340000000F87F4FEA41034FEA5353A3F580631F
:10435000D3F11E03C8BFD3F1210C0CDD4FF0004296
:1043600042EAC12242EA505232FA03FC8CEAE17C72
:10437000ACEBE1707047102BC4BF0020704703F511
:10438000787CBCF1FF3F04D06FF0004282EA21004C
:10439000704770B500F016F94992248000207047EC
:1043A000F2E710F0004248BF4042B0FA80F310FA42
:1043B00003F10AD0C3F11D0303F580634FEA4150B6
:1043C00002EB035202EBD12170474FF0000070471F
:1043D000B0FA80F310FA03F10AD0C3F11D0303F51C
:1043E00080634FEA41504FEA035202EBD1217047FC
:1043F0004FF000007047000051EA030C17D41CF581
:10440000801F58BFBCF5801F00F10680994218BF7D
:10441000704708BF9042704707D711F5801F58BFFB
:1044200013F5801F19D499427047894270471CF5D3
:10443000801F08D5BCF5801FF7D58B4218BF704789
:1044400008BF824270474FF4001C1CEB410F38BF7D
:104450001CEB430F01D28B42704770B500F0B2F8ED
:10446000922449004FF000514FF08053FFF706BEF1
:10447000DFF848C170B51CEA111E1EBF1CEA1315F7
:104480009EEA0C0F95EA0C0F00F06F8081EA03049E
:1044900023EA4C134EEAD47E21EA4C1141F48011F8
:1044A00043F48013AE44A1FB024CA0FB0365AEF1C4
:1044B0007F7E361955EB0C05A1FB034C4CF1000334
:1044C000A0FB021C16EB0C06654153F100030942E8
:1044D00018BF46F0010613F4007F0BD14FEA0331F9
:1044E0004FEA0530340341EA155140EA16506FF0A7
:1044F00003020AE04FEAC3214FEAC520F40241EA71
:10450000555140EA56506FF0020202EB2E4201EB89
:10451000025585EACE710AD05FEA440C18BF24F038
:10452000004450F1000041F1000120EAD47040F253
:10453000FE7C624500D270BDA84214BF4FF080449B
:104540004FF04044002E08BF0024BEF1806FA8BF8A
:10455000A1F1C041BDE8704080F282804FF00000C0
:1045600001F1C04101F0004170479EEA0C0F0CEAD6
:10457000131518BF95EA0C0F06D04FF0000081EA22
:10458000030E0EF0004170BD00F01CF88900013EE2
:1045900000F007B800F009B84FEA430C5FEA5C5C32
:1045A00008D081EA030100F05BB84FEA410C5FEAF2
:1045B0005C5CF6D14FF00000014970470000FF0736
:1045C0000000F87F0EF1020E2EF0030E5EF8046B71
:1045D000364205D4012A43EB030515F5001F12D816
:1045E000012841EB010C1CF5001F0CD80ED14FEA3D
:1045F000D17C15F5001F0CEB4C0C0CF1020C08BF24
:104600004CEBD37C04E04FF0080C01E04FEAD37C84
:104610000CEB4C0526FA05F606F00706B6F1040C7D
:1046200006D20EEB860CBDE870404CF0010C6047E2
:10463000DFE80CF0090B02024FF000414FF00000E0
:10464000A1F5002170BD19461046012851EB010467
:1046500018BFD4F5001484BF002001F0004170BDE4
:104660000808A0F500114FEA3101704753EA010C28
:1046700017D41CF5801F58BFBCF5801F00F10680C1
:104680008B4218BF704708BF8242704707D713F5A7
:10469000801F58BF11F5801F19D48B4270479B4271
:1046A00070471CF5801F08D5BCF5801FF7D59942CF
:1046B00018BF704708BF904270474FF4001C1CEBB6
:1046C000430F38BF1CEB410F01D2994270470FB422
:1046D0000CBC03BCFFF7C1BE91EA030F10B581F01B
:1046E00000413FF52BAC83F0004300F009B8000017
:1046F00010B591EA030F48BF83F000433FF51EACAD
:10470000841A71EB030C07D212198CF0004C43EBA6
:104710000C03001B61EB0C01DFF8A4E14FEA11541C
:10472000A4EB135C1EEA430F18BF9EEA445F00F03F
:10473000B08023EA6E03524221EA0451C3EB6E03B8
:1047400038BF5B1EDCF1200E25D322FA0CFE10EBE5
:104750000E0043FA0CFE41EB0E01CCF1200E03FAE1
:104760000EFE10EB0E0051F10001CCF1200E29D409
:1047700012FA0EF201EB0451BDE8104058BF704729
:10478000401C1CBFB2F1004F704700280CBF491CF1
:1047900020F00100704712EB020E43EB030218BF3A
:1047A0004FF0010E4EEA4202ACF1200CDCF11E0E7D
:1047B00054D943FA0CFE10EB0E0051F1FF31CCF14D
:1047C0001E0ED5D50EF1010E12FA0EFE404141EB40
:1047D000010101EB445C5FEA5C5C10D910EBDE7018
:1047E00001EB045138BFBEF1004FBDE8104018BFC7
:1047F000704700280CBF491C20F00100704730D2E0
:104800004FEAD42C11F5001124F400641BD0B1FA46
:1048100081F20B3AA41AA41ED2F12003914030FA7F
:1048200003F31943904001EBCC71002C01EB0451D0
:10483000BDE81040A8BF704701F1C0414FF0000033
:1048400001F000417047B0FA80F310FA03F100D193
:1048500010BDE41A173C4805C90AE4E701EB04510E
:1048600010BD491001EB0451BDE810404FEA300083
:1048700002E04FF0000170474A0008BF0042F8D044
:10488000B2F5001F28BF704701F000414FF0000053
:1048900070479EEA445F07D011EA5E0FBDE8104002
:1048A00004BF002100207047BDE8104070B5FFF73D
:1048B00089FE00BF40DFF63E83F00041104670479E
:1048C0000000E0FF4FF04070E1EE100A7047000674
:1048D0001016000610160000000000000000010283
:1048E0000304060708090000000001020304000099
:1048F0001049000800000020E4000000C401000886
:10490000F4490008E40000202C0C0000E00100083D
:104910000000000000000000000000000000000097
:104920000000000000000000000000000000000087
:104930000000000000000000000000000000000077
:104940000000000000000000000000000000000067
:104950000100000010000000000000000024F4002E
:104960000000000000407F40000000000000000048
:104970000000000000000000000000000000000037
:104980000000000000000000000000000000000027
:104990000000000000000000000000000000000017
:1049A0000000000000000000000000000000000007
:1049B00000000000000000000000000000000000F7
:1049C0000000000000000000000000000000E03FC8
:1049D00000000000000000000000000000000000D7
:1049E00000000000000000000000000000000000C7
:0449F00000000000C3
:040000050800018965
:00000001FF
