:020000040800F2
:10000000E011002069020008EF2C0008B927000861
:10001000ED2C00085F040008DD330008000000003C
:10002000000000000000000000000000F32C0008A9
:10003000A507000800000000F12C0008F52C0008BE
:10004000830200088302000883020008830200087C
:10005000830200088302000883020008830200086C
:10006000830200088302000883020008830200085C
:10007000E906000883020008F5060008830200086C
:100080008302000883020008830200087905000843
:100090006D0500088302000883020008830200083F
:1000A000830200089D2D00088302000883020008D7
:1000B000830200088302000883020008830200080C
:1000C00083020008830200088302000883020008FC
:1000D000830200088302000883020008D13300086D
:1000E00083020008830200088302000883020008DC
:1000F00083020008830200088302000883020008CC
:1001000083020008830200088302000883020008BB
:1001100083020008830200088302000883020008AB
:10012000830200088302000883020008830200089B
:10013000830200088302000883020008910500087A
:100140008505000883020008830200088302000876
:10015000830200088302000883020008830200086B
:10016000830200088302000883020008830200085B
:1001700083020008830200088302000800000000D8
:10018000830200088302000800F002F800F05CF827
:100190000AA090E8000C82448344AAF10107DA45E2
:1001A00001D100F051F8AFF2090EBAE80F0013F0D8
:1001B000010F18BFFB1A43F001031847DC50000081
:1001C000FC5000000A444FF0000C10F8013B13F003
:1001D000070408BF10F8014B1D1108BF10F8015BA0
:1001E000641E05D010F8016B641E01F8016BF9D193
:1001F00013F0080F1EBF10F8014BAD1C0C1B09D1EA
:100200006D1E58BF01F801CBFAD505E014F8016B5B
:1002100001F8016B6D1EF9D59142D6D370470000ED
:100220000023002400250026103A28BF78C1FBD8FF
:10023000520728BF30C148BF0B6070471FB505F09B
:1002400015F81FBD10B510BD00F0CFF81146FFF72F
:10025000F5FF03F013F900F0EDF803B4FFF7F2FF38
:1002600003BC00F0F5F80000094880470948004742
:10027000FEE7FEE7FEE7FEE7FEE7FEE7FEE7FEE756
:10028000FEE7FEE704480549054A064B70470000B3
:100290008D2D000889010008E00B0020E0110020EE
:1002A000E00D0020E00D002053EA020C00F0698010
:1002B0002DE9F04B4FF00006002B1FBFB3FA83F57A
:1002C00003FA05F424FA05F65E4012BF1643B2FAAB
:1002D00082F502FA05F4C5F120051EBF22FA05FCDD
:1002E00044EA0C04203556EA044C4FEA144418BF83
:1002F000641C4FF000084FF00009904271EB030CB2
:1003000039D3002919BFB1FA81F701FA07F6B0FA1B
:1003100080F700FA07F6C7F120071EBF20FA07FC96
:1003200046EA0C062037B6FBF4FCA7EB0507103FA6
:1003300007F01F0BCBF120060CFA0BFB2CFA06F68C
:1003400044BFB3460026202FA4BF5E464FF0000BEB
:100350005BEA060C08BF4FF0010B19EB0B09ABFB76
:10036000027C48EB0608C01B06FB02CC0BFB03CC4F
:1003700071EB0C01C1E70B46024641464846BDE819
:10038000F08B13B54FF000004FF00001AFF3008089
:10039000BDE81C4070474FF0000200B5134694467C
:1003A0009646203922BFA0E80C50A0E80C50B1F1CD
:1003B0002001BFF4F7AF090728BFA0E80C5048BFE1
:1003C0000CC05DF804EB890028BF40F8042B08BF7F
:1003D000704748BF20F8022B11F0804F18BF00F87B
:1003E000012B7047704770477047754600F02CF836
:1003F000AE4605006946534620F00700854618B012
:1004000020B5FFF73FFFBDE820404FF000064FF05A
:1004100000074FF000084FF0000B21F00701AC4639
:10042000ACE8C009ACE8C009ACE8C009ACE8C00958
:100430008D46704710B50446AFF300802046BDE8F6
:100440001040FFF70ABF0000004870477C0B0020F7
:1004500001491820ABBEFEE7260002007047FEE708
:100460002DE9F04F354C2078AA2864D1607CDD2836
:1004700061D10F21A01C00F0E9F8314908706178C2
:10048000814258D1DFF8BCC0B4F90200DFF8B8A04F
:10049000ACF80000B4F90460DFF8B0E0AAF800603E
:1004A000B4F90650DFF8A8B0AEF80050B4F908303F
:1004B0002849ABF80030B4F90A20DFF89C900A8094
:1004C000B4F90C10254FA9F800105FEA004800D5D8
:1004D0003843ACF800005FEA064C00D53E43AAF86A
:1004E00000602E0400D53D43AEF800501D0400D539
:1004F0003B43ABF800301748130400D53A43028061
:100500000A0400D539431648A9F80010154A0178A5
:10051000CB0704D1A37BDB0701D00323137089072A
:1005200004D4A17B890701D5042111700E49A27B57
:100530000270E07B0870BDE8F08F000084030020AB
:10054000280000201A0000201C0000201E000020AF
:100550002000002022000020240000200000FFFFD7
:10056000260000201000002027000020014800F095
:100570008EBA0000D8030020014800F088BA0000BD
:10058000D8030020014800F082BA000000040020D7
:10059000014800F07CBA0000000400202DE9F84F6B
:1005A000DFF89CC0DDE90C95DDE90A764FF40074B4
:1005B000CCF8004000244FF0080ACCF80840CCE901
:1005C000034ADFF880C04FEA10288CF800808CF8CE
:1005D0000100080A8CF802008CF80310100A8CF84D
:1005E00004008CF80520180A8CF806008CF80730F7
:1005F0006B4662461249144800F0E9F8104840F290
:10060000FF1118306B4684600160C0E9034A0D4851
:10061000390A0830024601704770310A8170C6708D
:100620004FEA1921017180F80590290A8171044966
:10063000C5711831044800F0CAF8BDE8F88F000011
:100640002C0700205200002000040020034610B5B3
:100650000120002202E09C5C6040521C8A42FADBCE
:1006600010BD0000F0B50A78012502239AB14F7839
:1006700003261A4A1A4CFFEE000A012F0DD0B7EEDE
:10068000001A022F0ED010EE106AA6421BDB4D702E
:1006900080ED001AF0BD0D701DE010EE105A95426D
:1006A00008D210E010EE103AA342F0DA10EE103A41
:1006B000934203D34E70C0ED000AF0BD9FED090ACE
:1006C00080ED000AF0BD10EE100AA042FADA10EE3A
:1006D000100A9042F6D24B70F0BD000000409CC55D
:1006E00000409C4500000000014800F0E1BC000013
:1006F000FC040020014800F0DBBC00005C05002089
:1007000001681823CAB2103AB2FBF3F2054B6FF33B
:100710000901032A9B5CC36500D9091D8165084650
:10072000704700007652000810B5014600208B6922
:100730008A6A4FF0C07453B1B3F5005F15D072B13F
:10074000012A0CD0022A0AD0032A09D104E01AB1E6
:10075000012A06D0022A03D1C96AC90100D50120A5
:1007600010BDC96AA142FAD010BD002AF7D0012AF3
:10077000F2D0022AF3D0032AF3D010BD30B50468BA
:10078000256825F480252560046863608368402B14
:10079000036803D099600068C26030BD9A60006849
:1007A000C16030BD704772B6FEE790F82020012A84
:1007B00007D0022A05D0416A41F48021416201201C
:1007C0007047006842690A43426100207047F0B5F3
:1007D00090F820500468A468012D05D0022D03D0A4
:1007E000416A41F4802153E014F0406F01D1E500EB
:1007F0004BD5C4F30164022C03D9416A41F40001D2
:1008000046E00125A5401D608D684FF4C0739DB181
:10081000CE6835434E6845EAC605066803EB041703
:10082000F5514FF4C275076805EB04150E697E514A
:10083000097D012905D009E00E88CD6845EA4655B5
:10084000EBE701684E5946F480764E511179D2F8A3
:1008500005504FF4C67641EA0525016806EB0416FB
:100860008D511178D2F801204FF4C47541EA02216C
:10087000026805EB04155151006803EB041142585E
:1008800042F0010242500020F0BD416A41F40011E3
:1008900041620120F0BD000010B590F82020012A2F
:1008A00007D0022A05D0416A41F48021416201202B
:1008B00010BD3B48D0F8002242F00102C0F80022EF
:1008C000D0F8002222F47C52C0F80022D0F8002296
:1008D0004B6A42EA0322C0F800220A7D02F01F039D
:1008E00001229A40D0F81C329343C0F81C32CB69E5
:1008F000B3B9D0F80C329343C0F80C328C894B68F2
:1009000064F31F434C6900EBC404C4F840320C8903
:100910000B6864F31F434C6900EBC404C4F8443211
:10092000CB69012B16D1D0F80C321343C0F80C322E
:100930000C884B6864F31F434C6900EBC404C4F893
:1009400040320C89CB6864F31F434C6900EBC4044C
:10095000C4F844328B69002BD0F804320ED0134314
:10096000C0F804320B69002BD0F8143208D01343BE
:10097000C0F81432096A012904D008E09343EFE774
:100980009343F5E7D0F81C121143C0F81C12D0F8BD
:10099000001221F00101C0F80012002010BD00007B
:1009A00000640040704730B590F82040012C05D01D
:1009B000022C03D0416A41F480215DE004680029E3
:1009C00055D02469A40754D04FF4D874056804EBBB
:1009D00001142D5915F00405956005682D594ED068
:1009E000ED08556005682C5904F00204D4604FF4FA
:1009F000DA74056804EB01142D5905F00F05156133
:100A000005682D59C5F30725956105682C59240CF7
:100A100054614FF4DC72046802EB0112A4581C709C
:100A20000468A458240A5C700468A458240C9C70C0
:100A30000468A258120EDA704FF4DE72046802EBFA
:100A40000112A4581C710468A458240A5C7104683B
:100A5000A458240C9C710468A258120EDA71006824
:100A600081B1016941F020010161002030BDE468DD
:100A7000A8E7416A41F400114162012030BD6D0DCB
:100A80001560AFE7C16841F02001C160EDE72DE9D5
:100A9000F05F0546006800244669D0F80490876836
:100AA000D0F80CB0D0F810A0D0F81880F10748D0DA
:100AB000F90714D001218160B80703D5284600F05A
:100AC00096FA0CE0780702D54FF4006407E0380787
:100AD00002D54FF4805402E0284600F087FAF8056A
:100AE00016D529684FF480708860B80503D528466C
:100AF00000F07FFA0CE0780502D544F4005407E0DA
:100B0000380502D544F4804402E0284600F070FA2B
:100B1000F80316D529684FF480308860B80303D5F0
:100B2000284600F068FA0CE0780302D544F400444B
:100B300007E0380302D544F4803402E0284600F090
:100B400059FA300707D55FEACB6004D52968102031
:100B500044F40074C86070074FF0080707D55FEAD7
:100B60000B7004D52868C760284600F0A9F9B007C3
:100B700006D52868C068800702D0284600F0A2F990
:100B8000700607D55FEACA6004D52968102044F4CE
:100B900080640861B00607D55FEA0A7004D528684A
:100BA0000761284600F0F2F9F00606D528680069CA
:100BB000800702D0284600F0EAF9B00308D55FEAC2
:100BC000C96005D5296810204860284600F0E0F982
:100BD000F00307D55FEA097004D528684760284606
:100BE00000F00AFA300446D55FEA497040D5F005B6
:100BF00004D55FEAC87001D044F00104B00504D503
:100C00005FEA887001D544F00204700504D55FEAFC
:100C1000487001D544F00404300529D518F0700F50
:100C200026D008F07000402815D006DC102809D026
:100C300020280AD0302816D10AE050280ED060288B
:100C400011D10EE044F008040DE044F010040AE075
:100C500044F0200407E044F0400404E044F0800441
:100C600001E044F480742868816921F07001816199
:100C7000296804204860002C05D0686A2043686217
:100C80002846FFF78FFEBDE8F09F70B5040003D043
:100C900094F8200010B104E0012070BD204600F05F
:100CA00081F82068016841F00101016000F07CFCDE
:100CB0000546052604E000F077FC401B0A2811D801
:100CC00020684068C007F6D02068016821F0020162
:100CD000016000F069FC05460BE000F065FC401B7C
:100CE0000A2806D9606A40F40030606284F8206007
:100CF000D2E7206840688007EFD4207E0128206872
:100D000001683DD021F080010160607E01282068EB
:100D1000016838D021F040010160A07E01282068E0
:100D2000016833D021F020010160E07E01282068B5
:100D300001682ED041F010010160207F0128206859
:100D4000016829D021F008010160607F0128206836
:100D5000016824D021F004010160D4E902010843B4
:100D6000D4E90412114308436168491E084321680D
:100D7000C86100206062012084F82000002070BD5E
:100D800041F08001C0E741F04001C5E741F020019A
:100D9000CAE721F01001CFE741F00801D4E741F0A4
:100DA0000401D9E7F0B587B0044614216846FFF77F
:100DB000F2FA3E4B3E48DFF8F0E01968D4F800C084
:100DC0003B4A03250226092710300024491CF4451C
:100DD0002AD11960012907D1016841F00071016031
:100DE000006800F000700590106840F00800106086
:100DF0001068CDE9005600F00800CDE9047069469E
:100E00002C48CDE9024500F0D7FA00220121132039
:100E100000F038FC132000F027FC002201211420F0
:100E200000F030FC14203AE0DFF88CE0F44538D1D3
:100E3000D0F800C04CF0806CC0F800C0D0F800C002
:100E400001290CF0806CCDF814C0196007D101683D
:100E500041F000710160006800F0007005901068BA
:100E600040F002001060106802AB00F00200059034
:100E70006020CDE9000683E8B00069460F4800F025
:100E80009BFA002201213F2000F0FCFB3F2000F0F4
:100E9000EBFB00220121402000F0F4FB402000F099
:100EA000E3FB07B0F0BD0000006400402C00002010
:100EB00030380240000C024000680040000402404C
:100EC0007047000030B505462C482D4C8BB085424C
:100ED00026D101AB03AA00212846FFF764FD039841
:100EE000A0F20120072817D8C0B22649207001EBD4
:100EF000001001880181BDF8041049BA0180BDF8D5
:100F0000061049BA4180BDF8081049BA81809DF8A1
:100F10000A10817102F09EFA02211848FFF745FC81
:100F20001948854227D102AB04AA00212846FFF7C1
:100F30003AFD0498A0F20120072818D81149C0B240
:100F40006070803101EB001001880181BDF808104C
:100F500049BA0180BDF80A1049BA4180BDF80C10A9
:100F600049BA81809DF80E10817102F073FA022156
:100F70000548FFF71AFC0BB030BD0000D803002075
:100F800040000020BC05002000040020704770478E
:100F90007047000070B5044690F82000012804D086
:100FA000606A40F40020606218E0022084F82000AB
:100FB0002068016821F00101016000F0F5FA0546A2
:100FC0000EE000BF00F0F0FA401B0A2808D9606A62
:100FD00040F400306062052084F82000012070BDDC
:100FE00020684068C007EDD1606270BD70477047EF
:100FF000704770477047704770472DE9F0410446CD
:10100000876D00F0D1FA064694F8350000250228D5
:1010100006D08020606584F834500120BDE8F0815E
:101020002068016821F0160101602068416921F003
:1010300080014161206C08B9A06C20B12068016872
:1010400021F0080101602068016821F001010160C0
:101050000CE000F0A9FA801B052807D92020606564
:10106000032084F8350084F83450D7E720680068FE
:10107000C007EED194F85C103F208840B860012092
:1010800084F8350084F834500020C7E790F8351014
:10109000022903D08021416501207047052180F895
:1010A00035100068016821F00101016000207047DF
:1010B0002DE9F84304464FF00009CDF8009063484D
:1010C0004FF41651A56D0068B0FBF1F72E6894F847
:1010D0005C10082000FA01F131420FD021680A6843
:1010E00052070BD50A6822F004020A6094F85C10DB
:1010F0008840A860606D40F00100606594F85C1065
:101100004FF0010808FA01F0304208D0216849691F
:10111000090604D5A860606D40F00200606594F88F
:101120005C1004208840304208D021680968890793
:1011300004D5A860606D40F00400606594F85C1010
:1011400010208840304218D021680968090714D55A
:10115000A86020680168490304D50068000308D529
:10116000A16C07E00168C90503D4016821F00801FA
:101170000160216C09B12046884794F85C1020205A
:101180008840304231D021680968C9062DD5A86051
:1011900094F8350005282068016806D0490347D532
:1011A000006800031DD4616C1CE021F01601016091
:1011B0002068416921F080014161206C08B9A06C70
:1011C00020B12068016821F00801016094F85C10EA
:1011D0003F208840A86084F8358084F83490216DE1
:1011E0001FE0E16B09B120468847606D00282BD0D5
:1011F000606DC00714D0052084F8350020680168B0
:1012000021F0010101600098401C0090B84203D811
:1012100020680068C007F6D184F8358084F83490DF
:10122000E16C002910D001B02046BDE8F04308472A
:101230000168C905D5D4016821F01001016084F866
:10124000358084F83490CCE7BDE8F8833C0000207A
:101250002DE9F041044600F0A7F906465CB10220F2
:1012600084F83500002584F834502068016821F0A6
:10127000010101600DE00120BDE8F08100F094F96A
:10128000801B052805D920206065032084F83500DF
:10129000F2E720680068C007F0D122681168204892
:1012A0000140D4E901031843D4E90336334318431A
:1012B00063691843A3691843E3691843236A184311
:1012C0000843616A042903D1D4E90B131943084385
:1012D000106020684069666A20F0070130460E43BE
:1012E000012704280CD1A06A0643E06A40B12046D9
:1012F000FFF71AFA20B14020606584F83570BAE72C
:10130000206846612046FFF7FBF994F85C203F21F6
:1013100091408160656584F835700020ACE700007D
:101320003F8010F02DE9F0410446866D90F83400BE
:10133000002501280DD0012084F8340094F8357080
:101340000020012F07D084F8340002252846BDE88C
:10135000F0810220FBE7022784F8357060652046A3
:10136000FFF70CFA94F85C103F208840B0602068CA
:10137000016841F016010160206C20B1206801680D
:1013800041F0080101602068016841F0010101603D
:10139000DCE7000070B5044600F006F90546601C65
:1013A00002D004480078044400F0FEF8401BA0423C
:1013B000FAD370BD300000202DE9F84FDFF8BCA152
:1013C0000022012503264FF00F090AF1040BAAF1B0
:1013D000040E00BF0B6805FA02F42340A34270D14B
:1013E0000F7907F00307012F01D0022F16D187686C
:1013F0004FEA420806FA08FC27EA0C07D1F80CC0AD
:101400000CFA08FC4CEA070CC0F808C04768A74370
:101410000C79C4F3001494403C4344600C79E443D9
:10142000A4070AD0C4684FEA420C06FA0CF7BC4382
:101430008F6807FA0CF72743C7600C7904F00304A0
:10144000022C12D1D40800EB840CDCF820405707A2
:10145000FF0E09FA07F824EA0804D1F8108008FA08
:1014600007F848EA0408CCF8208004684FEA420CE8
:1014700006FA0CF7BC430F7907F0030707FA0CF7DD
:10148000274307604C6814F4403F70D03C4C2768F9
:1014900047F480472760246822F0030704F480445F
:1014A0000094384C07EB040CDCF8084897074FEA27
:1014B000177809FA08F7BC43334FB84202D1002726
:1014C00024E054E0314FB84201D101271EE0304FF3
:1014D000B84201D1022719E02E4FB84201D10327AB
:1014E00014E02D4FB84201D104270FE02B4FB84232
:1014F00001D105270AE02A4FB84201D1062705E0AD
:10150000284FB84201D1072700E0082707FA08F75B
:101510002743CCF80878DAF800405746D1F804C0E1
:101520009C435FEACC2C00D51C433C60DBF80040B8
:101530005F46D1F804C09C435FEA8C2C00D51C4365
:101540003C60DEF800407746D1F804C09C435FEA77
:101550008C3C00D51C433C60084F083F3C68D1F8E8
:1015600004C09C435FEACC3C00D51C433C60521C49
:10157000102AFFF42FAFBDE8F88F0000083C0140AF
:1015800044380240003001400000024000040240A4
:1015900000080240000C024000100240001402400B
:1015A00000180240001C024001488068704700009B
:1015B0003000002002488168027811448160704741
:1015C000300000200B4810B5016841F40071016043
:1015D000016841F480610160016841F4807101603B
:1015E000032000F06FF80F2000F006F800F024F858
:1015F000002010BD003C024070B50D4D04464FF474
:101600007A712878B1FBF0F00A490968B1FBF0F073
:1016100000F00CFB48B9102C07D200222146501EC6
:1016200000F030F800206C6070BD012070BD00003B
:10163000300000203C0000200A4808B5016841F451
:1016400080410160006800F4804000900548001F60
:10165000016841F080510160006800F08050009006
:1016600008BD000044380240002809DB00F01F02DA
:10167000012191404009800000F1E020C0F80011F4
:1016800070470000F0B40E4B1B680C46C3F30223F6
:10169000C3F10705042D00D90425191D072901D21E
:1016A000002300E0DB1E012606FA05F1491E214059
:1016B00099409E40761E16403143F0BC01F08FBE2B
:1016C0000CED00E0064900F0070208684FF6FF0342
:1016D000184040EA0220034A1043086070470000A7
:1016E0000CED00E00000FA052DE9F0470E4605007C
:1016F00065D0DFF81481D8F80000F7B200F00700D9
:10170000B04207D288F80070D8F8000000F0070057
:10171000B04254D128683D4C810712D5400703D50B
:10172000206840F4E05020602878000703D5206846
:1017300040F4604020602068A96820F0F000084371
:1017400020602878C0072DD0304968680839012802
:1017500012D0022813D0032811D009688907002964
:101760002DDA216821F0030101432160FFF71CFFFE
:10177000814641F2883A0EE009688903EFE709687B
:101780008901ECE7FFF710FFA0EB0901514502D9F1
:101790000320BDE8F0872068696800F00C00B0EB1A
:1017A000810FEFD1D8F80010404601F00701B14297
:1017B00007D90770006800F00700B04201D001208F
:1017C000E7E72878400705D52068E96820F4E0506D
:1017D000084320602878000706D52068296920F48E
:1017E000604040EAC100206000F038F82168084AF3
:1017F000C1F30311515CC8400649086006480068FF
:10180000FFF7FAFE0020C4E7003C0240083802401F
:101810007E5200083C0000203400002004480549A6
:1018200000680968044AC1F38221515CC8407047CE
:101830003C000020083802408E5200080448054948
:1018400000680968044AC1F34231515CC8407047DE
:101850003C000020083802408E520008154810B5A0
:10186000006810F00C02144813D01449042A0FD059
:10187000082A0ED10F4C241F2268236802F03F0271
:101880005B0207D52068C0F38810A0FB010106E0C9
:10189000084610BD2168C1F38811A1FB0001002397
:1018A000FEF702FD2168C1F30141491C4900B0FB6C
:1018B000F1F010BD083802400024F40040787D01AA
:1018C0002DE9F84F04006ED02078DFF84C93C00764
:1018D000A9F104054AD009F104000168C1F38101AE
:1018E000012908D00068C0F3810002280AD1D9F884
:1018F0000000400206D52868800337D560680028BC
:10190000E1D033E06068B0F5803F10D0B0F5A02F93
:10191000286810D020F480302860286820F48020C7
:1019200028606068A8B1FFF73FFE06460DE0286812
:1019300040F48030F4E740F480202860F7E700BFEF
:10194000FFF732FE801B642873D828688003F7D520
:101950000CE0FFF729FE064605E000BFFFF724FE76
:10196000801B6428F0D828688003F7D42078DFF83B
:10197000AC8280074FF0000A3ED5A748001D0168E1
:1019800011F00C0F08D00068C0F3810002280BD1C1
:10199000D9F80000400207D42868800716D5E0680F
:1019A000012800D112E033E1E068B8B10120C8F8A5
:1019B0000000FFF7F9FD064605E000BFFFF7F4FD64
:1019C000801B0228C0D828688007F7D528682169BD
:1019D00020F0F80040EAC10028600DE0C8F800A03F
:1019E000FFF7E2FD064604E0FFF7DEFD801B02285C
:1019F0001FD828688007F7D42078000722D5864FA3
:101A000087486169703771B101210160FFF7CCFD32
:101A1000064604E0FFF7C8FD801B022809D8386895
:101A20008007F7D50EE0C0F800A0FFF7BDFD064621
:101A300005E082E0FFF7B8FD801B02287DD83868FA
:101A40008007F7D42078400768D5DFF8CCB10027AD
:101A50000BF13C0BDBF80000C0000BD4DBF80010EE
:101A600041F08051CBF80010DBF80000012700F0B6
:101A7000805000906B4E3068C00510D4306840F440
:101A800080703060FFF790FD009005E0FFF78CFD5F
:101A90000099401A022850D83068C005F6D55E4E2D
:101AA000A0686C3601280FD00528306810D020F0CF
:101AB00001003060306820F004003060A068B8B1E8
:101AC000FFF772FD00900FE0306840F00100F4E78E
:101AD00040F004003060F7E7FFF766FD0099411A17
:101AE00041F28830814266D830688007F4D50EE034
:101AF000FFF75AFD009007E0FFF756FD0099411AE5
:101B000041F28830814256D830688007F4D42FB132
:101B1000DBF8001021F08051CBF80010A069C8B3A9
:101B20003D49091D0968C1F3810102294AD00228F3
:101B3000504607D0C8F8600000E03CE0FFF734FDF5
:101B400004463BE04746C8F86000FFF72DFD064617
:101B500005E000BFFFF728FD801B02282BD828686E
:101B60008001F7D4D4E907010843A16A2E4A490845
:101B700002EB0141626A41EA8211084394F82C1099
:101B800040EA0161C9F8001001203866FFF70CFD3A
:101B9000044606E03EE000BFFFF706FD001B0228FA
:101BA00009D828688001F7D534E000BFFFF7FCFCB6
:101BB000001B022802D90320BDE8F88F28688001A5
:101BC000F4D427E00128F7D0D9F80000E26900F446
:101BD000800191421CD1226A00F03F01914217D14D
:101BE00047F6C071626A0140B1EB821F10D1A26A50
:101BF0004FF0FF3300F4403103EB5202B1EB024FE0
:101C000006D194F82C1000F07060B0EB016F01D099
:101C10000120D1E70020CFE704380240000047420E
:101C2000800E4742007000400000FFFF10B5401ECC
:101C3000B0F1807F01D3012010BD4FF0E02460613E
:101C40000F21601701F0CBFB0020A061072020616D
:101C5000002010BD7047704770B590F83C20012AF5
:101C600032D0012480F83C40022280F83D200368F5
:101C70005A689D6822F070060A6832435A60134B16
:101C800002689A4214D0B2F1804F11D0104B9A42A0
:101C90000ED0104B9A420BD00F4B9A4208D00F4BEC
:101CA0009A4205D00E4B9A4202D00E4B9A4204D172
:101CB000496825F080031943916080F83D40002178
:101CC00080F83C10084670BD022070BD0000014045
:101CD0000004004000080040000C004000040140E7
:101CE000004001400018004010B5040003D094F8F3
:101CF0003D0010B107E0012010BD002084F83C0039
:101D0000204600F01FF8022084F83D00211D2068C5
:101D100001F04AF8012084F8460084F83E0084F877
:101D20003F0084F8400084F8410084F8420084F8C1
:101D3000430084F8440084F8450084F83D00002006
:101D400010BD000008B500680B49884212D10B484D
:101D5000016841F4003101600068002200F40030A5
:101D6000009011461920FFF78DFCBDE808401920AE
:101D7000FFF77ABC08BD000000440140443802402F
:101D800090F83D10012901D001207047022180F810
:101D90003D100168CA6842F00102CA60006811493A
:101DA000884214D0B0F1804F11D00F4988420ED034
:101DB0000E4988420BD00E49884208D00D4988420E
:101DC00005D00D49884202D00C49884204D181686F
:101DD00001F00701062903D0016841F0010101600B
:101DE000002070470000014000040040000800404F
:101DF000000C004000040140004001400018004079
:101E0000704770B50446006801694FF00005C9438A
:101E1000890715D4C168C943890711D4E91E016136
:101E200001202077206880698007204602D0FFF7D4
:101E3000E7FF04E000F0C0F8204600F065F92577E0
:101E400020680169C943490717D4C168C9434907D4
:101E500013D46FF0040101610220207720688069AB
:101E600010F4407F204602D0FFF7CAFF04E000F0E4
:101E7000A3F8204600F048F9257720680169C94396
:101E8000090716D4C168C943090712D46FF00801C5
:101E90000161042020772068C0698007204602D0B5
:101EA000FFF7AEFF04E000F087F8204600F02CF9C1
:101EB000257720680169C943C90617D4C168C94399
:101EC000C90613D46FF01001016108202077206843
:101ED000C06910F4407F204602D0FFF791FF04E074
:101EE00000F06AF8204600F00FF9257720680169B4
:101EF000C943C90708D1C168C943C90704D1891EAC
:101F00000161204600F066F920680169C9430906AD
:101F100009D4C168C943090605D46FF08001016185
:101F20002046FFF797FE20680169C943490609D496
:101F3000C168C943490605D46FF0400101612046DC
:101F400000F0FCF920680169C94389060BD4C16817
:101F5000C943890607D46FF0200101612046BDE81E
:101F60007040FFF778BE70BD10B586B004461421EE
:101F70006846FEF710FA0D492068884213D10C48D4
:101F80000021026842F002020260006800F00200D4
:101F9000059002200090CDE90101CDE903106946CA
:101FA0000448FFF709FA06B010BD00000004004025
:101FB0003038024000040240704770B5044690F883
:101FC0003C0000260D4601280FD0012084F83C007B
:101FD0006AB1042A1DD0082A2FD00C2A3FD001262E
:101FE000002084F83C00304670BD022070BD20689F
:101FF00000F04CFF2068816941F008018161206890
:10200000816921F004018161206881692A69114395
:1020100011E0206800F06AFF2068816941F40061E6
:1020200081612068816921F4806181612068816912
:102030002A6941EA02218161D2E7206800F08CFF21
:102040002068C16941F00801C1612068C16921F0BF
:102050000401C1612068C1692A69114311E0206847
:1020600000F0AEFF2068C16941F40061C1612068E1
:10207000C16921F48061C1612068C1692A6941EAAE
:102080000221C161ACE710B5040003D094F83D0013
:1020900010B107E0012010BD002084F83C0020466C
:1020A00000F01EF8022084F83D00211D206800F099
:1020B0007BFE012084F8460084F83E0084F83F004F
:1020C00084F8400084F8410084F8420084F843001A
:1020D00084F8440084F8450084F83D00002010BDD9
:1020E00008B500680649884208D10648016841F0F1
:1020F00002010160006800F00200009008BD0000CD
:1021000000040040403802407047000010B504460B
:10211000022249B104290ED0082913D094F84100B5
:10212000012816D0012010BD94F83E000128F9D1F5
:1021300084F83E200FE094F83F000128F2D184F8A3
:102140003F2008E094F840000128EBD184F84020BB
:1021500001E084F841200122206800F089FE164940
:102160002068164A884201D0904203D1436C43F460
:10217000004343642068884213D0B0F1804F10D0F0
:102180000F4988420DD00F4988420AD00E49884233
:1021900007D0904205D00D49884202D00C498842B0
:1021A00004D1816801F00701062903D0016841F0DC
:1021B00001010160002010BD000001400004014049
:1021C0000004004000080040000C004000400140B6
:1021D000001800402DE9FF414E4988427ED102F0AF
:1021E000D5FF4D4B93ED020ADFED4C0A20EE200A9D
:1021F000DFED4B0A20EE200ADFED4A1A03F120053D
:10220000494880EE211AB0EE000A484E484A03F1D0
:10221000400485ED021A80ED440A80ED431AB1684E
:1022200091ED031AB8EEC11A80ED471AD2ED221AC9
:10223000BDEEC11AFDEEE11AC4ED021AB1F9027049
:1022400001EE907AF8EEE11AC0ED421A0F8801EE25
:10225000907AF8EE611AC0ED451AB1F9087001EEF6
:10226000907AF8EEE11AC0ED461A81ED031A93ED6B
:10227000031ADFED301A21EE211ADFED2F1A61EE7D
:10228000200A20EE801AC1EE210AC5ED030A80ED76
:102290004A0AC0ED490AF16891ED030AB8EEC00A96
:1022A00080ED4D0AD2ED250AFDEEE00AC4ED030AE9
:1022B000B1F9022000EE902AF8EEE00AC0ED480ADB
:1022C0000A8800EE902AF8EE600AC0ED4B0AB1F9D8
:1022D000082000EE902AF8EEE00A00E018E0BDEEDB
:1022E000C00AC0ED4C0A81ED030A01F09DF90020FF
:1022F0000090019002900390A089002103B22089F0
:1023000002B20846FEF74AF9BDE8FF4101F04EB9B6
:10231000BDE8FF81700400202403002000706045A8
:1023200000F8FF45007C83473C090020DC060020C4
:10233000BC0A0020000010420000B4437047704700
:1023400010B500680549884207D1012204490548B3
:1023500000F0E6F904490020087010BD0048004074
:1023600084030020B804002018000020F8B501689C
:1023700004460868CA684B6910F00F0F4FF000055B
:1023800059D003F0010602F49077374365D0C107B6
:1023900005D0D10503D5216C41F00101216441072D
:1023A00005D5D90703D0216C41F0020121648107D2
:1023B00005D5D90703D0216C41F004012164010740
:1023C00007D502F02001314303D0216C41F0080110
:1023D0002164216C00293AD0800604D5900602D5EC
:1023E000204600F0C5FE20684069216CC0F38010D3
:1023F000090700D460B3204600F085FE20684069DC
:10240000400621D52068143050E8001F21F040011B
:1024100040E80012002AF5D1A06BA8B16C49016513
:10242000A06BFEF733FE002811D0A06B016D01B048
:10243000BDE8F040084783060FD593060DD520462A
:10244000BDE8F84000F094BE2046FFF779FFF8BDE4
:102450002046FFF775FF2564F8BD266B2023012E6B
:1024600079D1C60677D5D60675D508684868009034
:102470004869400640D5A16B086840680004000C1C
:10248000EAD0A28D8242E7D9E085C869B0F5807FA5
:102490002DD020680C3050E8001F21F4807140E8F6
:1024A0000012002AF5D12068143050E8001F21F0F6
:1024B000010140E80012002AF5D12068143050E8EC
:1024C000001F21F0400140E80012002AF5D184F8F5
:1024D0003E30256320680C3050E8001F21F01001C9
:1024E00040E80012002AF5D1A06BFEF786FDA08D12
:1024F000E18D401A81B229E0A08DE18D401A81B2B0
:10250000E08D0028A8D00029A6D020680C3050E823
:10251000002F22F4907240E80026002EF5D12068AA
:10252000143050E8002F22F0010240E80026002E6F
:10253000F5D184F83E30256320680C3050E8002F38
:1025400022F0100240E80023002BF5D12046FFF7CF
:10255000F6FEF8BDFFE705062BD5150629D594F83C
:102560003D002128F5D1A068B0F5805F01D1206938
:10257000B0B1206A411C2162216800784860E08C7B
:10258000401E0004000CE084E3D12068C16821F003
:102590008001C1602068C16841F04001C160D8E796
:1025A000206A0088C0F308004860206A801C20620E
:1025B000E5E74006CDD55006CBD5CA68204622F0C7
:1025C0004002CA6084F83D3000F0F5F8C1E7000031
:1025D0001130000870B5040004D094F83D000025C7
:1025E00010B106E0012070BD84F83C50204600F098
:1025F00023F8242084F83D002068C16821F40051AC
:10260000C160204600F014FE2068016921F4904169
:1026100001612068416921F02A0141612068C16897
:1026200041F40051C1602564202084F83D0084F805
:102630003E00002070BD00002DE9F04186B0064646
:1026400014216846FDF7A7FE30493068884259D109
:102650002F480024016841F480210160006800F4E3
:10266000802005902A481038016841F0020101607D
:102670000068694600F0020005904FF44060009049
:102680000220CDE901040320039007200490214893
:10269000FEF792FE214D20484FF000672860C5E903
:1026A00001744FF48068C5E903486C61AC61EC616A
:1026B0002C6228466C62FEF7CBFD08B1FEF773F87A
:1026C000B563AE63154D144860353030E5E8020758
:1026D0004020A5E81101114845F814496030AC616B
:1026E000EC612C626C62FEF7B3FD08B1FEF75BF89B
:1026F0007563002211462720AE63FEF7C3FF272033
:10270000FEF7B2FF06B0BDE8F081000000480040CF
:10271000403802400004024028600240FC040020CF
:1027200090F83E30202B0ED159B152B190F83C3088
:10273000012B08D0012380F83C300023036300F014
:10274000FDBD0120704702207047000070B5006891
:10275000144988421CD1144C144D2078AA2810D159
:10276000287858B9FDF77CFE1122611C1048FFF74C
:10277000D7FF012028702078AA2802D128780128C4
:1027800007D0012208490A48FFF7CAFF0020287035
:1027900070BDFDF765FEBDE8704012220249044895
:1027A000FFF7BEBF0048004084030020180000204F
:1027B000B804002070477047FEE700002DE9F84F8D
:1027C000BF48DFF8F4E2DFF800A30178BD489EF8C7
:1027D000008001250226B94F90F800C09AF8033016
:1027E0009AF802204FF0000B50464FF47A79B8F176
:1027F000000F1ED09FEDB50ADFEDB50A9FEDB51AAB
:10280000B548B74CB8F1010F00680090B3480078A4
:1028100069D0B8F1020F70D0B8F1030F28D1BCF124
:10282000000F6BD0BCF1010F69D0BCF1020F67D172
:10283000F7E00446022B09D0CBB319D1002A17D1F7
:102840004846FEF7A7FD9FEDA70AE0E0022AF5D172
:102850009B4F02290ED04C464846FEF79BFD9E49F1
:1028600044F28850096808642046FEF793FD3E70E4
:10287000BDE8F88F9C4903200A78032A18D0042A5F
:10288000F6D1904ABCF1000FF2D08EF80000ACF106
:10289000010C924882F800C00422027081F800B056
:1028A00087F800B084F803B084F802B0E0E70CE0E9
:1028B000844ABCF1030FDBD28EF800500CF1010CFE
:1028C00082F800C0854A1070E8E74E464846FEF799
:1028D00061FD9FED860A304687ED030AE570BDE88D
:1028E000F84FFEF757BDBCF1010F0AD0BCF1020F43
:1028F0000AD0BCF1030F0CD109E056E08BE08DE06B
:1029000091E084ED000A04E0C4ED000A01E084EDEA
:10291000001AD046022B02D15346022A04D0DFF817
:10292000BCA1032811D017E0654C022905D003286B
:1029300001D004289CD148468FE0032803D0002111
:102940008EF800108FE00221FAE7009944F670102B
:1029500008644846FEF71EFD98F8020088B1022878
:1029600086D198F80300002882D19AF80000032845
:1029700011D004289AD14846FEF70CFD88F8036070
:1029800076E74846FEF706FD9FED590A87ED020AF5
:1029900088F802506CE74846FEF7FCFC94ED000A0C
:1029A00087ED030A88F8035062E75446022B01D1F1
:1029B000022A0BD032B3022AE2D1002BE0D1032845
:1029C000DED14846FEF7E6FCE67051E73C4D0229B1
:1029D0000FD00328D4D14C464846FEF7DBFC3E49D5
:1029E00044F28850096808642046FEF7D3FC2E7034
:1029F0003EE78EF800B084F803B08AF802B085F89C
:102A000000B035E74846FEF7C5FC9FED3A0A87ED72
:102A1000020AA5702CE784ED000A04E0C4ED000A68
:102A200001E084ED001A022B02D15346022A02D0A3
:102A300004281FD025E0224C022912D004289FD15F
:102A40004D464846FEF7A6FC2846FEF7A3FC224961
:102A500044F67010096808642846FEF79BFC26704F
:102A600006E78EF8005083F803B08AF802B084F8C5
:102A700000B0FDE6009944F2885008644846FEF72D
:102A800089FC9AF80200564668B102288CD1F07889
:102A9000002889D14846FEF77DFC94ED000A87EDB9
:102AA000030AF570E4E64846FEF774FC9FED120A4F
:102AB00087ED020AB570DBE6000000202403002049
:102AC0000A0000200B0000200200002066E62043E0
:102AD000B85E0843F6A8DF42280400200100002069
:102AE0000C00002000004842100000200AD7EF41EF
:102AF00000004844000016440000C8430F4810B5C9
:102B00000D4901600321416000214FF400228160E2
:102B1000C0E903124FF4401242610176417681769A
:102B2000C17601774177FEF7B0F8002803D0BDE801
:102B30001040FDF738BE10BD00640040D8030020EF
:102B40000F4810B50D4901600321416000214FF489
:102B500000228160C0E903124FF440124261017605
:102B600041768176C17601774177FEF78EF80028AD
:102B700003D0BDE81040FDF716BE10BD0068004050
:102B8000000400200D4808B5016841F400110160FF
:102B90000068002200F40010009011460C20FEF79F
:102BA00071FD0C20FEF760FD002211460E20FEF79D
:102BB00069FDBDE808400E20FEF756BD30380240E2
:102BC000114808B5016841F080010160016801F019
:102BD00080010091016841F002010160016801F08B
:102BE00002010091016841F001010160016801F0FA
:102BF00001010091016841F008010160006800F0E6
:102C00000800009008BD0000303802400B4810B5A5
:102C100009490160A721416000214FF47A72C0E99F
:102C2000021201618161FFF75FF8002803D0BDE85F
:102C30001040FDF7B8BD10BD0044014070040020F5
:102C400010B58AB0002407941C2168460894FDF74B
:102C5000A2FB1748154901605321C0E9011444F64D
:102C60001F61C0E903148461FFF70DFA08B1FDF795
:102C70009AFD079407A90E480894FEF7EDFF08B1E6
:102C8000FDF791FD6020009043F68C40CDE90104F2
:102C90000C22694606480494FFF78FF908B1FDF746
:102CA00082FD0348FFF760F90AB010BD0004004040
:102CB000280400200C4810B50A4901604FF4E131A6
:102CC0004160002181600C22C160C0E90412816171
:102CD000C161FFF77FFC002803D0BDE81040FDF77D
:102CE00062BD10BD00480040B8040020FEE7FEE7CA
:102CF00070477047FEF75EBC30B593B03021684630
:102D0000FDF749FB14210CA8FDF745FB1D480025E4
:102D1000016841F080510160006800F0805011901E
:102D20001948016841F4804101600068022400F400
:102D3000804011900120039010200490009406948C
:102D40000820CDE90750A820CDE9090404200B9004
:102D50006846FEF7B5FD08B172B6FEE70CA90F2074
:102D600081E831004FF4A0500F904FF48050109044
:102D700005210CA8FEF7B8FC002801D072B6FEE7CA
:102D800013B030BD40380240007000400248016876
:102D900041F470010160704788ED00E00148FFF7E1
:102DA00030B8000070040020F0B50268254C264DB4
:102DB000264E274F274B4FF0804CA04209D060454C
:102DC00007D0A84205D0B04203D0B84201D0984203
:102DD00004D122F0700E4A6842EA0E02A0421BD0D3
:102DE000604519D0A84217D0B04215D0B84213D0D0
:102DF000984211D0184DA8420ED0184DA8420BD0C1
:102E0000174DA84208D0174DA84205D0164DA8422C
:102E100002D0164DA84203D122F44075CA682A4355
:102E20004D6922F080022A4302608A68C2620A6801
:102E30008262A04201D0984201D109690163012157
:102E40004161F0BD00000140000400400008004066
:102E5000000C0040000401400040014000440140DB
:102E60000048014000180040001C004000200040C5
:102E700010B501F01F030121046A99408C430462DC
:102E8000016A9A401143016210BD0000F0B5026A68
:102E900022F001020262036A42688469124E24F041
:102EA00073050C682C4323F002058B682B430D4DF2
:102EB000A84201D0B04205D123F00807CB683B43BC
:102EC00023F00403A84201D0B04205D14D6922F499
:102ED000407215438A692A434260846149684163AC
:102EE0000362F0BD0000014000040140F0B5026A39
:102EF00022F010020262026A436884690D6824F4B9
:102F0000E64444EA05248D6822F0200242EA0512D4
:102F10000F4D104EA84201D0B04206D1CF6822F02A
:102F2000800242EA071222F04002A84201D0B042D9
:102F300007D14D6923F4406343EA85038D6943EA71
:102F4000850343608461496881630262F0BD0000CB
:102F50000000014000040140F0B5026A22F48072D2
:102F60000262026A4368C46922F4007224F07305A5
:102F70000C68124E2C438D6842EA05220E4DA84281
:102F800001D0B04206D1CF6822F4006242EA0722A3
:102F900022F48062A84201D0B04207D14D6923F4E7
:102FA000405343EA05138D6943EA05134360C46146
:102FB0004968C1630262F0BD0000014000040140A5
:102FC00030B5026A22F480520262046A4268C36920
:102FD0000D6823F4E64343EA05238D6824F4005486
:102FE00044EA0534084DA84202D0084DA84204D155
:102FF0004D6922F4804242EA85124260C361496809
:103000000164046230BD0000000001400004014082
:1030100010B5806B0021C185C184FFF791F910BD07
:1030200070B5846B2068406994F83D10C0F3C010FF
:103030000025212904D118B1E584204600F08AF842
:103040002068406994F83E10C0F38010222904D112
:1030500018B1E585204600F056F8206C40F01000CD
:1030600020642046FFF76CF970BD10B50146806BF7
:1030700009680968C9052FD40021C18501680C3190
:1030800051E8002F22F4807241E80023002BF5D193
:103090000168143151E8002F22F0010241E80023B9
:1030A000002BF5D10168143151E8002F22F04002C5
:1030B00041E80023002BF5D1202180F83E10016B60
:1030C000012909D101680C3151E8002F22F01002CA
:1030D00041E80023002BF5D1016B012902D0FFF755
:1030E00035FB10BD818DFFF72AF910BD10B5806B3F
:1030F000016B012902D0FFF75DFB10BD818D4908EE
:10310000FFF71DF910BD01680C3151E8002F22F4C2
:10311000907241E80023002BF5D10168143151E889
:10312000002F22F0010241E80023002BF5D1016BB2
:10313000012909D101680C3151E8002F22F0100259
:1031400041E80023002BF5D1202180F83E1000211A
:103150000163704701680C3151E8002F22F0C00272
:1031600041E80023002BF5D1202180F83D10704765
:1031700008B590F83E10222901D0022008BD8268CF
:103180004FF480539A4201D1016921B1816A9A4278
:103190001BD04AB10AE00268816A5268C2F3080291
:1031A0000A80816A891C08E0026972B1026852686B
:1031B00002F07F020A70816A491C8162C18D491E3A
:1031C0000904090CC18503D019E002685268F1E7CF
:1031D0000168CA6822F02002CA600168CA6822F445
:1031E0008072CA6001684A6922F001024A612021A6
:1031F00080F83E10016B012903D0FFF7A7FA0020E9
:1032000008BD0021016301680C3151E8002F22F054
:10321000100241E80023002BF5D101680A68D206AC
:1032200002D50A6849680091818DFFF788F8E6E7C2
:1032300070B5044600680169E26821F44051114309
:1032400001612169A068E26908436169114308438B
:103250002168CA6849F20C639A430243CA60206835
:103260004169A26921F440711143416131492068EB
:10327000884202D03049884202D1FEF7DFFA01E0ED
:10328000FEF7CCFAE2690023192164253226B2F553
:10329000004F626828D0A0FB0101930F9200FDF758
:1032A00003F80146B0FBF5F06FF01802504301EB54
:1032B000800006EB0010B0FBF5F000F0F002B1FB6F
:1032C000F5F002EB0012B1FBF5F06FF01803584374
:1032D00001EB800006EB0010B0FBF5F000F00F00F2
:1032E00021681044886070BDA0FB010192185B4109
:1032F000FCF7DAFF0146B0FBF5F00201B1FBF5F097
:103300006FF01803584301EB800006EBC000B0FBE0
:10331000F5F000F0F80002EB4002B1FBF5F0584385
:1033200001EB800006EBC000B0FBF5F000F00700F9
:10333000D6E70000001001400014014038B581625A
:1033400082850025134604460564222084F83E0049
:10335000A26B1C48D063A26B1B481064A26B1B4875
:10336000D064A06B0A4605652168A06B091DFDF7B6
:10337000D9FF206801684068009084F83C502069BB
:1033800048B120680C3050E8001F41F4807140E8DB
:103390000012002AF5D12068143050E8001F41F0D7
:1033A000010140E80012002AF5D12068143050E8ED
:1033B000001F41F0400140E80012002AF5D1002032
:1033C00038BD00006B300008ED30000821300008E7
:1033D0000148FEF7CBBF0000B8040020FEE7090754
:1033E000090E002804DB00F1E02080F8001470478B
:1033F00000F00F0000F1E02080F8141D704700007D
:1034000000B58BB000200121CDE9060108910090A4
:103410000190029003900590049069460B48FDF7D7
:103420003BFA0A48FDF7B6FD02210848FDF7BDF951
:1034300069460748FDF730FA0548FDF7ABFD022164
:103440000348FDF7B2F90BB000BD0000D80300201F
:10345000000400200188B0F90820891A41F288325E
:10346000914202DDC168491E05E041F28832D14235
:1034700002DAC168491CC16070470000FEF7A2F87B
:10348000FFF73AFCFFF79CFBFFF77CFBFFF7BEFB67
:10349000FFF710FCFFF7D4FBFFF730FBFFF750FB03
:1034A00000F09AF82E48FEF76BFC0C212D48FEF731
:1034B0002DFEFFF7A5FF2C48FDF76CFD02212A48E1
:1034C000FDF773F9012229492948FFF729F92A480C
:1034D0009FED280ADFED2D0A80ED5B0A9FED270A9C
:1034E000204980ED4B0A9FED260A80ED3B0A9FEDB7
:1034F000250A80ED2B0A9FED240A80ED1B0AC0ED02
:103500000B0ADFED230AC0ED5A0ADFED220AC0EDF7
:103510004A0ADFED210AC0ED3A0ADFED200AC0EDCC
:103520002A0A80ED1A0A9FED1E0A80ED0A0A9FED15
:103530001D0A80ED6A0A80ED6B0A9FED1B0A80ED83
:10354000AA0A80EDAB0A096844F2885008644FF477
:10355000FA7000BFFDF71EFFFFF730F96420F9E7AE
:1035600070040020280400200004002084030020B0
:10357000B8040020F354F73E6400002066A1853EA5
:103580003B704E3CCAFDFE3ED0A0FC3B0E69543D54
:10359000CC7F043F1285CE3E0AD7233C6F9E343F3A
:1035A0000AD7233D00004844CDCCCC3E094901F167
:1035B000A000016010314160103181601031C160A4
:1035C0001031016110314161103181611031C161EF
:1035D000704700003C06002011489FED120A80ED64
:1035E000100A80ED170A80ED0F0A80ED0E0A80EDBB
:1035F0000D0A80ED0C0A80ED0B0A80ED0A0A80EDC1
:10360000090A80ED080A80ED160A80ED150A80EDA2
:10361000140A80ED130A80ED120A80ED110A70473A
:103620005C070020000000002DE9F047DFF8088467
:103630002DED0A8B404698ED020A90ED00BABDEEE2
:10364000C00A10EE101A90ED010ADFEDFCAADFEDC2
:10365000FC9A9FEDFC8A9FEDFCAA4FF08D46DFEDB2
:10366000FB8AFB4F9FEDFB9ADFF8EC93A0F5F0741B
:1036700000F5C075012902D0022932D132E0D4ED23
:103680004C1A30EE4B0A99ED7F1AF0EE610AD9ED33
:103690009F2A51EE000A94ED4D1A20EE8A2AF0EE90
:1036A000410A42EE800A70EE820A10EE901AB14290
:1036B00002DDC5ED008A08E010EE901AB94202D989
:1036C00085ED009A01E0C5ED000A42EE291AC4ED2D
:1036D0004C1AD9ED8F0A20EE800A00EE291A84EDEB
:1036E0004D1A8FE0D8ED030AD8ED051A4846B0EE22
:1036F000601A01EEAA1A70EE41BA99ED6F1AB0EE97
:10370000EB0AB4EEC01AF1EE10FA01DBF0EE48BAA3
:10371000D4ED491A90ED3F2AB4EEC01A52EE2B1A9E
:1037200021EE8ACAF1EE10FA19D294ED480A90ED12
:103730005F1A01EE2B0A30EE0C0A10EE102AB2428C
:1037400002DDB0EE680A05E010EE102ABA4201D997
:10375000B0EE490A90EDAF1A11EE00BA01E0B0EEFA
:1037600048BA94ED4A0A90ED0F1A11EE0B0A99ED42
:103770002F1A60EE0ACA94ED4B0A01EE0B0A30EEE6
:103780002C0A10EE100AB04202DDC5ED018A08E0F5
:1037900010EE100AB84202D985ED019A01E085EDDC
:1037A000010A98ED040AAD4930EEC00A01F130007B
:1037B000FCF758FF94ED100AD8ED050A30EE200A08
:1037C00085ED020AD9ED4F0A94ED480A60EEAB0A86
:1037D00000EEA90A84ED480A94ED490A0CEE290A84
:1037E00084ED490A94ED4A0A0CEEA90A84ED4A0ACE
:1037F000D9ED1F0A94ED4B0A60EE8B0A00EEA90A80
:1038000084ED4B0A98ED080ABDEEC00A10EE100ACE
:10381000012802D0022836D136E098ED070AD8ED0B
:10382000060AD4ED761A99ED701A30EE600AF0EEC1
:10383000610AD9ED902A51EE000A94ED771A20EE34
:103840008A2AF0EE410A42EE800A70EE820A10EEF9
:10385000901AB14202DDC5ED038A08E010EE901A1D
:10386000B94202D985ED039A01E0C5ED030A42EEA3
:10387000291AC4ED761AD9ED800A20EE800A00EEEE
:10388000291A84ED771A95E0D8ED090A98ED0B1AFC
:103890004146B0EE600A484601EE2A0A98ED071A42
:1038A00031EE40BA99ED601AB0EECB0AB4EEC01A10
:1038B000F1EE10FA01DBB0EE48BAD4ED731A90EDD8
:1038C000302AB4EEC01A52EE0B1A61EE8ACAF1EE3B
:1038D00010FA1BD294ED720A90ED501A01EE0B0A09
:1038E00030EE2C0A10EE102AB24202DDB0EE680A69
:1038F00005E010EE102ABA4201D9B0EE490AD1ED26
:1039000006BA90EDA01A51EE00BA01E0F0EE48BA06
:1039100094ED740A90ED001A11EE2B0A99ED201A1D
:1039200020EE0ACA94ED750A01EE2B0A30EE0C0A5D
:1039300010EE100AB04202DDC5ED048A08E010EE78
:10394000100AB84202D985ED049A01E085ED040A17
:1039500098ED0A0A41490E3130EEC00A01F13E00ED
:10396000FCF780FE94ED170AD8ED0B0A30EE200A22
:1039700085ED050AD9ED400A94ED720A60EE8B0AD6
:1039800000EEA90A84ED720A94ED730A0CEEA90AFE
:1039900084ED730A94ED740A0CEE290A84ED740A1E
:1039A000D9ED100A94ED750A60EEAB0A00EEA90A93
:1039B00084ED750A98ED0E0ABDEEC00A10EE100AED
:1039C000012802D0022836D14AE098ED0D0AD8ED40
:1039D0000C0AD9ED711AD9ED912A30EE601AD4EDA6
:1039E000460AB0EE600A11EE810AD4ED471A20EEC5
:1039F0000A2AB0EE610A02EE810A30EE020A10EEE7
:103A0000101AB14202DDC5ED068A08E010EE101A68
:103A1000B94202D985ED069A01E085ED060A42EE2B
:103A2000290AC4ED460A99ED810A20EE010A40EE0A
:103A3000291AC4ED471AA8E03C09002000F8FF4508
:103A40006F12833A000000000000C8420000804668
:103A5000000080C6000080C6640000206C070020C3
:103A6000D8ED0F0A98ED111A4146B0EE600A4846AB
:103A700001EE2A0A98ED0D1A31EE40BA99ED611A5D
:103A8000B0EECB0AB4EEC01AF1EE10FA01DBB0EEE4
:103A900048BAD4ED431A90ED312AB4EEC01A52EE72
:103AA0000B1A21EE8ACAF1EE10FA1BD294ED420AEB
:103AB00090ED511A01EE0B0A30EE0C0A10EE102AAE
:103AC000B24202DDB0EE680A05E010EE102ABA42FA
:103AD00001D9B0EE490AD1ED0CBA90EDA11A51EE20
:103AE00000BA01E0F0EE48BA94ED440A90ED011AF4
:103AF00011EE2B0A99ED211A60EE0ACA94ED450ADF
:103B000001EE2B0A30EE2C0A10EE100AB04202DD54
:103B1000C5ED078A08E010EE100AB84202D985ED1B
:103B2000079A01E085ED070A98ED100AFF4930EE8B
:103B3000C00A01F12E00FCF795FD94ED0F0AD8EDB7
:103B4000110A30EE200A85ED080AD9ED410A94EDFC
:103B5000420A60EE8B0A00EEA90A84ED420A94ED57
:103B6000430A0CEE290A84ED430A94ED440A0CEE54
:103B7000A90A84ED440AD9ED110A94ED450A60EED4
:103B8000AB0A00EEA90A84ED450A98ED140ABDEED1
:103B9000C00A10EE100A012802D0022836D136E001
:103BA00098ED130AD8ED120AD4ED401AD9ED922AF5
:103BB00030EE601AD9ED720AB0EE610A10EE810A99
:103BC00020EE0A2A94ED410AF0EE400A42EE810A04
:103BD00070EE820A10EE901AB14202DDC5ED098A3C
:103BE00008E010EE901AB94202D985ED099A01E079
:103BF000C5ED090A42EE291AC4ED401AD9ED820A30
:103C000060EE810A00EEA90A84ED410A95E0D8ED44
:103C1000150A98ED171A4146B0EE600A484601EEC3
:103C20002A0A98ED131A31EE40BA99ED621AB0EEF5
:103C3000CB0AB4EEC01AF1EE10FA01DBB0EE48BACE
:103C4000D4ED3D1A90ED322AB4EEC01A52EE0B1AA2
:103C500021EE8ACAF1EE10FA1BD294ED3C0A90EDE7
:103C6000521A01EE0B0A30EE0C0A10EE102AB24284
:103C700002DDB0EE680A05E010EE102ABA4201D962
:103C8000B0EE490AD1ED12BA90EDA21A51EE00BA87
:103C900001E0F0EE48BA94ED3E0A90ED021A11EE02
:103CA0002B0A99ED221A60EE0ACA94ED3F0A01EE42
:103CB0002B0A30EE2C0A10EE100AB04202DDC5EDE0
:103CC0000A8A08E010EE100AB84202D985ED0A9A75
:103CD00001E085ED0A0A98ED160A9449891E30EE36
:103CE000C00A01F12C00FCF7BDFC94ED0E0AD8EDE2
:103CF000170A30EE200A85ED0B0AD9ED420A94ED41
:103D00003C0A60EE8B0A00EEA90A84ED3C0A94EDB1
:103D10003D0A0CEE290A84ED3D0A94ED3E0A0CEEB4
:103D2000A90A84ED3E0AD9ED120A94ED3F0A60EE2D
:103D3000AB0A00EEA90A84ED3F0A98ED1A0ABDEE1F
:103D4000C00A10EE100A012802D0022836D136E04F
:103D500098ED190AD8ED180A99ED731A94ED3B2ADB
:103D600070EE601A94ED3A0AD9ED932AF0EE400A0B
:103D700051EE210A20EE8A1AF0EE420A42EEA10A22
:103D800070EE810A10EE901AB14202DDC5ED0C8A88
:103D900008E010EE901AB94202D985ED0C9A01E0C4
:103DA000C5ED0C0A01EE290A84ED3A0A99ED830A61
:103DB00020EE210A00EE292A84ED3B2A95E0D8ED79
:103DC0001B0A98ED1D1A4146B0EE600A484601EE06
:103DD0002A0A98ED191A31EE40BA99ED631AB0EE3D
:103DE000CB0AB4EEC01AF1EE10FA01DBB0EE48BA1D
:103DF000D4ED371A90ED332AB4EEC01A52EE0B1AF6
:103E000021EE8ACAF1EE10FA1BD294ED360A90ED3B
:103E1000531A01EE0B0A30EE0C0A10EE102AB242D1
:103E200002DDB0EE680A05E010EE102ABA4201D9B0
:103E3000B0EE490AD1ED18BA90EDA31A51EE00BACE
:103E400001E0F0EE48BA94ED380A90ED031A11EE55
:103E50002B0A99ED231A60EE0ACA94ED390A01EE95
:103E60002B0A30EE2C0A10EE100AB04202DDC5ED2E
:103E70000D8A08E010EE100AB84202D985ED0D9ABD
:103E800001E085ED0D0A98ED1C0A2849091F30EE66
:103E9000C00A01F12A00FCF7E5FB94ED0D0AD8ED0C
:103EA0001D0A30EE200A85ED0E0AD9ED430A94ED85
:103EB000360A60EE8B0A00EEA90A84ED360A94ED0C
:103EC000370A0CEE290A84ED370A94ED380A0CEE15
:103ED000A90A84ED380AD9ED130A94ED390A60EE87
:103EE000AB0A00EEA90A84ED390A98ED200ABDEE6E
:103EF000C00A10EE100A012802D002283AD13AE096
:103F000098ED1F0AD8ED1E0A99ED741AD9ED942A7E
:103F100070EE601AD4ED340AB0EE600A11EE210A98
:103F200020EE0A2A94ED350A02E000006A0700201C
:103F3000B0EE401A02EEA11A31EE021A11EE101A7A
:103F4000B14202DDC5ED0F8A08E011EE101AB94248
:103F500002D985ED0F9A01E085ED0F1A42EE290A8C
:103F6000C4ED340AD9ED840A60EEA10A00EEA90A74
:103F700084ED350A94E0D8ED210A98ED231A4146E4
:103F8000B0EE600A484601EE2A0A98ED1F1A31EE9B
:103F900040BA99ED641AB0EECB0AB4EEC01AF1EE55
:103FA00010FA01DBB0EE48BAD4ED311A90ED342AA4
:103FB000B4EEC01A52EE0B1A21EE8ACAF1EE10FAD4
:103FC0001BD294ED300A90ED541A01EE0B0A30EE3C
:103FD0000C0A10EE102AB24202DDB0EE680A05E0CB
:103FE00010EE102ABA4201D9B0EE490AD1ED1EBA3C
:103FF00090EDA41A51EE00BA01E0F0EE48BA94ED4B
:10400000320A90ED041A11EE2B0A99ED241A60EE93
:104010000ACA94ED330A01EE2B0A30EE2C0A10EE98
:10402000100AB04202DDC5ED108A08E010EE100A59
:10403000B84202D985ED109A01E085ED100A98ED9D
:10404000220AFF4930EEC00A01F12800FCF70AFB02
:1040500094ED0C0AD8ED230A30EE200A85ED110A02
:10406000D9ED440A94ED300A60EE8B0A00EEA90AFD
:1040700084ED300A94ED310A0CEE290A84ED310A00
:1040800094ED320A0CEEA90A84ED320AD9ED140A35
:1040900094ED330A60EEAB0A00EEA90A84ED330A10
:1040A00098ED260ABDEEC00A10EE100A012802D0D3
:1040B000022836D136E098ED250AD8ED240AD4ED51
:1040C0002E1AD9ED952A30EE601AD9ED750AB0EEA8
:1040D000610A10EE810A20EE0A2A94ED2F0AF0EE12
:1040E000400A42EE810A70EE820A10EE901AB14246
:1040F00002DDC5ED128A08E010EE901AB94202D92D
:1041000085ED129A01E0C5ED120A42EE291AC4EDBE
:104110002E1AD9ED850A60EE810A00EEA90A84ED17
:104120002F0A94E0D8ED270A98ED291A4146B0EEFF
:10413000600A484601EE2A0A98ED251A31EE40BA87
:1041400099ED651AB0EECB0AB4EEC01AF1EE10FA92
:1041500001DBB0EE48BAD4ED2B1A90ED352AB4EE5F
:10416000C01A52EE0B1A21EE8ACAF1EE10FA1BD2D7
:1041700094ED2A0A90ED551A01EE0B0A30EE0C0A66
:1041800010EE102AB24202DDB0EE680A05E010EE31
:10419000102ABA4201D9B0EE490AD1ED24BA90ED05
:1041A000A51A51EE00BA01E0F0EE48BA94ED2C0ADF
:1041B00090ED051A11EE2B0A99ED251A60EE0ACA48
:1041C00094ED2D0A01EE2B0A30EE2C0A10EE100AA7
:1041D000B04202DDC5ED138A08E010EE100AB842C5
:1041E00002D985ED139A01E085ED130A98ED280AAE
:1041F0009348A11D30EEC00A2430FCF733FA94ED49
:104200000B0AD8ED290A30EE200A85ED140AD9ED03
:10421000450A94ED2A0A60EE8B0A00EEA90A84EDA5
:104220002A0A94ED2B0A0CEE290A84ED2B0A94ED50
:104230002C0A0CEEA90A84ED2C0AD9ED150A94ED8E
:104240002D0A60EEAB0A00EEA90A84ED2D0A98ED66
:104250002C0ABDEEC00A10EE100A012802D0022876
:1042600036D136E098ED2B0AD8ED2A0AD4ED281A7B
:10427000D9ED962A30EE601AD9ED760AB0EE610AD1
:1042800010EE810A20EE0A2A94ED290AF0EE400A87
:1042900042EE810A70EE820A10EE900AB04202DD10
:1042A000C5ED158A08E010EE900AB84202D985EDF6
:1042B000159A01E0C5ED150A42EE291AC4ED281A37
:1042C000D9ED860A60EE810A00EEA90A84ED290A7A
:1042D00094E0D8ED2D0A98ED2F1A4146B0EE600A11
:1042E000484601EE2A0A98ED2B1A31EE40BA99EDB4
:1042F000661AB0EECB0AB4EEC01AF1EE10FA01DB8A
:10430000B0EE48BAD4ED251A90ED362AB4EEC01AB4
:1043100052EE0B1A21EE8ACAF1EE10FA1BD294ED7E
:10432000240A90ED561A01EE0B0A30EE0C0A10EE3C
:10433000102AB24202DDB0EE680A05E010EE102A43
:10434000BA4201D9B0EE490AD1ED2ABA90EDA61AC7
:1043500051EE00BA01E0F0EE48BA94ED260A90ED75
:10436000061A11EE2B0A99ED261A60EE0ACA94ED90
:10437000270A01EE2B0A30EE2C0A10EE100AB0428A
:1043800002DDC5ED168A08E010EE100AB84202D927
:1043900085ED169A01E085ED160A98ED2E0A28485B
:1043A000211D30EEC00A2030FCF75CF994ED0A0ABA
:1043B000D8ED2F0A30EE200A85ED170AD9ED460A0E
:1043C00094ED240A60EE8B0A00EEA90A84ED240A1B
:1043D00094ED250A0CEE290A84ED250A94ED260AAF
:1043E0000CEEA90A84ED260AD9ED160A94ED270AE7
:1043F00060EEAB0A00EEA90A84ED270A98ED320AB6
:10440000BDEEC00A10EE100A012802D0022839D1F0
:1044100039E098ED310AD8ED300AD4ED221A99ED41
:10442000771A30EE600AF0EE610AD9ED972A51EE64
:10443000000A94ED231A20EE8A2AF0EE410A01E0E8
:104440006407002042EE800A70EE820A10EE901A95
:10445000B14202DDC5ED188A08E010EE901AB942AB
:1044600002D985ED189A01E0C5ED180A42EE291A25
:10447000C4ED221AD9ED870A20EE800A00EE291A2F
:1044800084ED231A93E0D8ED330A98ED351A4146AE
:10449000B0EE600A484601EE2A0A98ED311A31EE74
:1044A00040BA99ED671AB0EECB0AB4EEC01AF1EE3D
:1044B00010FA01DBB0EE48BAD4ED1F1A90ED372A9E
:1044C000B4EEC01A52EE0B1A21EE8ACAF1EE10FABF
:1044D0001BD294ED1E0A90ED571A01EE0B0A30EE36
:1044E0000C0A10EE102AB24202DDB0EE680A05E0B6
:1044F00010EE102ABA4201D9B0EE490AD1ED30BA15
:1045000090EDA71A51EE00BA01E0F0EE48BA94ED32
:10451000200A90ED071A11EE2B0A99ED271A60EE8A
:104520000ACA94ED210A01EE2B0A30EE2C0A10EE95
:10453000100AB04202DDC5ED198A08E010EE100A3B
:10454000B84202D985ED199A01E085ED190A98ED76
:10455000340AA11CFF4830EEC00AFCF783F894ED42
:10456000090AD8ED350A30EE200A85ED1A0AD9ED90
:10457000470A94ED1E0A60EE8B0A00EEA90A84ED4C
:104580001E0A94ED1F0A0CEE290A84ED1F0A94ED11
:10459000200A0CEEA90A84ED200AD9ED170A94ED41
:1045A000210A60EEAB0A00EEA90A84ED210A98ED1B
:1045B000380ABDEEC00A10EE100A012802D0022807
:1045C00036D136E098ED370AD8ED360AD9ED781AAB
:1045D000D9ED982A70EE600A94ED1C0AB0EE401AEC
:1045E00011EEA01AD4ED1D1A21EE0A2AB0EE611ABE
:1045F00002EEA01A31EE021A11EE101AB14202DDDB
:10460000C5ED1B8A08E011EE101AB94202D985EDFA
:104610001B9A01E085ED1B1A02EE290A84ED1C0AA3
:1046200099ED880A20EE200A40EE291AC4ED1D1AE1
:1046300095E0D8ED390A98ED3B1A4146B0EE600A94
:10464000484601EE2A0A98ED371A31EE40BA99ED44
:10465000681AB0EECB0AB4EEC01AF1EE10FA01DB24
:10466000B0EE48BAD4ED191A90ED382AB4EEC01A5B
:1046700052EE0B1A21EE8ACAF1EE10FA1BD294ED1B
:10468000180A90ED581A01EE0B0A30EE0C0A10EEE3
:10469000102AB24202DDB0EE680A05E010EE102AE0
:1046A000BA4201D9B0EE490AD1ED36BA90EDA81A56
:1046B00051EE00BA01E0F0EE48BA94ED1A0A90ED1E
:1046C000081A11EE2B0A99ED281A60EE0ACA94ED29
:1046D0001B0A01EE2B0A30EE2C0A10EE100AB04233
:1046E00002DDC5ED1C8A08E010EE100AB84202D9BE
:1046F00085ED1C9A01E085ED1C0A98ED3A0A954972
:10470000243930EEC00A01F12000FBF7ABFF94ED35
:10471000080AD8ED3B0A30EE200A85ED1D0AD9EDD6
:10472000480A94ED180A60EE8B0A00EEA90A84ED9F
:10473000180A94ED190A0CEE290A84ED190A94ED71
:104740001A0A0CEEA90A84ED1A0AD9ED180A94ED9A
:104750001B0A60EEAB0A00EEA90A84ED1B0A98ED75
:104760003E0ABDEEC00A10EE100A012802D002284F
:1047700036D136E098ED3D0AD8ED3C0AD4ED701AFA
:1047800099ED791A30EE600AF0EE610AD9ED992AB6
:1047900051EE000A94ED711A20EE8A2AF0EE410AD9
:1047A00042EE800A70EE820A10EE901AB14202DDEB
:1047B000C5ED1E8A08E010EE901AB94202D985EDC7
:1047C0001E9A01E0C5ED1E0A42EE291AC4ED701AC8
:1047D000D9ED890A20EE800A00EE291A84ED711ABB
:1047E00095E0D8ED3F0A98ED411A4146B0EE600AD7
:1047F000484601EE2A0A98ED3D1A31EE40BA99ED8D
:10480000691AB0EECB0AB4EEC01AF1EE10FA01DB71
:10481000B0EE48BAD4ED6D1A90ED392AB4EEC01A54
:1048200052EE0B1A21EE8ACAF1EE10FA1BD294ED69
:104830006C0A90ED591A01EE0B0A30EE0C0A10EEDC
:10484000102AB24202DDB0EE680A05E010EE102A2E
:10485000BA4201D9B0EE490AD1ED3CBA90EDA91A9D
:1048600051EE00BA01E0F0EE48BA94ED6E0A90ED18
:10487000091A11EE2B0A99ED291A60EE0ACA94ED75
:104880006F0A01EE2B0A30EE2C0A10EE100AB0422D
:1048900002DDC5ED1F8A08E010EE100AB84202D909
:1048A00085ED1F9A01E085ED1F0A98ED400A294920
:1048B000083930EEC00A01F13C00FBF7D3FE94ED5D
:1048C000160AD8ED410A30EE200A85ED200AD9ED0E
:1048D000490A94ED6C0A60EE8B0A00EEA90A84ED99
:1048E0006C0A94ED6D0A0CEE290A84ED6D0A94EDC4
:1048F0006E0A0CEEA90A84ED6E0AD9ED190A94ED40
:104900006F0A60EEAB0A00EEA90A84ED6F0A98ED1B
:10491000440ABDEEC00A10EE100A012802D0022897
:104920003AD13AE098ED430AD8ED420AD4ED6A1A3A
:1049300099ED7A1A70EE600AB0EE610AD9ED9A2A02
:1049400011EE200A94ED6B1A20EE0A2AB0EE410A0D
:1049500002E000008007002002EEA00A30EE020A0A
:1049600010EE101AB14202DDC5ED218A08E010EE0A
:10497000101AB94202D985ED219A01E085ED210A8C
:1049800042EE291AC4ED6A1A99ED8A0A20EE200A2D
:1049900000EE291A84ED6B1A94E0D8ED450A98EDE3
:1049A000471A4146B0EE600A484601EE2A0A98EDE1
:1049B000431A31EE40BA99ED6A1AB0EECB0AB4EE62
:1049C000C01AF1EE10FA01DBB0EE48BAD4ED671A66
:1049D00090ED3A2AB4EEC01A52EE0B1A21EE8ACAB2
:1049E000F1EE10FA1BD294ED660A90ED5A1A01EE20
:1049F0000B0A30EE0C0A10EE102AB24202DDB0EEC5
:104A0000680A05E010EE102ABA4201D9B0EE490A50
:104A1000D1ED42BA90EDAA1A51EE00BA01E0F0EEE3
:104A200048BA94ED680A90ED0A1A11EE2B0A99ED36
:104A30002A1A60EE0ACA94ED690A01EE2B0A30EEDA
:104A40002C0A10EE100AB04202DDC5ED228A08E001
:104A500010EE100AB84202D985ED229A01E085EDE8
:104A6000220A98ED460AFF4930EEC00A01F13A00E9
:104A7000FBF7F8FD94ED150AD8ED470A30EE200A51
:104A800085ED230AD9ED4A0A94ED660A60EE8B0A99
:104A900000EEA90A84ED660A94ED670A0CEE290A75
:104AA00084ED670A94ED680A0CEEA90A84ED680AA1
:104AB000D9ED1A0A94ED690A60EEAB0A00EEA90A74
:104AC00084ED690A98ED4A0ABDEEC00A10EE100A9C
:104AD000012802D0022836D136E098ED490AD8EDF7
:104AE000480AD9ED7B1AD9ED9B2A30EE600AD4ED45
:104AF000640AB0EE601A11EE801A21EE0A2A94EDD3
:104B0000651AF0EE411A42EE801A71EE821A11EE29
:104B1000901AB14202DDC5ED248A08E011EE901A28
:104B2000B94202D985ED249A01E0C5ED241A42EE7E
:104B3000290AC4ED640AD9ED8B0A20EE800A00EE42
:104B4000291A84ED651A95E0D8ED4B0A98ED4D1AB7
:104B50004146B0EE600A484601EE2A0A98ED491A2D
:104B600031EE40BA99ED6B1AB0EECB0AB4EEC01A32
:104B7000F1EE10FA01DBB0EE48BAD4ED611A90ED17
:104B80003B2AB4EEC01A52EE0B1A21EE8ACAF1EE9D
:104B900010FA1BD294ED600A90ED5B1A01EE0B0A3D
:104BA00030EE0C0A10EE102AB24202DDB0EE680AB6
:104BB00005E010EE102ABA4201D9B0EE490AD1ED53
:104BC00048BA90EDAB1A51EE00BA01E0F0EE48BAE7
:104BD00094ED620A90ED0B1A11EE2B0A99ED2B1A47
:104BE00060EE0ACA94ED630A01EE2B0A30EE2C0A3D
:104BF00010EE100AB04202DDC5ED258A08E010EE85
:104C0000100AB84202D985ED259A01E085ED250A02
:104C100098ED4C0A9349891E30EEC00A01F1380024
:104C2000FBF720FD94ED140AD8ED4D0A30EE200A72
:104C300085ED260AD9ED4B0A94ED600A60EE8B0AE9
:104C400000EEA90A84ED600A94ED610A0CEE290ACF
:104C500084ED610A94ED620A0CEEA90A84ED620A01
:104C6000D9ED1B0A94ED630A60EEAB0A00EEA90AC7
:104C700084ED630A98ED500ABDEEC00A10EE100AEA
:104C8000012802D0022836D136E098ED4F0AD8ED3F
:104C90004E0AD4ED5E1A99ED7C1A30EE600AF0EE01
:104CA000610AD9ED9C2A51EE000A94ED5F1A20EEBC
:104CB0008A2AF0EE410A42EE800A70EE820A10EE75
:104CC000901AB14202DDC5ED278A08E010EE901A75
:104CD000B94202D985ED279A01E0C5ED270A42EED7
:104CE000291AC4ED5E1AD9ED8C0A20EE800A00EE76
:104CF000291A84ED5F1A95E0D8ED510A98ED531A00
:104D00004146B0EE600A484601EE2A0A98ED4F1A75
:104D100031EE40BA99ED6C1AB0EECB0AB4EEC01A7F
:104D2000F1EE10FA01DBB0EE48BAD4ED5B1A90ED6B
:104D30003C2AB4EEC01A52EE0B1A21EE8ACAF1EEEA
:104D400010FA1BD294ED5A0A90ED5C1A01EE0B0A90
:104D500030EE0C0A10EE102AB24202DDB0EE680A04
:104D600005E010EE102ABA4201D9B0EE490AD1EDA1
:104D70004EBA90EDAC1A51EE00BA01E0F0EE48BA2E
:104D800094ED5C0A90ED0C1A11EE2B0A99ED2C1A99
:104D900060EE0ACA94ED5D0A01EE2B0A30EE2C0A91
:104DA00010EE100AB04202DDC5ED288A08E010EED0
:104DB000100AB84202D985ED289A01E085ED280A4B
:104DC00098ED520A2749091F30EEC00A01F136005A
:104DD000FBF748FC94ED130AD8ED530A30EE200A95
:104DE00085ED290AD9ED4C0A94ED5A0A60EE8B0A3A
:104DF00000EEA90A84ED5A0A94ED5B0A0CEE290A2A
:104E000084ED5B0A94ED5C0A0CEEA90A84ED5C0A61
:104E1000D9ED1C0A94ED5D0A60EEAB0A00EEA90A1A
:104E200084ED5D0A98ED560ABDEEC00A10EE100A38
:104E3000012802D0022839D139E098ED550AD8ED81
:104E4000540AD4ED581A99ED7D1A70EE600AB0EE4E
:104E5000610AD9ED9D2A11EE200A94ED591A20EE2F
:104E60000A2A01E076070020B0EE410A02EEA00A0D
:104E700030EE020A10EE101AB14202DDC5ED2A8AA8
:104E800008E010EE101AB94202D985ED2A9A01E025
:104E900085ED2A0A42EE291AC4ED581A99ED8D0AB9
:104EA00020EE200A00EE291A84ED591A94E0D8ED7C
:104EB000570A98ED591A4146B0EE600A484601EE8D
:104EC0002A0A98ED551A31EE40BA99ED6D1AB0EEF6
:104ED000CB0AB4EEC01AF1EE10FA01DBB0EE48BA1C
:104EE000D4ED551A90ED3D2AB4EEC01A52EE0B1ACD
:104EF00021EE8ACAF1EE10FA1BD294ED540A90ED1D
:104F00005D1A01EE0B0A30EE0C0A10EE102AB242C6
:104F100002DDB0EE680A05E010EE102ABA4201D9AF
:104F2000B0EE490AD1ED54BA90EDAD1A51EE00BA87
:104F300001E0F0EE48BA94ED560A90ED0D1A11EE2C
:104F40002B0A99ED2D1A60EE0ACA94ED570A01EE6C
:104F50002B0A30EE2C0A10EE100AB04202DDC5ED2D
:104F60002B8A08E010EE100AB84202D985ED2B9A80
:104F700001E085ED2B0A98ED580A834930EEC00A0E
:104F800001F13400FBF76EFB94ED120AD8ED590ADB
:104F900030EE200A85ED2C0AD9ED4D0A94ED540A25
:104FA00060EE8B0A00EEA90A84ED540A94ED550ACE
:104FB0000CEE290A84ED550A94ED560A0CEEA90A66
:104FC00084ED560AD9ED1D0A94ED570A60EEAB0A3E
:104FD00000EEA90A84ED570A98ED5C0ABDEEC00AFE
:104FE00010EE100A012835D0022869D1D8ED5D0AEB
:104FF00098ED5F1A4846B0EE600A01EE2A0A98ED75
:105000005B1A71EE40AA99ED6E1AB0EEEA0AB4EEA0
:10501000C01AF1EE10FA01DBF0EE48AAD4ED4F1AF7
:1050200090ED3E2AB4EEC01A52EE2A1A21EE8ABA48
:10503000F1EE10FA54D294ED4E0A90ED5E1A01EEA4
:105040002A0A30EE0B0A10EE101AB1423CDDB0EE27
:10505000680A3FE098ED5B0AD8ED5A0A94ED521ABF
:10506000D9ED7E1A30EE600AF0EE410AD9ED9E2AA3
:1050700051EE800AD4ED531A20EE8A2AF0EE610A2E
:1050800042EE800A70EE820A10EE901AB14202DD02
:10509000C5ED2D8A08E010EE901AB94202D985EDCF
:1050A0002D9A01E0C5ED2D0A02EE291A84ED521A5F
:1050B000D9ED8E0A20EE800A40EE291AC4ED531A6B
:1050C000BDEC0A8BBDE8F08710EE101AB94201D989
:1050D000B0EE490A98ED5A8A90EDAE1A11EE008AA8
:1050E00094ED500A90ED0E1A11EE080A99ED2E1A61
:1050F00020EE0AAA94ED510A01EE080A30EE0A0ADF
:1051000010EE100AB04202DDC5ED2E8A08E010EE66
:10511000100AB84202D985ED2E9A01E085ED2E0ADB
:1051200098ED5E0A1849891E30EEC00A01F132007E
:10513000FBF798FA94ED110AD8ED5F0A30EE200AD9
:1051400085ED2F0AD9ED4E0A94ED4E0A60EEAA0ABB
:1051500000EEA90A84ED4E0A94ED4F0A0BEE290ADF
:1051600084ED4F0A94ED500A0AEE290A84ED500AA4
:10517000D9ED1E0A94ED510A60EE880A00EEA90AE4
:1051800084ED510A9CE7000070070020F0B52C491F
:105190002D4CC868C2680088C2EB4232104400EE51
:1051A000100A2848B8EEC00A80ED030AD4ED030ABD
:1051B00030EE600ADFED250AB5EEC00AF1EE10FA16
:1051C00001DCB0EE600A224A10EE105A214F02268E
:1051D000214B82ED030ABD4203DADD78012D00D1B7
:1051E000DE7089689FED1D1ADFED1D1ACD680988F4
:1051F000C5EB4535294400EE101AB8EEC00A80ED23
:10520000020A20EE011A174881EE212A80ED002AB9
:1052100094ED021A30EE410AB5EEC00AF1EE10FA32
:1052200001DCB0EE600A10EE100A0F4982ED020AAE
:10523000884203DA9878012800D19E70F0BD000002
:10524000DC0600209803002044030020000000003A
:10525000B80300200000FA4402000020007C8347CD
:10526000FC68E04B1400002000409C454FF040706B
:10527000E1EE100A70470006101600061016000036
:1052800000000000000001020304060708090000F6
:105290000000010203040000B852000800000020D2
:1052A00024030000C4010008D05200082403002099
:1052B000BC0E00002002000801303201821003FF02
:1052C00024F401A80B3CFA430401C10A3A3F04004C
:040000050800018965
:00000001FF
