:020000040800F2
:10000000C011002069020008733A00083D2D000865
:10001000713A00085F040008A959000800000000B8
:10002000000000000000000000000000BF520008B7
:100030001907000800000000BD520008C152000866
:10004000830200088302000883020008830200087C
:10005000830200088302000883020008830200086C
:100060008302000883020008830200084506000896
:1000700051060008830200085D060008830200089C
:10008000830200086906000883020008850500084D
:100090007905000883020008830200088302000833
:1000A00083020008695300088302000883020008E5
:1000B0008302000883020008830200084D2D000817
:1000C000412D000883020008830200088302000813
:1000D0008302000883020008830200089D5900087B
:1000E00083020008830200088302000883020008DC
:1000F00083020008830200088302000883020008CC
:1001000083020008830200088302000883020008BB
:1001100083020008830200088302000883020008AB
:10012000830200088302000883020008830200089B
:100130008302000883020008830200089D0500086E
:10014000910500088302000883020008830200086A
:10015000830200088302000883020008830200086B
:10016000830200088302000883020008830200085B
:1001700083020008830200088302000800000000D8
:10018000830200088302000800F002F800F05CF827
:100190000AA090E8000C82448344AAF10107DA45E2
:1001A00001D100F051F8AFF2090EBAE80F0013F0D8
:1001B000010F18BFFB1A43F001031847505A000003
:1001C000705A00000A444FF0000C10F8013B13F085
:1001D000070408BF10F8014B1D1108BF10F8015BA0
:1001E000641E05D010F8016B641E01F8016BF9D193
:1001F00013F0080F1EBF10F8014BAD1C0C1B09D1EA
:100200006D1E58BF01F801CBFAD505E014F8016B5B
:1002100001F8016B6D1EF9D59142D6D370470000ED
:100220000023002400250026103A28BF78C1FBD8FF
:10023000520728BF30C148BF0B6070471FB505F09B
:10024000CFFC1FBD10B510BD00F0CFF81146FFF771
:10025000F5FF05F0F9FB00F0EDF803B4FFF7F2FF4E
:1002600003BC00F0F5F80000094880470948004742
:10027000FEE7FEE7FEE7FEE7FEE7FEE7FEE7FEE756
:10028000FEE7FEE704480549054A064B70470000B3
:100290005953000889010008C00B0020C01100203C
:1002A000C00D0020C00D002053EA020C00F0698050
:1002B0002DE9F04B4FF00006002B1FBFB3FA83F57A
:1002C00003FA05F424FA05F65E4012BF1643B2FAAB
:1002D00082F502FA05F4C5F120051EBF22FA05FCDD
:1002E00044EA0C04203556EA044C4FEA144418BF83
:1002F000641C4FF000084FF00009904271EB030CB2
:1003000039D3002919BFB1FA81F701FA07F6B0FA1B
:1003100080F700FA07F6C7F120071EBF20FA07FC96
:1003200046EA0C062037B6FBF4FCA7EB0507103FA6
:1003300007F01F0BCBF120060CFA0BFB2CFA06F68C
:1003400044BFB3460026202FA4BF5E464FF0000BEB
:100350005BEA060C08BF4FF0010B19EB0B09ABFB76
:10036000027C48EB0608C01B06FB02CC0BFB03CC4F
:1003700071EB0C01C1E70B46024641464846BDE819
:10038000F08B13B54FF000004FF00001AFF3008089
:10039000BDE81C4070474FF0000200B5134694467C
:1003A0009646203922BFA0E80C50A0E80C50B1F1CD
:1003B0002001BFF4F7AF090728BFA0E80C5048BFE1
:1003C0000CC05DF804EB890028BF40F8042B08BF7F
:1003D000704748BF20F8022B11F0804F18BF00F87B
:1003E000012B7047704770477047754600F02CF836
:1003F000AE4605006946534620F00700854618B012
:1004000020B5FFF73FFFBDE820404FF000064FF05A
:1004100000074FF000084FF0000B21F00701AC4639
:10042000ACE8C009ACE8C009ACE8C009ACE8C00958
:100430008D46704710B50446AFF300802046BDE8F6
:100440001040FFF70ABF0000004870475C0B002017
:1004500001491820ABBEFEE7260002007047FEE708
:100460002DE9F04F374C2078AA2869D1607CDD282F
:1004700066D10F21A01C00F097F83349087061780D
:1004800081425DD1DFF8C4C0B4F90200DFF8C0A03A
:10049000ACF80000B4F90470DFF8B8E0AAF8007016
:1004A000B4F90630DFF8B0B0AEF80030B4F9082087
:1004B0002A4DABF80020B4F90A10DFF8A490298087
:1004C000B4F90C50274EA9F800505FEA004800D557
:1004D0003043ACF800005FEA074C00D53743AAF878
:1004E00000701F0400D53343AEF80030130400D56C
:1004F0003243ABF8002019480A0400D5314301808B
:10050000290400D535431848A9F800501749057843
:10051000174BEE074FF0010205D1A67BF60702D07C
:100520000A70AB261E70AD0705D4A57BAD0702D5BA
:100530000A70CD2119700F49A27B0270E07B087010
:10054000BDE8F08F140300201200002004000020FA
:1005500006000020080000200A0000200C000020F7
:100560000E0000200000FFFF10000020020000200D
:100570000100002011000020014800F0DEB9000059
:1005800028030020014800F0D8B90000280300200B
:10059000014800F0D2B9000050030020014800F0EB
:1005A000CCB9000050030020034610B50120002202
:1005B00002E09C5C6040521C8A42FADB10BD0000E5
:1005C000F0B50A78012502239AB14F7803261A4A1A
:1005D0001A4CFFEE000A012F0DD0B7EE001A022FC1
:1005E0000ED010EE106AA6421BDB4D7080ED001A93
:1005F000F0BD0D701DE010EE105A954208D210E0CB
:1006000010EE103AA342F0DA10EE103A934203D300
:100610004E70C0ED000AF0BD9FED090A80ED000AA2
:10062000F0BD10EE100AA042FADA10EE100A904265
:10063000F6D24B70F0BD000000409CC500409C45C8
:1006400000000000014800F08FBC0000CC03002037
:10065000014800F089BC000060050020014800F05E
:1006600083BC0000C0050020014800F07DBC0000F4
:100670002C04002001681823CAB2103AB2FBF3F22E
:10068000054B6FF30901032A9B5CC36500D9091D63
:100690008165084670470000EA5B000810B5014616
:1006A00000208B698A6A4FF0C07453B1B3F5005FC4
:1006B00015D072B1012A0CD0022A0AD0032A09D11E
:1006C00004E01AB1012A06D0022A03D1C96AC9017D
:1006D00000D5012010BDC96AA142FAD010BD002A80
:1006E000F7D0012AF2D0022AF3D0032AF3D010BDAA
:1006F00030B50468256825F48025256004686360AA
:100700008368402B036803D099600068C26030BDE5
:100710009A600068C16030BD704772B6FEE790F81D
:100720002020012A07D0022A05D0416A41F4802105
:10073000416201207047006842690A43426100201B
:100740007047000010B590F82020012A07D0022A37
:1007500005D0416A41F480214162012010BD3B482F
:10076000D0F8002242F00102C0F80022D0F80022A6
:1007700022F47C52C0F80022D0F800224B6A42EAF0
:100780000322C0F800220A7D02F01F0301229A40D2
:10079000D0F81C329343C0F81C32CB69B3B9D0F8FF
:1007A0000C329343C0F80C328C894B6864F31F43BE
:1007B0004C6900EBC404C4F840320C890B6864F344
:1007C0001F434C6900EBC404C4F84432CB69012BCD
:1007D00016D1D0F80C321343C0F80C320C884B6899
:1007E00064F31F434C6900EBC404C4F840320C8925
:1007F000CB6864F31F434C6900EBC404C4F8443273
:100800008B69002BD0F804320ED01343C0F80432A9
:100810000B69002BD0F8143208D01343C0F81432FF
:10082000096A012904D008E09343EFE79343F5E711
:10083000D0F81C121143C0F81C12D0F8001221F09D
:100840000101C0F80012002010BD0000006400404B
:10085000704730B590F82040012C05D0022C03D011
:10086000416A41F480215DE00468002955D0246983
:10087000A40754D04FF4D874056804EB01142D5923
:1008800015F00405956005682D594ED0ED085560AA
:1008900005682C5904F00204D4604FF4DA7405683A
:1008A00004EB01142D5905F00F05156105682D594C
:1008B000C5F30725956105682C59240C54614FF444
:1008C000DC72046802EB0112A4581C700468A4587E
:1008D000240A5C700468A458240C9C700468A25814
:1008E000120EDA704FF4DE72046802EB0112A458A3
:1008F0001C710468A458240A5C710468A458240C70
:100900009C710468A258120EDA71006881B1016905
:1009100041F020010161002030BDE468A8E7416A90
:1009200041F400114162012030BD6D0D1560AFE74B
:10093000C16841F02001C160EDE72DE9F05F054697
:10094000006800244669D0F804908768D0F80CB09D
:10095000D0F810A0D0F81880F10748D0F90714D0CB
:1009600001218160B80703D5284600F096FA0CE013
:10097000780702D54FF4006407E0380702D54FF43A
:10098000805402E0284600F087FAF80516D5296859
:100990004FF480708860B80503D5284600F07FFAD0
:1009A0000CE0780502D544F4005407E0380502D580
:1009B00044F4804402E0284600F070FAF80316D5AB
:1009C00029684FF480308860B80303D5284600F0CA
:1009D00068FA0CE0780302D544F4004407E03803D9
:1009E00002D544F4803402E0284600F059FA30077A
:1009F00007D55FEACB6004D52968102044F4007461
:100A0000C86070074FF0080707D55FEA0B7004D580
:100A10002868C760284600F0A9F9B00706D52868FD
:100A2000C068800702D0284600F0A2F9700607D5FA
:100A30005FEACA6004D52968102044F48064086124
:100A4000B00607D55FEA0A7004D528680761284612
:100A500000F0F2F9F00606D528680069800702D098
:100A6000284600F0EAF9B00308D55FEAC96005D569
:100A7000296810204860284600F0E0F9F00307D507
:100A80005FEA097004D528684760284600F00AFA32
:100A9000300446D55FEA497040D5F00504D55FEAD9
:100AA000C87001D044F00104B00504D55FEA887035
:100AB00001D544F00204700504D55FEA487001D501
:100AC00044F00404300529D518F0700F26D008F042
:100AD0007000402815D006DC102809D020280AD044
:100AE000302816D10AE050280ED0602811D10EE02F
:100AF00044F008040DE044F010040AE044F020043F
:100B000007E044F0400404E044F0800401E044F4D1
:100B100080742868816921F070018161296804204E
:100B20004860002C05D0686A204368622846FFF7B9
:100B30008FFEBDE8F09F70B5040003D094F820004C
:100B400010B104E0012070BD204600F081F820685B
:100B5000016841F00101016000F082FC05460526B4
:100B600004E000F07DFC401B0A2811D82068406892
:100B7000C007F6D02068016821F00201016000F092
:100B80006FFC05460BE000F06BFC401B0A2806D901
:100B9000606A40F40030606284F82060D2E7206828
:100BA00040688007EFD4207E0128206801683DD08E
:100BB00021F080010160607E01282068016838D042
:100BC00021F040010160A07E01282068016833D037
:100BD00021F020010160E07E0128206801682ED00C
:100BE00041F010010160207F01282068016829D0B0
:100BF00021F008010160607F01282068016824D08D
:100C000021F004010160D4E902010843D4E904128F
:100C1000114308436168491E08432168C8610020E8
:100C20006062012084F82000002070BD41F0800146
:100C3000C0E741F04001C5E741F02001CAE721F0DB
:100C40001001CFE741F00801D4E741F00401D9E7F2
:100C5000F0B587B0044614216846FFF79CFB3E4B75
:100C60003E48DFF8F0E01968D4F800C03B4A03259D
:100C70000226092710300024491CF4452AD11960A6
:100C8000012907D1016841F000710160006800F09E
:100C900000700590106840F0080010601068CDE901
:100CA000005600F00800CDE9047069462C48CDE9F3
:100CB000024500F0DDFA00220121132000F0B2FF0E
:100CC000132000F0A1FF00220121142000F0AAFF50
:100CD00014203AE0DFF88CE0F44538D1D0F800C0B9
:100CE0004CF0806CC0F800C0D0F800C001290CF0B6
:100CF000806CCDF814C0196007D1016841F0007113
:100D00000160006800F000700590106840F002007B
:100D10001060106802AB00F0020005906020CDE981
:100D2000000683E8B00069460F4800F0A1FA0022EF
:100D300001213F2000F076FF3F2000F065FF0022F8
:100D40000121402000F06EFF402000F05DFF07B061
:100D5000F0BD000000640040140000203038024064
:100D6000000C024000680040000402407047000090
:100D700030B505462C482D4C8BB0854226D101ABB1
:100D800003AA00212846FFF764FD0398A0F2012082
:100D9000072817D8C0B22649207001EB001001883F
:100DA0000181BDF8041049BA0180BDF8061049BAA6
:100DB0004180BDF8081049BA81809DF80A10817100
:100DC00004F02EFE02211848FFF7A9FC19488542BD
:100DD00027D102AB04AA00212846FFF73AFD049868
:100DE000A0F20120072818D81149C0B260708031E4
:100DF00001EB001001880181BDF8081049BA01809B
:100E0000BDF80A1049BA4180BDF80C1049BA81807A
:100E10009DF80E10817104F003FE02210548FFF7D2
:100E20007EFC0BB030BD000028030020280000200D
:100E300020060020500300207047704770470000D4
:100E400070B5044690F82000012804D0606A40F490
:100E50000020606218E0022084F820002068016809
:100E600021F00101016000F0FBFA05460EE000BF31
:100E700000F0F6FA401B0A2808D9606A40F40030F6
:100E80006062052084F82000012070BD2068406861
:100E9000C007EDD1606270BD704770477047704702
:100EA0007047704770472DE9F0410446876D00F0A8
:100EB000D7FA064694F835000025022806D080208F
:100EC000606584F834500120BDE8F0812068016835
:100ED00021F0160101602068416921F08001416123
:100EE000206C08B9A06C20B12068016821F00801CD
:100EF00001602068016821F0010101600CE000F050
:100F0000AFFA801B052807D920206065032084F8EC
:100F1000350084F83450D7E720680068C007EED168
:100F200094F85C103F208840B860012084F83500B8
:100F300084F834500020C7E790F83510022903D018
:100F40008021416501207047052180F83510006837
:100F5000016821F00101016000207047406D704779
:100F600090F83500704700002DE9F84304464FF033
:100F70000009CDF8009063484FF41651A56D006844
:100F8000B0FBF1F72E6894F85C10082000FA01F12C
:100F900031420FD021680A6852070BD50A6822F047
:100FA00004020A6094F85C108840A860606D40F00C
:100FB0000100606594F85C104FF0010808FA01F038
:100FC000304208D021684969090604D5A860606DDF
:100FD00040F00200606594F85C10042088403042C4
:100FE00008D021680968890704D5A860606D40F0C1
:100FF0000400606594F85C1010208840304218D0DE
:1010000021680968090714D5A860206801684903A8
:1010100004D50068000308D5A16C07E00168C90584
:1010200003D4016821F008010160216C09B1204658
:10103000884794F85C1020208840304231D02168E5
:101040000968C9062DD5A86094F8350005282068E0
:10105000016806D0490347D5006800031DD4616CC0
:101060001CE021F0160101602068416921F0800137
:101070004161206C08B9A06C20B12068016821F0A2
:101080000801016094F85C103F208840A86084F853
:10109000358084F83490216D1FE0E16B09B1204662
:1010A0008847606D00282BD0606DC00714D00520E4
:1010B00084F835002068016821F001010160009882
:1010C000401C0090B84203D820680068C007F6D1E1
:1010D00084F8358084F83490E16C002910D001B098
:1010E0002046BDE8F04308470168C905D5D401682A
:1010F00021F01001016084F8358084F83490CCE749
:10110000BDE8F883240000202DE9F041044600F0FA
:10111000A7F906465CB1022084F83500002584F862
:1011200034502068016821F0010101600DE00120C8
:10113000BDE8F08100F094F9801B052805D9202036
:101140006065032084F83500F2E720680068C00776
:10115000F0D12268116820480140D4E90103184306
:10116000D4E903363343184363691843A36918432A
:10117000E3691843236A18430843616A042903D1C9
:10118000D4E90B1319430843106020684069666A6C
:1011900020F0070130460E43012704280CD1A06A35
:1011A0000643E06A40B12046FFF778FA20B14020BC
:1011B000606584F83570BAE7206846612046FFF71D
:1011C00059FA94F85C203F2191408160656584F86C
:1011D00035700020ACE700003F8010F02DE9F041B1
:1011E0000446866D90F83400002501280DD00120BA
:1011F00084F8340094F835700020012F07D084F86B
:10120000340002252846BDE8F0810220FBE70227D2
:1012100084F8357060652046FFF76AFA94F85C1030
:101220003F208840B0602068016841F016010160ED
:10123000206C20B12068016841F00801016020683D
:10124000016841F001010160DCE7000070B504466F
:1012500000F006F90546601C02D0044800780444FA
:1012600000F0FEF8401BA042FAD370BD1800002029
:101270002DE9F84FDFF8BCA10022012503264FF02D
:101280000F090AF1040BAAF1040E00BF0B6805FA5E
:1012900002F42340A34270D10F7907F00307012F16
:1012A00001D0022F16D187684FEA420806FA08FCDF
:1012B00027EA0C07D1F80CC00CFA08FC4CEA070C22
:1012C000C0F808C04768A7430C79C4F300149440E1
:1012D0003C4344600C79E443A4070AD0C4684FEA55
:1012E000420C06FA0CF7BC438F6807FA0CF7274349
:1012F000C7600C7904F00304022C12D1D40800EB6F
:10130000840CDCF820405707FF0E09FA07F824EA9E
:101310000804D1F8108008FA07F848EA0408CCF865
:10132000208004684FEA420C06FA0CF7BC430F79A0
:1013300007F0030707FA0CF7274307604C6814F41B
:10134000403F70D03C4C276847F4804727602468B2
:1013500022F0030704F480440094384C07EB040C9B
:10136000DCF8084897074FEA177809FA08F7BC43F2
:10137000334FB84202D1002724E054E0314FB84245
:1013800001D101271EE0304FB84201D1022719E0F8
:101390002E4FB84201D1032714E02D4FB84201D19E
:1013A00004270FE02B4FB84201D105270AE02A4F4E
:1013B000B84201D1062705E0284FB84201D10727DE
:1013C00000E0082707FA08F72743CCF80878DAF88E
:1013D00000405746D1F804C09C435FEACC2C00D5AE
:1013E0001C433C60DBF800405F46D1F804C09C43DE
:1013F0005FEA8C2C00D51C433C60DEF80040774649
:10140000D1F804C09C435FEA8C3C00D51C433C608F
:10141000084F083F3C68D1F804C09C435FEACC3CCD
:1014200000D51C433C60521C102AFFF42FAFBDE8CE
:10143000F88F0000083C0140443802400030014071
:10144000000002400004024000080240000C02407C
:10145000001002400014024000180240001C02402C
:1014600001488068704700001800002070477047EE
:101470002DE9F041016804464A694E6890F83E0043
:101480000025D743FA0506D4F243D20503D46FF4FE
:10149000807201254A61B90508D4F143C90505D414
:1014A00022686FF4007145F002055161790525D479
:1014B000F143C90522D4638D94F83D10226B202896
:1014C00008D13BB9212910D029290ED0282901D1D2
:1014D000212A0AD022686FF48061516145F0040529
:1014E000102806D0402804D008E0204602F0A6F8D4
:1014F00004E02068016841F400710160380508D4F7
:10150000F043C00505D421686FF4006045F008057C
:101510004861002D07D0206C284320642046BDE898
:10152000F04101F01DBDBDE8F0812DE9F0470268F2
:1015300000215368C66A90F83E4090F83D50102C48
:1015400012D0402C10D0046C002C7DD05469E443A0
:10155000A6077AD4DE43B60577D4036C03B191694C
:10156000BDE8F04702F046B8976951694FF42A0C7C
:10157000C9435FEAC1784FF02A4904D066452AD0B2
:101580004E4528D010E0DE43B6050DD4C16A614552
:1015900001D1012103E0C16A494501D10821C1629D
:1015A000BDE8F04701F090BF0E0716D4DE43B60544
:1015B00013D4416CC9B21161416B09B1C96B29B92E
:1015C000816B002907D0C96B002904D000684168ED
:1015D00041F400614160BDE8F0878E0706D4DE4328
:1015E000B60503D4BDE8F04701F0E2BEFE43526801
:1015F00076074FEA02521DD4002AECDB0A0608D413
:10160000DA43520505D4490705D5BDE8F04701F096
:1016100073BE4907DFD4D9438905DCD4212D05D019
:10162000402CD8D1BDE8F04701F094BFBDE8F047A9
:1016300001F020BE002ACEDB4A060BD4DA43520565
:1016400008D4490708D501E00DE00EE0BDE8F047F9
:1016500001F09CBD4907BED4D9438905BBD4BDE880
:10166000F04701F029BD916970E7E10606D4D9433E
:10167000890503D4BDE8F04702F022B82821212DC6
:1016800027D0292D25D0650655D4DD436D0552D4CC
:10169000640752D590F83D30448D002C9BD01269E0
:1016A000446A2270426A521C4262428D521E428536
:1016B000428D002A8FD12A2B8DD10268536823F4E2
:1016C000806353602222026380F83D1000F040FAEC
:1016D00081E7250623D4DD436D0520D4640720D59A
:1016E00090F83D30448D002CF2D0446A2478146187
:1016F000426A521C4262428D521E4285428D002A2D
:10170000E6D1292BE4D10268536823F48063536047
:101710002122026380F83D1000F01BFA5BE76107AD
:10172000D6D4D9438905D3D4418D0029D0D0416A7C
:10173000097811610AE06107CAD4D9438905C7D481
:10174000418D0029C4D01169426A1170416A491C57
:101750004162418D491E41853DE77047006C7047ED
:1017600090F83D007047000070B5040025D094F853
:101770003D00002520B984F83C50204600F06EF969
:10178000242084F83D002068016821F001010160F7
:101790002068016841F4004101602068016821F47B
:1017A0000041016000F00AFB4D4A6168914201D896
:1017B0004C4900E04C49884201D2012070BD4B49A0
:1017C0002368B0FBF1F15E6826F03F060E435E60D1
:1017D0006368934206D94FF4967359434FF47A7372
:1017E000B1FBF3F12368491C1E6A26F03F06314322
:1017F00019626168914210D84900401EB0FBF1F2B5
:10180000521CC2F30B02042A01D2042022E0B0FBD6
:10181000F1F0401CC0F30B001CE0A268F2B301EB36
:10182000C10303EB0116431EB3FBF6F35B1C43F449
:1018300080431B0549D092B301EBC10202EB0111B9
:10184000401EB0FBF1F0401CC0F30B0040F48040A0
:1018500040F400402168CA694CF6FF739A43104374
:10186000C861D4E9071001432068026822F0C00271
:1018700011430160D4E9030101432068826848F202
:10188000FF339A4311438160D4E90501084321687D
:10189000CA6822F0FF021043C86001E00EE016E0C3
:1018A0002068016841F0010101602564202084F86E
:1018B0003D00256384F83E50002070BD01EB4106D9
:1018C000431EB3FBF6F35B1CB3E70120C2E701EB59
:1018D0004101401EB0FBF1F0401CC0F30B00B7E724
:1018E000A086010080841E0000093D0040420F00D8
:1018F0007047704770470000F8B500250446009512
:1019000090F83D00202871D14F4846F2A816006893
:10191000B0FBF6F000EBC00606EB001020260090AE
:101920000098401E009010D020688069C043800756
:10193000F6D594F83C00012858D0012084F83C00EA
:1019400020680768FF070AD00DE044F8305F66732F
:10195000A573206940F02000206125733BE00768F3
:1019600047F0010707602068076827F400670760F1
:10197000212084F83D00102084F83E002564626236
:101980006385608D20853148E0626164208D70B38D
:10199000606B10B32E49C163616B2E48C864606BE5
:1019A0000564606B4564606B8564606B05652268E7
:1019B000238D1032616A606BFFF710FCC0B184F8B0
:1019C0003D6084F83E5054F8400F40F0100000BFD6
:1019D00044F8040925700120F8BD84F83D6084F8BE
:1019E0003E5054F8400F40F08000F1E72AE016E046
:1019F00084F83C502068416841F44071416020689F
:101A0000416841F4006141602068016841F48061EF
:101A100001602068016841F48071016010E0206875
:101A2000016841F4806101602068016841F48071BF
:101A3000016084F83C502068416841F4E0614160F5
:101A40000020F8BD0220F8BD240000200000FFFFA8
:101A5000552E0008152E0008704770472DE9F041FB
:101A600086B0064614216846FEF795FC3349306877
:101A7000884260D132480024016841F002010160CF
:101A80000068694600F0020005904FF44070009035
:101A90001220CDE90104032003900420049029487A
:101AA000FFF7E6FB26481030016841F400110160A1
:101AB0000068264D00F40010059023482860470573
:101AC000C5E901744FF48068C5E903486C61AC61F5
:101AD000EC612C6228466C62FFF716FB08B1FEF73A
:101AE0001CFEB563AE63194D174860359030E5E8CC
:101AF00002074020A5E81101144845F81449603058
:101B0000AC61EC612C626C62FFF7FEFA08B1FEF783
:101B100004FE7563002202211F20AE6300F082F8EC
:101B20001F2000F071F800220221202000F07AF836
:101B3000202000F069F806B0BDE8F08100540040B4
:101B4000303802400004024010600240CC03002004
:101B5000704770470248816802781144816070477D
:101B6000180000200B4810B5016841F400710160B5
:101B7000016841F480610160016841F48071016095
:101B8000032000F06FF80F2000F006F800F024F8B2
:101B9000002010BD003C024070B50D4D04464FF4CE
:101BA0007A712878B1FBF0F00A490968B1FBF0F0CE
:101BB00000F00CFB48B9102C07D200222146501E21
:101BC00000F030F800206C6070BD012070BD000096
:101BD00018000020240000200A4808B5016841F4DC
:101BE00080410160006800F4804000900548001FBB
:101BF000016841F080510160006800F08050009061
:101C000008BD000044380240002809DB00F01F0234
:101C1000012191404009800000F1E020C0F800114E
:101C200070470000F0B40E4B1B680C46C3F3022350
:101C3000C3F10705042D00D90425191D072901D278
:101C4000002300E0DB1E012606FA05F1491E2140B3
:101C500099409E40761E16403143F0BC03F0A5BE6D
:101C60000CED00E0064900F0070208684FF6FF039C
:101C7000184040EA0220034A104308607047000001
:101C80000CED00E00000FA052DE9F0470E460500D6
:101C900065D0DFF81481D8F80000F7B200F0070033
:101CA000B04207D288F80070D8F8000000F00700B2
:101CB000B04254D128683D4C810712D5400703D566
:101CC000206840F4E05020602878000703D52068A1
:101CD00040F4604020602068A96820F0F0000843CC
:101CE00020602878C0072DD030496868083901285D
:101CF00012D0022813D0032811D0096889070029BF
:101D00002DDA216821F0030101432160FFF7A8FBD0
:101D1000814641F2883A0EE009688903EFE70968D5
:101D20008901ECE7FFF79CFBA0EB0901514502D9C3
:101D30000320BDE8F0872068696800F00C00B0EB74
:101D4000810FEFD1D8F80010404601F00701B142F1
:101D500007D90770006800F00700B04201D00120E9
:101D6000E7E72878400705D52068E96820F4E050C7
:101D7000084320602878000706D52068296920F4E8
:101D8000604040EAC100206000F038F82168084A4D
:101D9000C1F30311515CC840064908600648006859
:101DA000FFF7FAFE0020C4E7003C0240083802407A
:101DB000F25B0008240000201C00002004480549B4
:101DC00000680968044AC1F38221515CC840704729
:101DD0002400002008380240025C0008044805493D
:101DE00000680968044AC1F34231515CC840704739
:101DF0002400002008380240025C0008154810B595
:101E0000006810F00C02144813D01449042A0FD0B3
:101E1000082A0ED10F4C241F2268236802F03F02CB
:101E20005B0207D52068C0F38810A0FB010106E023
:101E3000084610BD2168C1F38811A1FB00010023F1
:101E4000FEF732FA2168C1F30141491C4900B0FB99
:101E5000F1F010BD083802400024F40040787D0104
:101E60002DE9F84F04006ED02078DFF84C93C007BE
:101E7000A9F104054AD009F104000168C1F3810108
:101E8000012908D00068C0F3810002280AD1D9F8DE
:101E90000000400206D52868800337D56068002816
:101EA000E1D033E06068B0F5803F10D0B0F5A02FEE
:101EB000286810D020F480302860286820F4802022
:101EC00028606068A8B1FFF7CBFA06460DE02868E5
:101ED00040F48030F4E740F480202860F7E700BF4A
:101EE000FFF7BEFA801B642873D828688003F7D5F3
:101EF0000CE0FFF7B5FA064605E000BFFFF7B0FAC1
:101F0000801B6428F0D828688003F7D42078DFF895
:101F1000AC8280074FF0000A3ED5A748001D01683B
:101F200011F00C0F08D00068C0F3810002280BD11B
:101F3000D9F80000400207D42868800716D5E06869
:101F4000012800D112E033E1E068B8B10120C8F8FF
:101F50000000FFF785FA064605E000BFFFF780FAAC
:101F6000801B0228C0D828688007F7D52868216917
:101F700020F0F80040EAC10028600DE0C8F800A099
:101F8000FFF76EFA064604E0FFF76AFA801B0228A4
:101F90001FD828688007F7D42078000722D5864FFD
:101FA00087486169703771B101210160FFF758FA04
:101FB000064604E0FFF754FA801B022809D8386867
:101FC0008007F7D50EE0C0F800A0FFF749FA0646F3
:101FD00005E082E0FFF744FA801B02287DD83868CC
:101FE0008007F7D42078400768D5DFF8CCB1002708
:101FF0000BF13C0BDBF80000C0000BD4DBF8001049
:1020000041F08051CBF80010DBF80000012700F010
:10201000805000906B4E3068C00510D4306840F49A
:1020200080703060FFF71CFA009005E0FFF718FAA7
:102030000099401A022850D83068C005F6D55E4E87
:10204000A0686C3601280FD00528306810D020F029
:1020500001003060306820F004003060A068B8B142
:10206000FFF7FEF900900FE0306840F00100F4E760
:1020700040F004003060F7E7FFF7F2F90099411AE9
:1020800041F28830814266D830688007F4D50EE08E
:10209000FFF7E6F9009007E0FFF7E2F90099411A2F
:1020A00041F28830814256D830688007F4D42FB18D
:1020B000DBF8001021F08051CBF80010A069C8B304
:1020C0003D49091D0968C1F3810102294AD002284E
:1020D000504607D0C8F8600000E03CE0FFF7C0F9C8
:1020E00004463BE04746C8F86000FFF7B9F90646EA
:1020F00005E000BFFFF7B4F9801B02282BD8286841
:102100008001F7D4D4E907010843A16A2E4A49089F
:1021100002EB0141626A41EA8211084394F82C10F3
:1021200040EA0161C9F8001001203866FFF798F90C
:10213000044606E03EE000BFFFF792F9001B0228CC
:1021400009D828688001F7D534E000BFFFF788F987
:10215000001B022802D90320BDE8F88F28688001FF
:10216000F4D427E00128F7D0D9F80000E26900F4A0
:10217000800191421CD1226A00F03F01914217D1A7
:1021800047F6C071626A0140B1EB821F10D1A26AAA
:102190004FF0FF3300F4403103EB5202B1EB024F3A
:1021A00006D194F82C1000F07060B0EB016F01D0F4
:1021B0000120D1E70020CFE7043802400000474269
:1021C000800E4742007000400000FFFF10B5401E27
:1021D000B0F1807F01D3012010BD4FF0E024606199
:1021E0000F21601703F0E1FB0020A06107202061B0
:1021F000002010BD7047704770B590F83C20012A50
:1022000032D0012480F83C40022280F83D2003684F
:102210005A689D6822F070060A6832435A60134B70
:1022200002689A4214D0B2F1804F11D0104B9A42FA
:102230000ED0104B9A420BD00F4B9A4208D00F4B46
:102240009A4205D00E4B9A4202D00E4B9A4204D1CC
:10225000496825F080031943916080F83D400021D2
:1022600080F83C10084670BD022070BD000001409F
:102270000004004000080040000C00400004014041
:10228000004001400018004010B5040003D094F84D
:102290003D0010B107E0012010BD002084F83C0093
:1022A000204600F01FF8022084F83D00211D206820
:1022B00003F060F8012084F8460084F83E0084F8BA
:1022C0003F0084F8400084F8410084F8420084F81C
:1022D000430084F8440084F8450084F83D00002061
:1022E00010BD000008B500680B49884212D10B48A8
:1022F000016841F4003101600068002200F4003000
:10230000009011461920FFF78DFCBDE80840192008
:10231000FFF77ABC08BD0000004401404438024089
:1023200090F83D10012901D001207047022180F86A
:102330003D100168CA6842F00102CA600068114994
:10234000884214D0B0F1804F11D00F4988420ED08E
:102350000E4988420BD00E49884208D00D49884268
:1023600005D00D49884202D00C49884204D18168C9
:1023700001F00701062903D0016841F00101016065
:1023800000207047000001400004004000080040A9
:10239000000C0040000401400040014000180040D3
:1023A000704770B50446006801694FF00005C943E5
:1023B000890715D4C168C943890711D4E91E016191
:1023C00001202077206880698007204602D0FFF72F
:1023D000E7FF04E000F0C0F8204600F065F925773B
:1023E00020680169C943490717D4C168C94349072F
:1023F00013D46FF004010161022020772068806906
:1024000010F4407F204602D0FFF7CAFF04E000F03E
:10241000A3F8204600F048F9257720680169C943F0
:10242000090716D4C168C943090712D46FF008011F
:102430000161042020772068C0698007204602D00F
:10244000FFF7AEFF04E000F087F8204600F02CF91B
:10245000257720680169C943C90617D4C168C943F3
:10246000C90613D46FF0100101610820207720689D
:10247000C06910F4407F204602D0FFF791FF04E0CE
:1024800000F06AF8204600F00FF92577206801690E
:10249000C943C90708D1C168C943C90704D1891E06
:1024A0000161204600F066F920680169C943090608
:1024B00009D4C168C943090605D46FF080010161E0
:1024C0002046FFF797FE20680169C943490609D4F1
:1024D000C168C943490605D46FF040010161204637
:1024E00000F0EEF920680169C94389060BD4C16880
:1024F000C943890607D46FF0200101612046BDE879
:102500007040FFF778BE70BD10B586B00446142148
:102510006846FDF740FF0D492068884213D10C48FA
:102520000021026842F002020260006800F002002E
:10253000059002200090CDE90101CDE90310694624
:102540000448FEF795FE06B010BD000000040040F0
:102550003038024000040240704770B5044690F8DD
:102560003C0000260D4601280FD0012084F83C00D5
:102570006AB1042A1DD0082A2FD00C2A3FD0012688
:10258000002084F83C00304670BD022070BD2068F9
:1025900002F062FF2068816941F0080181612068D2
:1025A000816921F004018161206881692A691143F0
:1025B00011E0206802F080FF2068816941F4006129
:1025C00081612068816921F480618161206881696D
:1025D0002A6941EA02218161D2E7206802F0A2FF64
:1025E0002068C16941F00801C1612068C16921F01A
:1025F0000401C1612068C1692A69114311E02068A2
:1026000002F0C4FF2068C16941F40061C161206823
:10261000C16921F48061C1612068C1692A6941EA08
:102620000221C161ACE710B5040003D094F83D006D
:1026300010B107E0012010BD002084F83C002046C6
:1026400000F01EF8022084F83D00211D206802F0F1
:1026500091FE012084F8460084F83E0084F83F0093
:1026600084F8400084F8410084F8420084F8430074
:1026700084F8440084F8450084F83D00002010BD33
:1026800008B500680649884208D10648016841F04B
:1026900002010160006800F00200009008BD000027
:1026A00000040040403802407047000010B5044666
:1026B000022249B104290ED0082913D094F8410010
:1026C000012816D0012010BD94F83E000128F9D150
:1026D00084F83E200FE094F83F000128F2D184F8FE
:1026E0003F2008E094F840000128EBD184F8402016
:1026F00001E084F841200122206802F09FFE164983
:102700002068164A884201D0904203D1436C43F4BA
:10271000004343642068884213D0B0F1804F10D04A
:102720000F4988420DD00F4988420AD00E4988428D
:1027300007D0904205D00D49884202D00C4988420A
:1027400004D1816801F00701062903D0016841F036
:1027500001010160002010BD0000014000040140A3
:102760000004004000080040000C00400040014010
:10277000001800402DE9F041474988427ED1474C7E
:1027800094ED020ADFED460A20EE200ADFED450A4D
:1027900020EE200ADFED441A04F12005434880EEC4
:1027A000211AB0EE000A424E424A04F1400385ED80
:1027B000021A80ED380A80ED371AB16891ED031ADC
:1027C000B8EEC11A80ED3B1AD2ED1C1ABDEEC11A4B
:1027D000FDEEE11AC3ED021AB1F9027001EE907A32
:1027E000F8EEE11AC0ED361A0F8801EE907AF8EE95
:1027F000611AC0ED391AB1F9087001EE907AF8EE5D
:10280000E11AC0ED3A1A81ED031A94ED031ADFEDD7
:102810002A1A21EE211ADFED291A61EE200A20EE94
:10282000801AC1EE210AC5ED030A80ED3E0AC0ED13
:102830003D0AF16891ED030AB8EEC00A80ED410A45
:10284000D2ED1F0AFDEEE00AC3ED030AB1F9022042
:1028500000EE902AF8EEE00AC0ED3C0A0A8800EE8D
:10286000902AF8EE600AC0ED3F0AB1F9082000EEA8
:10287000902AF8EEE00AC0ED400A00E009E0BDEE63
:10288000C00A81ED030A01F019F9BDE8F04103F037
:1028900091B9BDE8F0810000D4040020B40200200A
:1028A0000070604500F8FF45007C83476409002004
:1028B00040070020B40A0020000010420000B4438A
:1028C0007047704710B500680549884207D101225A
:1028D0000449054800F0E6F904490020087010BDDD
:1028E00000480040140300201C05002000000020C8
:1028F000F8B5016804460868CA684B6910F00F0F04
:102900004FF0000559D003F0010602F490773743E9
:1029100065D0C10705D0D10503D5216C41F0010177
:102920002164410705D5D90703D0216C41F002018C
:102930002164810705D5D90703D0216C41F004013A
:102940002164010707D502F02001314303D0216C37
:1029500041F008012164216C00293AD0800604D599
:10296000900602D5204602F0E9FE20684069216CFD
:10297000C0F38010090700D460B3204602F0A9FE1E
:1029800020684069400621D52068143050E8001FB7
:1029900021F0400140E80012002AF5D1A06BA8B157
:1029A0006C490165A06BFEF7C7FA002811D0A06B37
:1029B000016D01B0BDE8F040084783060FD59306CE
:1029C0000DD52046BDE8F84002F0B8BE2046FFF71E
:1029D00079FFF8BD2046FFF775FF2564F8BD266B2B
:1029E0002023012E79D1C60677D5D60675D508687D
:1029F000486800904869400640D5A16B0868406867
:102A00000004000CEAD0A28D8242E7D9E085C869B3
:102A1000B0F5807F2DD020680C3050E8001F21F4E5
:102A2000807140E80012002AF5D12068143050E887
:102A3000001F21F0010140E80012002AF5D12068B2
:102A4000143050E8001F21F0400140E80012002A35
:102A5000F5D184F83E30256320680C3050E8001F23
:102A600021F0100140E80012002AF5D1A06BFEF71A
:102A70001AFAA08DE18D401A81B229E0A08DE18D76
:102A8000401A81B2E08D0028A8D00029A6D0206885
:102A90000C3050E8002F22F4907240E80026002EFF
:102AA000F5D12068143050E8002F22F0010240E8F0
:102AB0000026002EF5D184F83E30256320680C30C6
:102AC00050E8002F22F0100240E80023002BF5D13F
:102AD0002046FFF7F6FEF8BDFFE705062BD51506E5
:102AE00029D594F83D002128F5D1A068B0F5805F84
:102AF00001D12069B0B1206A411C216221680078AF
:102B00004860E08C401E0004000CE084E3D12068A3
:102B1000C16821F08001C1602068C16841F04001B6
:102B2000C160D8E7206A0088C0F308004860206AC6
:102B3000801C2062E5E74006CDD55006CBD5CA689B
:102B4000204622F04002CA6084F83D3000F0F5F8DB
:102B5000C1E70000DD55000870B5040004D094F80A
:102B60003D00002510B106E0012070BD84F83C5006
:102B7000204600F023F8242084F83D002068C16836
:102B800021F40051C160204602F038FE206801693E
:102B900021F4904101612068416921F02A014161DD
:102BA0002068C16841F40051C1602564202084F888
:102BB0003D0084F83E00002070BD00002DE9F0418A
:102BC00086B0064614216846FDF7E5FB30493068BB
:102BD000884259D12F480024016841F480210160C6
:102BE000006800F4802005902A481038016841F000
:102BF000020101600068694600F0020005904FF490
:102C0000406000900220CDE90104032003900720DA
:102C100004902148FEF72CFB214D20484FF000671F
:102C20002860C5E901744FF48068C5E903486C6108
:102C3000AC61EC612C6228466C62FEF765FA08B163
:102C4000FDF76BFDB563AE63154D1448603530304C
:102C5000E5E802074020A5E81101114845F81449AC
:102C60006030AC61EC612C626C62FEF74DFA08B129
:102C7000FDF753FD7563002211462720AE63FEF772
:102C8000D1FF2720FEF7C0FF06B0BDE8F0810000AD
:102C900000480040403802400004024028600240E2
:102CA0006005002090F83E30202B0ED159B152B172
:102CB00090F83C30012B08D0012380F83C300023F1
:102CC000036302F021BE012070470220704700001C
:102CD00070B50068144988421CD1144C144D2078FA
:102CE000AA2810D1287858B9FDF7BAFB1122611C27
:102CF0001048FFF7D7FF012028702078AA2802D1BA
:102D00002878012807D0012208490A48FFF7CAFF9E
:102D10000020287070BDFDF7A3FBBDE870401222B3
:102D200002490448FFF7BEBF0048004014030020DA
:102D3000000000201C05002070477047FEE70000DF
:102D40000148FEF795BB0000780300200148FEF71C
:102D5000ECBB00007803002038B5806B002190F8B0
:102D60003D202B4B46F2A8141B68B3FBF4F3C3EBD6
:102D7000C30303EB830300933BB15B1E0093036823
:102D80001B689B0505D5009BF6E7036C43F0200309
:102D90000364436B03B1D963836B03B1D9630368E5
:102DA0001C6824F480641C604185436B03B1196581
:102DB000836B03B1196503681C6824F001041C606F
:102DC00090F83D402023602C0BD0282434EA0202E6
:102DD0000FD080F83D3080F83E1000BFFEF7BDFCFC
:102DE00038BD80F83D3080F83E100164FEF73EFBB0
:102DF00038BD0268136843F001031360026813686A
:102E000043F480631360016380F83D40E6E700000F
:102E10002400002070B5846B0025616B01B1CD6387
:102E2000A16B01B1CD63FEF799F8022811D020689B
:102E3000016821F4806101606585202084F83D00EF
:102E400084F83E50206C40F0100020642046FEF7CD
:102E500084FC70BD2DE9F041846B94F83D2094F81A
:102E60003E50E16A2068436823F440734360636B1B
:102E7000002003B1D863A36B03B1D863212333EAE5
:102E800002074FF022060CD036EA020701D1202DAE
:102E900007D094F83E20002A21D0628D012A20D04C
:102EA00024E021684D6825F400654D606085282088
:102EB000292A02D02A2A07D00CE0236384F83D0097
:102EC0002046FEF746FE05E0266384F83D002046D6
:102ED000FEF73EFE2068416841F440714160BDE864
:102EE000F0812268136823F48063136022685368BA
:102EF00023F44073536011F5803F06D0082904D0B5
:102F0000B1F12A4F01D0202904D121680A6842F486
:102F100000720A6021684A6822F480524A6021687F
:102F20004A6822F400624A606085216C19B120462B
:102F3000FEF713FCD3E7202184F83D1094F83E10EF
:102F400084F83E00402905D0122020632046FEF779
:102F5000D0FCC4E720632046FEF77EFDBFE70000FB
:102F600070B5044690F83D0094F83E10102901D049
:102F7000402906D1222804D121680A6822F400627F
:102F80000A60282131EA00024FF000054FF02006C8
:102F900026D021684968090505D4602803D084F843
:102FA0003D6084F83E50256320684168090537D5A7
:102FB000416821F400614160606B90F835203C4924
:102FC000012A11D00165606BFDF7B6FF38B32068A8
:102FD000016821F00101016084F83D60606B1CE034
:102FE000256384F83D10DFE7A06B0165A06BFDF75A
:102FF000A3FFA0B120684169C943490605D400690F
:10300000616A0870606A401C60622068016821F093
:103010000101016084F83D60A06B016D884710E0FC
:1030200094F83D10602910D04169C943490605D480
:103030000069616A0870606A401C60622046FEF7A1
:103040008CFB206CC1071CD115E084F83D60256421
:103050004169C943490605D40069616A0870606A1C
:10306000401C60622068016821F001010160204677
:10307000FEF7FCF9E5E7810703D4410701D4000717
:1030800004D52068416821F4E061416094F83D0076
:10309000216C49070BD5282809D10648E062256331
:1030A00084F83D6084F83E502046FEF721FC70BD58
:1030B000592D00080000FFFF10B5C26A438D01685A
:1030C000042B06D0438D032B08D0438D022B1DD03B
:1030D00012E04A6822F480624A600CE04B6823F4F4
:1030E00080634B60042A06D0022A04D001680A6873
:1030F00022F480620A6001680969426A1170416ABB
:10310000491C4162418D491E418510BD012A30D0C4
:10311000102A2ED0042A30D0022A2ED00A6842F477
:1031200000720A6001680969426A1170416A491CAB
:103130004162428D521E4285026812690A70416ADC
:10314000491C4162418D491E418501684A6822F44B
:1031500040724A60202180F83D1090F83E20002106
:10316000402A80F83E100CD012210163FEF7C1FB0B
:1031700010BD0A6822F48062D3E70A6842F48062D4
:10318000CFE70163FEF768FC10BD000038B590F88A
:103190003D1022290FD1418D03290DD901680969FC
:1031A000426A1170416A491C4162418D491E418544
:1031B000418D032906D038BDC26A022A02D00129F6
:1031C00006D029B10068416821F48061416038BDB2
:1031D000274946F2A81300220968B1FBF3F101EB7D
:1031E0008101009101682023009C641E009422D07C
:1031F0000C68A405F8D40C6824F480640C600168A1
:103200004C6824F4E0644C6001680969446A2170E8
:10321000416A491C4162418D491E418580F83D301B
:1032200090F83E1080F83E2040291DD01221016305
:10323000FEF75FFB38BD046C44F0200404644C6866
:1032400024F4E0644C6001680969446A2170416AB1
:10325000491C4162418D491E418580F83D3080F80E
:103260003E20FEF77AFA38BD0263FEF7F5FB38BD63
:103270002400002010B5C26A90F83D1021290BD11E
:10328000418D51B1416A026809781161416A491C56
:103290004162418D491E418510BD20230021082A2D
:1032A00013D0202A11D012F5803F0ED00268546846
:1032B00024F4E06454601122026380F83E1080F828
:1032C0003D3000BFFEF716FB10BD0268546824F4C1
:1032D000E06454600268146844F40074146001638C
:1032E00080F83D3090F83E2080F83E10402AE9D129
:1032F000FEF7B3FB10BD000010B590F83D1090F83C
:103300003E30C26A048DB4B1212903D0402B11D1C3
:1033100022290FD1418DE1B390F83E10402942D0CF
:10332000416A026809781161416A491C4162418D14
:10333000491E418510BD2129E8D120230021082AFA
:1033400013D0202A11D012F5803F0ED002685468A5
:1033500024F4E06454601122026380F83E1080F887
:103360003D3000BFFEF7C6FA10BD0268546824F471
:10337000E06454600268146844F4007414600163EB
:1033800080F83D3090F83E2080F83E10402AE9D188
:1033900000E002E0FEF761FB10BD0068416821F427
:1033A0008061416010BDBDE8104000F0D3B800005E
:1033B00078B590F83E50C26A036B90F83D600024E7
:1033C0000168222E7AD1066D0EB9402D76D0056D9A
:1033D0001DB90569B5F5404F09D0458D05B3468D3A
:1033E000384D012E0ED0438D022B3AD05DE04A6954
:1033F0008A6900920A6842F480720A60016D491C71
:10340000016578BDAA4213D10A6822F480620A607D
:1034100001684A68120503D50A6822F4806216E042
:103420004A698A6900920A6842F400720A6039E0C7
:10343000082A10D0202A0ED0122B0AD0042A03D03A
:10344000022A01D0102AE7D10A6842F480620A6099
:1034500024E0012AE0D00A6822F480620A60016850
:10346000DEE7042A21D0022A1FD0102A1DD00B68C3
:1034700023F480630B6001680B6843F400630B6006
:1034800001684B681B0509D5AA4212D0012A10D049
:10349000082A0ED0102A0CD0202A0AD001684A69C6
:1034A00089690091046578BD08E00B6843F4806386
:1034B000E5E74A6842F480524A60EFE74869886964
:1034C0000090F0E70000FFFF90F83E10402910D078
:1034D0000169B1F5804F19D0016DA9B3016D0129C2
:1034E00010D1416C5FF0F10201F4407142EAD11158
:1034F00006E0016D0029416C05D0C9B241F001011F
:1035000000680161704701F0FE01F9E790F83D1095
:103510002129416C09D0C9B241F001010268116151
:10352000416B29B1C96B49B902E001F0FE01F5E731
:10353000816B0029E6D0C96B0029E3D0006841689F
:1035400041F4006141607047FFE7416CF02201F4F3
:103550004071CBE710B590F83D10026D22B3026DBB
:10356000012A2FD0026D022A1DD122292FD0428D8F
:103570000AB1212933D0428D002A14D1212912D138
:1035800001684A6822F4E0624A6001680A6842F40D
:1035900000720A6000210163202280F83D2080F83B
:1035A0003E10FEF75AFA10BDC16C0129816C02D0A1
:1035B000C1F3072108E00268C9B21161016D891CDD
:1035C000016510BD816CC9B20268116104E0016837
:1035D0000A6842F480720A60016D491CF0E7416A92
:1035E000026809781161416A491C4162418D491E96
:1035F000418510BD38B50C4690F83D2000212825A6
:10360000954302680B4605D051699169009180F895
:103610003C3038BD556825F480655560E243540759
:1036200000D50121120601D5828900E0028B80F8C5
:103630003C3092B2FDF71BFF38BD00002DE9F04190
:1036400090F83D40C26A002320261C4F01686FF4A9
:103650008065082A01D0202A01D1282C04D0212CF1
:1036600016D04D61BDE8F081C7624A6822F4E0627D
:103670004A6001684D6101680A6822F480620A604C
:10368000036380F83D6080F83E30FEF731F9E9E7EA
:10369000C7622122026380F83D6080F83E304A68AC
:1036A00022F4E0624A6001684D6101680A6822F410
:1036B00080620A60FEF74DFAD4E700000000FFFFC9
:1036C000F8B590F83D6004460068416821F4E06177
:1036D00041602068002541690091016841F00101C5
:1036E00001602068016821F4806101602068416800
:1036F000090520D5474F222E48D02A2E46D0616B8F
:10370000096849686185618D19B1216C41F0040136
:103710002164416821F400614160606BFDF720FC89
:10372000012808D0606B0765606BFDF705FC10B1E0
:10373000606B016D8847608D08B320684169C9439B
:10374000490708D40069616A0870606A401C6062B9
:10375000608D401E608520684169C943490608D4D0
:103760000069616A0870606A401C6062608D401E7A
:103770006085608D18B1206C40F004002064206CDE
:1037800000B32046BDE8F840FFF7EABBA16B09682B
:1037900049686185618D19B1216C41F00401216492
:1037A000416821F400614160A06BFDF7D9FB01285D
:1037B000C1D0A06B0765A06BFDF7BEFB0028BAD097
:1037C000A06BB6E72A2E06D12563282084F83D0099
:1037D0002046FEF7BDF994F83D10202028290DD091
:1037E000216B222901D0222E07D1256384F83D00C8
:1037F00084F83E502046FEF7ABF9F8BD0649E16279
:10380000256384F83D0084F83E502046FEF770F8AA
:10381000F8BD0000592D00080000FFFF0F4810B54B
:103820000D4901600321416000214FF400228160B5
:10383000C0E903124FF4401242610176417681766D
:10384000C17601774177FDF776F9002803D0BDE80E
:103850001040FCF762BF10BD006400402803002048
:103860000F4810B50D4901600321416000214FF45C
:1038700000228160C0E903124FF4401242610176D8
:1038800041768176C17601774177FDF754F90028BA
:1038900003D0BDE81040FCF740BF10BD00680040F9
:1038A00050030020154808B5016841F4001101607B
:1038B0000068002200F40010009011460B20FEF773
:1038C000B1F90B20FEF7A0F9002211460C20FEF7FB
:1038D000A9F90C20FEF798F9002211460E20FEF7F8
:1038E000A1F90E20FEF790F9002211461120FEF7F3
:1038F00099F9BDE808401120FEF786B9303802403A
:10390000114808B5016841F080010160016801F0CB
:1039100080010091016841F002010160016801F03D
:1039200002010091016841F001010160016801F0AC
:1039300001010091016841F008010160006800F098
:103940000800009008BD0000303802400E4810B555
:103950000C4901600D4941604FF4804181600021B4
:103960004FF44042C0E9031241618161C1610162CB
:10397000FDF7FAFE002803D0BDE81040FCF7CDBEED
:1039800010BD00000054004078030020801A06009B
:103990000B4810B509490160A721416000214FF48F
:1039A0007A72C0E9021201618161FEF76DFC0028A4
:1039B00003D0BDE81040FCF7B0BE10BD004401408C
:1039C000D404002010B58AB0002407941C21684656
:1039D0000894FCF7E0FC1748154901605321C0E941
:1039E000011444F61F61C0E903148461FEF71BFE55
:1039F00008B1FCF792FE079407A90E480894FEF759
:103A0000FBFB08B1FCF789FE6020009043F68C4078
:103A1000CDE901040C22694606480494FEF79DFD99
:103A200008B1FCF77AFE0348FEF76EFD0AB010BD40
:103A3000000400408C0400200C4810B50A490160C5
:103A40004FF4E1314160002181600C22C160C0E986
:103A500004128161C161FFF77FF8002803D0BDE83F
:103A60001040FCF75ABE10BD004800401C05002065
:103A7000FEE7FEE70F489FED100A80ED0D0A80ED8E
:103A8000140A80ED130A80ED120A80ED110A80ED10
:103A9000100A80ED0F0A80ED0E0A80ED0C0A80ED11
:103AA0000B0A80ED0A0A80ED090A80ED080A80ED14
:103AB000070A7047C0070020000000002DE9F0470A
:103AC000DFF808842DED0A8B404698ED020A90ED50
:103AD00000BABDEEC00A10EE101A90ED010ADFED3B
:103AE000FCAADFEDFC9A9FEDFC8A9FEDFCAA4FF04B
:103AF0008D46DFEDFB8AFB4F9FEDFB9ADFF8EC93E1
:103B0000A0F5D27400F5A875012902D0022932D19E
:103B100032E0D4ED3D1A30EE4B0A99ED691AF0EE21
:103B2000610AD9ED852A51EE000A20EE8A2AD4EDE9
:103B30003E0AB0EE601A02EE801A31EE021A11EE61
:103B4000101AB14202DDC5ED008A08E011EE101A2C
:103B5000B94202D985ED009A01E085ED001A42EEE6
:103B6000291AC4ED3D1A99ED771A21EE000A40EEAC
:103B7000290AC4ED3E0A8FE0D8ED030AD8ED051AF4
:103B80004846B0EE601A01EEAA1A70EE41BA99EDFD
:103B90005B1AB0EEEB0AB4EEC01AF1EE10FA01DBDC
:103BA000F0EE48BAD4ED3A1A90ED072AB4EEC01AF6
:103BB00052EE2B1A21EE8ACAF1EE10FA19D294EDC8
:103BC000390A90ED231A01EE2B0A30EE0C0A10EEA2
:103BD000102AB24202DDB0EE680A05E010EE102AAB
:103BE000BA4201D9B0EE490A90ED931A11EE00BA2B
:103BF00001E0B0EE48BA94ED3B0A90ED311A11EEB7
:103C00000B0A99ED4D1A60EE0ACA94ED3C0A01EEDA
:103C10000B0A30EE2C0A10EE100AB04202DDC5EDA0
:103C2000018A08E010EE100AB84202D985ED019A27
:103C300001E085ED010A98ED040AAD4930EEC00AB5
:103C400001F12800FCF7BCFC94ED0D0AD8ED050A43
:103C500030EE200A85ED020AD9ED150A94ED390AF5
:103C600060EEAB0A00EEA90A84ED390A94ED3A0A37
:103C70000CEE290A84ED3A0A94ED3B0A0CEEA90AEF
:103C800084ED3B0AD9ED3F0A94ED3C0A60EE8B0AC5
:103C900000EEA90A84ED3C0A98ED080ABDEEC00AC0
:103CA00010EE100A012802D0022836D136E098ED35
:103CB000070AD8ED060AD9ED621AD9ED7E2A30EE50
:103CC000601A94ED670AF0EE400A51EE810A20EE88
:103CD0008A2AD4ED680AF0EE601A42EE811A71EE7B
:103CE000821A11EE901AB14202DDC5ED038A08E096
:103CF00011EE901AB94202D985ED039A01E0C5EDA3
:103D0000031A02EE290A84ED670A99ED700A20EE83
:103D1000010A40EE290AC4ED680A95E0D8ED090AC7
:103D200098ED0B1A4146B0EE600A484601EE2A0AA9
:103D300098ED071A31EE40BA99ED541AB0EECB0A5D
:103D4000B4EEC01AF1EE10FA01DBB0EE48BAD4EDD1
:103D5000641A90ED002AB4EEC01A52EE0B1A21EE4E
:103D60008ACAF1EE10FA1BD294ED630A90ED1C1A88
:103D700001EE0B0A30EE0C0A10EE102AB24202DD00
:103D8000B0EE680A05E010EE102ABA4201D9B0EE92
:103D9000490AD1ED06BA90ED8C1A51EE00BA01E055
:103DA000F0EE48BA94ED650A90ED2A1A11EE2B0A4E
:103DB00099ED461A60EE0ACA94ED660A01EE2B0AE6
:103DC00030EE2C0A10EE100AB04202DDC5ED048A76
:103DD00008E010EE100AB84202D985ED049A01E01D
:103DE00085ED040A98ED0A0A41490E3130EEC00A09
:103DF00001F13600FCF7E4FB94ED140AD8ED0B0A50
:103E000030EE200A85ED050AD9ED0E0A94ED630A1D
:103E100060EE8B0A00EEA90A84ED630A94ED640A51
:103E20000CEE290A84ED640A94ED650A0CEEA90AE9
:103E300084ED650AD9ED380A94ED660A60EEAB0AA6
:103E400000EEA90A84ED660A98ED0E0ABDEEC00ADE
:103E500010EE100A012802D0022836D14AE098ED6F
:103E60000D0AD8ED0C0A94ED611AD9ED631A70EEC3
:103E7000600AB0EE410AD9ED7F2A11EEA00AD4ED16
:103E8000621A20EE0A2AB0EE610A02EEA00A30EEB3
:103E9000020A10EE101AB14202DDC5ED068A08E0F2
:103EA00010EE101AB94202D985ED069A01E085EDAF
:103EB000060A02EE291A84ED611A99ED710A20EEC4
:103EC000200A40EE291AC4ED621AA8E06409002015
:103ED00000F8FF456F12833A000000000000C8425E
:103EE00000008046000080C6000080C64C00002014
:103EF000CC070020D8ED0F0A98ED111A4146B0EE1C
:103F0000600A484601EE2A0A98ED0D1A31EE40BAD1
:103F100099ED551AB0EECB0AB4EEC01AF1EE10FAD4
:103F200001DBB0EE48BAD4ED5E1A90ED012AB4EE92
:103F3000C01A52EE0B1A21EE8ACAF1EE10FA1BD209
:103F400094ED5D0A90ED1D1A01EE0B0A30EE0C0A9D
:103F500010EE102AB24202DDB0EE680A05E010EE63
:103F6000102ABA4201D9B0EE490AD1ED0CBA90ED4F
:103F70008D1A51EE00BA01E0F0EE48BA94ED5F0AF6
:103F800090ED2B1A11EE2B0A99ED471A60EE0ACA32
:103F900094ED600A01EE2B0A30EE2C0A10EE100AA6
:103FA000B04202DDC5ED078A08E010EE100AB84203
:103FB00002D985ED079A01E085ED070A98ED100A10
:103FC000FF4930EEC00A01F13400FCF7F9FA94ED34
:103FD000130AD8ED110A30EE200A85ED080AD9ED52
:103FE0000F0A94ED5D0A60EE8B0A00EEA90A84EDDB
:103FF0005D0A94ED5E0A0CEE290A84ED5E0A94EDEA
:104000005F0A0CEEA90A84ED5F0AD9ED390A94ED36
:10401000600A60EEAB0A00EEA90A84ED600A98ED32
:10402000140ABDEEC00A10EE100A012802D00228C0
:1040300036D136E098ED130AD8ED120AD9ED641A9C
:10404000D9ED802A30EE601A94ED5B0AF0EE400A5A
:1040500051EE810AD4ED5C1A20EE8A2AF0EE610A54
:1040600042EE810A70EE820A10EE900AB04202DD42
:10407000C5ED098A08E010EE900AB84202D985ED34
:10408000099A01E0C5ED090A02EE290A84ED5B0AEE
:1040900099ED720A20EE010A40EE291AC4ED5C1A6D
:1040A00095E0D8ED150A98ED171A4146B0EE600A72
:1040B000484601EE2A0A98ED131A31EE40BA99EDFE
:1040C000561AB0EECB0AB4EEC01AF1EE10FA01DBCC
:1040D000B0EE48BAD4ED581A90ED022AB4EEC01AE8
:1040E00052EE0B1A21EE8ACAF1EE10FA1BD294EDB1
:1040F000570A90ED1E1A01EE0B0A30EE0C0A10EE74
:10410000102AB24202DDB0EE680A05E010EE102A75
:10411000BA4201D9B0EE490AD1ED12BA90ED8E1A29
:1041200051EE00BA01E0F0EE48BA94ED590A90ED74
:104130002C1A11EE2B0A99ED481A60EE0ACA94ED7A
:104140005A0A01EE2B0A30EE2C0A10EE100AB04289
:1041500002DDC5ED0A8A08E010EE100AB84202D965
:1041600085ED0A9A01E085ED0A0A98ED160A944950
:10417000891E30EEC00A01F13200FCF721FA94EDFD
:10418000120AD8ED170A30EE200A85ED0B0AD9ED98
:10419000100A94ED570A60EE8B0A00EEA90A84ED2E
:1041A000570A94ED580A0CEE290A84ED580A94ED4A
:1041B000590A0CEEA90A84ED590AD9ED3A0A94ED90
:1041C0005A0A60EEAB0A00EEA90A84ED5A0A98ED8D
:1041D0001A0ABDEEC00A10EE100A012802D0022809
:1041E00036D136E098ED190AD8ED180A99ED651A1E
:1041F000D9ED812A70EE601A94ED550AF0EE400A6E
:1042000051EE210A20EE8A2AD4ED560AB0EE601A49
:1042100002EEA11A31EE021A11EE100AB04202DDCE
:10422000C5ED0C8A08E011EE100AB84202D985EDFE
:104230000C9A01E085ED0C1A02EE290A84ED550A6C
:1042400099ED730A20EE210A40EE290AC4ED560AC0
:1042500095E0D8ED1B0A98ED1D1A4146B0EE600AB4
:10426000484601EE2A0A98ED191A31EE40BA99ED46
:10427000571AB0EECB0AB4EEC01AF1EE10FA01DB19
:10428000B0EE48BAD4ED521A90ED032AB4EEC01A3B
:1042900052EE0B1A21EE8ACAF1EE10FA1BD294EDFF
:1042A000510A90ED1F1A01EE0B0A30EE0C0A10EEC7
:1042B000102AB24202DDB0EE680A05E010EE102AC4
:1042C000BA4201D9B0EE490AD1ED18BA90ED8F1A71
:1042D00051EE00BA01E0F0EE48BA94ED530A90EDC9
:1042E0002D1A11EE2B0A99ED491A60EE0ACA94EDC7
:1042F000540A01EE2B0A30EE2C0A10EE100AB042DE
:1043000002DDC5ED0D8A08E010EE100AB84202D9B0
:1043100085ED0D9A01E085ED0D0A98ED1C0A2849FE
:10432000091F30EEC00A01F13000FCF749F994EDA5
:10433000110AD8ED1D0A30EE200A85ED0E0AD9EDDE
:10434000110A94ED510A60EE8B0A00EEA90A84ED81
:10435000510A94ED520A0CEE290A84ED520A94EDAA
:10436000530A0CEEA90A84ED530AD9ED3B0A94EDE9
:10437000540A60EEAB0A00EEA90A84ED540A98EDE7
:10438000200ABDEEC00A10EE100A012802D0022851
:104390003AD13AE098ED1F0AD8ED1E0A99ED661A57
:1043A00094ED502A70EE601AD4ED4F0AD9ED822AAE
:1043B000B0EE600A11EE210A20EE0A1A02E00000B7
:1043C000D8070020B0EE420A02EEA10A30EE010A40
:1043D00010EE100AB04202DDC5ED0F8A08E010EEC3
:1043E000100AB84202D985ED0F9A01E085ED0F0A57
:1043F00041EE290AC4ED4F0A99ED740A20EE210A14
:1044000000EE292A84ED502A94E0D8ED210A98ED97
:10441000231A4146B0EE600A484601EE2A0A98ED9A
:104420001F1A31EE40BA99ED581AB0EECB0AB4EE2D
:10443000C01AF1EE10FA01DBB0EE48BAD4ED4C1A16
:1044400090ED042AB4EEC01A52EE0B1A61EE8ACA3D
:10445000F1EE10FA1BD294ED4B0A90ED201A01EE0A
:104460000B0A30EE2C0A10EE102AB24202DDB0EE3A
:10447000680A05E010EE102ABA4201D9B0EE490AE6
:10448000D1ED1EBA90ED901A51EE00BA01E0F0EEB7
:1044900048BA94ED4D0A90ED2E1A11EE2B0A99EDC3
:1044A0004A1A20EE0ACA94ED4E0A01EE2B0A30EEAB
:1044B0000C0A10EE100AB04202DDC5ED108A08E0C9
:1044C00010EE100AB84202D985ED109A01E085ED90
:1044D000100A98ED220AFF4930EEC00A01F12E00C1
:1044E000FCF76EF894ED100AD8ED230A30EE200A9E
:1044F00085ED110AD9ED120A94ED4B0A60EE8B0A94
:1045000000EEA90A84ED4B0A94ED4C0A0CEEA90AC0
:1045100084ED4C0A94ED4D0A0CEE290A84ED4D0A07
:10452000D9ED3C0A94ED4E0A60EEAB0A00EEA90A02
:1045300084ED4E0A98ED260ABDEEC00A10EE100A70
:10454000012802D0022836D136E098ED250AD8EDB0
:10455000240A99ED671AD9ED832A70EE601AD4ED1A
:10456000490AB0EE600A11EE210A20EE0A2A94ED03
:104570004A0AB0EE401A02EEA11A31EE021A11EE0A
:10458000101AB14202DDC5ED128A08E011EE101AD0
:10459000B94202D985ED129A01E085ED121A42EE78
:1045A000290AC4ED490AD9ED750A60EEA10A00EEA8
:1045B000A90A84ED4A0A95E0D8ED270A98ED291A50
:1045C0004146B0EE600A484601EE2A0A98ED251AE7
:1045D00031EE40BA99ED591AB0EECB0AB4EEC01ADA
:1045E000F1EE10FA01DBB0EE48BAD4ED461A90EDC8
:1045F000052AB4EEC01A52EE0B1A21EE8ACAF1EE69
:1046000010FA1BD294ED450A90ED211A01EE0B0A27
:1046100030EE0C0A10EE102AB24202DDB0EE680A4B
:1046200005E010EE102ABA4201D9B0EE490AD1EDE8
:1046300024BA90ED911A51EE00BA01E0F0EE48BABA
:1046400094ED470A90ED2F1A11EE2B0A99ED4B1AB3
:1046500060EE0ACA94ED480A01EE2B0A30EE2C0AED
:1046600010EE100AB04202DDC5ED138A08E010EE2C
:10467000100AB84202D985ED139A01E085ED130ABC
:1046800098ED280A9349891E30EEC00A01F12C00EA
:10469000FBF796FF94ED0F0AD8ED290A30EE200AB9
:1046A00085ED140AD9ED130A94ED450A60EE8B0AE4
:1046B00000EEA90A84ED450A94ED460A0CEE290A9B
:1046C00084ED460A94ED470A0CEEA90A84ED470AE8
:1046D000D9ED3D0A94ED480A60EEAB0A00EEA90A56
:1046E00084ED480A98ED2C0ABDEEC00A10EE100ABF
:1046F000012802D0022836D136E098ED2B0AD8EDF9
:104700002A0AD9ED681AD9ED842A30EE601A94EDA0
:10471000430AF0EE400A51EE810AD4ED441A20EE2D
:104720008A2AF0EE610A42EE810A70EE820A10EEE9
:10473000901AB14202DDC5ED158A08E010EE901A1C
:10474000B94202D985ED159A01E0C5ED150A02EED0
:10475000290A84ED430A99ED760A20EE010A40EE1B
:10476000291AC4ED441A95E0D8ED2D0A98ED2F1AB8
:104770004146B0EE600A484601EE2A0A98ED2B1A2F
:1047800031EE40BA99ED5A1AB0EECB0AB4EEC01A27
:10479000F1EE10FA01DBB0EE48BAD4ED401A90ED1C
:1047A000062AB4EEC01A52EE0B1A61EE8ACAF1EE76
:1047B00010FA1BD294ED3F0A90ED221A01EE0B0A7B
:1047C00030EE2C0A10EE102AB24202DDB0EE680A7A
:1047D00005E010EE102ABA4201D9B0EE490AD1ED37
:1047E0002ABA90ED921A51EE00BA01E0F0EE48BA02
:1047F00094ED410A90ED301A11EE2B0A99ED4C1A06
:1048000020EE0ACA94ED420A01EE2B0A30EE0C0AA1
:1048100010EE100AB04202DDC5ED168A08E010EE77
:10482000100AB84202D985ED169A01E085ED160A04
:1048300098ED2E0A2749091F30EEC00A01F12A001F
:10484000FBF7BEFE94ED0E0AD8ED2F0A30EE200ADB
:1048500085ED170AD9ED140A94ED3F0A60EE8B0A34
:1048600000EEA90A84ED3F0A94ED400A0CEEA90A75
:1048700084ED400A94ED410A0CEE290A84ED410AC8
:10488000D9ED3E0A94ED420A60EEAB0A00EEA90AA9
:1048900084ED420A98ED320ABDEEC00A10EE100A0D
:1048A000012802D0022839D139E098ED310AD8ED3B
:1048B000300AD9ED6A1AD9ED862A30EE601AD4EDA5
:1048C000370AB0EE600A11EE810AD4ED381A20EEF4
:1048D0000A2A01E0D2070020B0EE610A02EE810A46
:1048E00030EE020A10EE101AB14202DDC5ED188A50
:1048F00008E010EE101AB94202D985ED189A01E0CD
:1049000085ED180A42EE290AC4ED370A99ED780AB6
:1049100020EE010A40EE291AC4ED381A94E0D8EDD1
:10492000330A98ED351A4146B0EE600A484601EE6A
:104930002A0A98ED311A31EE40BA99ED5C1AB0EEC0
:10494000CB0AB4EEC01AF1EE10FA01DBB0EE48BAB1
:10495000D4ED341A90ED082AB4EEC01A52EE0B1AB8
:1049600021EE8ACAF1EE10FA1BD294ED330A90EDD3
:10497000241A01EE0B0A30EE0C0A10EE102AB24295
:1049800002DDB0EE680A05E010EE102ABA4201D945
:10499000B0EE490AD1ED30BA90ED941A51EE00BA5A
:1049A00001E0F0EE48BA94ED350A90ED321A11EEBE
:1049B0002B0A99ED4E1A60EE0ACA94ED360A01EE02
:1049C0002B0A30EE2C0A10EE100AB04202DDC5EDC3
:1049D000198A08E010EE100AB84202D985ED199A3A
:1049E00001E085ED190A98ED340AFF4930EEC00A5E
:1049F00001F12600FBF7E4FD94ED0C0AD8ED350A31
:104A000030EE200A85ED1A0AD9ED160A94ED330A24
:104A100060EE8B0A00EEA90A84ED330A94ED340AA5
:104A20000CEE290A84ED340A94ED350A0CEEA90A3D
:104A300084ED350AD9ED400A94ED360A60EEAB0AF2
:104A400000EEA90A84ED360A98ED380ABDEEC00AD8
:104A500010EE100A012802D0022836D136E098ED77
:104A6000370AD8ED360AD9ED6B1AD9ED872A30EE20
:104A7000601A94ED310AF0EE400A51EE810AD4ED4D
:104A8000321A20EE8A2AF0EE610A42EE810A70EEB6
:104A9000820A10EE901AB14202DDC5ED1B8A08E0D1
:104AA00010EE901AB94202D985ED1B9A01E0C5EDCE
:104AB0001B0A02EE290A84ED310A99ED790A20EEEB
:104AC000010A40EE291AC4ED321A95E0D8ED390AF0
:104AD00098ED3B1A4146B0EE600A484601EE2A0ABC
:104AE00098ED371A31EE40BA99ED5D1AB0EECB0A67
:104AF000B4EEC01AF1EE10FA01DBB0EE48BAD4ED14
:104B00002E1A90ED092AB4EEC01A52EE0B1A21EEBD
:104B10008ACAF1EE10FA1BD294ED2D0A90ED251AF7
:104B200001EE0B0A30EE0C0A10EE102AB24202DD42
:104B3000B0EE680A05E010EE102ABA4201D9B0EED4
:104B4000490AD1ED36BA90ED951A51EE00BA01E05E
:104B5000F0EE48BA94ED2F0A90ED331A11EE2B0ABD
:104B600099ED4F1A60EE0ACA94ED300A01EE2B0A55
:104B700030EE2C0A10EE100AB04202DDC5ED1C8AA0
:104B800008E010EE100AB84202D985ED1C9A01E047
:104B900085ED1C0A98ED3A0A9349891E30EEC00A49
:104BA00001F12400FBF70CFD94ED0B0AD8ED3B0A54
:104BB00030EE200A85ED1D0AD9ED170A94ED2D0A75
:104BC00060EE8B0A00EEA90A84ED2D0A94ED2E0A00
:104BD0000CEE290A84ED2E0A94ED2F0A0CEEA90A98
:104BE00084ED2F0AD9ED410A94ED300A60EEAB0A4C
:104BF00000EEA90A84ED300A98ED3E0ABDEEC00A27
:104C000010EE100A012802D0022836D136E098EDC5
:104C10003D0AD8ED3C0AD9ED6C1AD9ED882A70EE20
:104C2000600A94ED2B0AB0EE401A11EEA01AD4EDF2
:104C30002C1A21EE0A2AB0EE611A02EEA01A31EE09
:104C4000021A11EE101AB14202DDC5ED1E8A08E00B
:104C500011EE101AB94202D985ED1E9A01E085EDD8
:104C60001E1A02EE290A84ED2B0A99ED7A0A20EE2B
:104C7000200A40EE291AC4ED2C1A94E0D8ED3F0A20
:104C800098ED411A4146B0EE600A484601EE2A0A04
:104C900098ED3D1A31EE40BA99ED5E1AB0EECB0AAE
:104CA000B4EEC01AF1EE10FA01DBB0EE48BAD4ED62
:104CB000281A90ED0A2AB4EEC01A52EE0B1A21EE11
:104CC0008ACAF1EE10FA1BD294ED270A90ED261A4B
:104CD00001EE0B0A30EE0C0A10EE102AB24202DD91
:104CE000B0EE680A05E010EE102ABA4201D9B0EE23
:104CF000490AD1ED3CBA90ED961A51EE00BA01E0A6
:104D0000F0EE48BA94ED290A90ED341A11EE2B0A10
:104D100099ED501A60EE0ACA94ED2A0A01EE2B0AA8
:104D200030EE2C0A10EE100AB04202DDC5ED1F8AEB
:104D300008E010EE100AB84202D985ED1F9A01E092
:104D400085ED1F0A98ED400A2748A11D30EEC00AE4
:104D50001E30FBF735FC94ED0A0AD8ED410A30EE1F
:104D6000200A85ED200AD9ED180A94ED270A60EE95
:104D70008B0A00EEA90A84ED270A94ED280A0CEEAE
:104D8000290A84ED280A94ED290A0CEEA90A84ED7B
:104D9000290AD9ED420A94ED2A0A60EEAB0A00EE28
:104DA000A90A84ED2A0A98ED440ABDEEC00A10EE65
:104DB000100A012802D002283AD13AE098ED430ABD
:104DC000D8ED420A99ED6D1AD9ED892A70EE601A74
:104DD000D4ED250AB0EE600A11EE210A20EE0A2A6F
:104DE00094ED260A02E00000CA070020B0EE401A47
:104DF00002EEA11A31EE021A11EE101AB14202DDD2
:104E0000C5ED218A08E011EE101AB94202D985EDEC
:104E1000219A01E085ED211A42EE290AC4ED250A06
:104E2000D9ED7B0A60EEA10A00EEA90A84ED260AFC
:104E300093E0D8ED450A98ED471A4146B0EE600A76
:104E4000484601EE2A0A98ED431A31EE40BA99ED30
:104E50005F1AB0EECB0AB4EEC01AF1EE10FA01DB25
:104E6000B0EE48BAD4ED221A90ED0B2AB4EEC01A77
:104E700052EE0B1A21EE8ACAF1EE10FA1BD294ED13
:104E8000210A90ED271A01EE0B0A30EE0C0A10EE03
:104E9000102AB24202DDB0EE680A05E010EE102AD8
:104EA000BA4201D9B0EE490AD1ED42BA90ED971A53
:104EB00051EE00BA01E0F0EE48BA94ED230A90ED0D
:104EC000351A11EE2B0A99ED511A60EE0ACA94EDCB
:104ED000240A01EE2B0A30EE2C0A10EE100AB04222
:104EE00002DDC5ED228A08E010EE100AB84202D9B0
:104EF00085ED229A01E085ED220A98ED460A211DF2
:104F0000ED4830EEC00AFBF75BFB94ED090AD8EDE3
:104F1000470A30EE200A85ED230AD9ED190A94EDEF
:104F2000210A60EE8B0A00EEA90A84ED210A94EDB5
:104F3000220A0CEE290A84ED220A94ED230A0CEED3
:104F4000A90A84ED230AD9ED430A94ED240A60EE00
:104F5000AB0A00EEA90A84ED240A98ED4A0ABDEED8
:104F6000C00A10EE100A012802D0022836D136E01D
:104F700098ED490AD8ED480AD4ED1F1A99ED6E1A3A
:104F800030EE600AF0EE610AD9ED8A2A51EE000A8D
:104F900094ED201A20EE8A2AF0EE410A42EE800AB1
:104FA00070EE820A10EE901AB14202DDC5ED248A3D
:104FB00008E010EE901AB94202D985ED249A01E07A
:104FC000C5ED240A42EE291AC4ED1F1AD9ED7C0A58
:104FD00020EE800A00EE291A84ED201A94E0D8ED24
:104FE0004B0A98ED4D1A4146B0EE600A484601EE74
:104FF0002A0A98ED491A31EE40BA99ED601AB0EEDE
:10500000CB0AB4EEC01AF1EE10FA01DBB0EE48BAEA
:10501000D4ED1C1A90ED0C2AB4EEC01A52EE0B1A05
:1050200021EE8ACAF1EE10FA1BD294ED1B0A90ED24
:10503000281A01EE0B0A30EE0C0A10EE102AB242CA
:1050400002DDB0EE680A05E010EE102ABA4201D97E
:10505000B0EE490AD1ED48BA90ED981A51EE00BA77
:1050600001E0F0EE48BA94ED1D0A90ED361A11EE0B
:105070002B0A99ED521A60EE0ACA94ED1E0A01EE4F
:105080002B0A30EE2C0A10EE100AB04202DDC5EDFC
:10509000258A08E010EE100AB84202D985ED259A5B
:1050A00001E085ED250A98ED4C0A8348A11C30EEFD
:1050B000C00A001FFBF784FA94ED080AD8ED4D0AE8
:1050C00030EE200A85ED260AD9ED1A0A94ED1B0A66
:1050D00060EE8B0A00EEA90A84ED1B0A94ED1C0A0F
:1050E0000CEE290A84ED1C0A94ED1D0A0CEEA90AA7
:1050F00084ED1D0AD9ED440A94ED1E0A60EEAB0A58
:1051000000EEA90A84ED1E0A98ED500ABDEEC00A11
:1051100010EE100A012835D0022869D1D8ED510AC5
:1051200098ED531A4846B0EE600A01EE2A0A98ED4F
:105130004F1A71EE40AA99ED611AB0EEEA0AB4EE88
:10514000C01AF1EE10FA01DBF0EE48AAD4ED161AFF
:1051500090ED0D2AB4EEC01A52EE2A1A21EE8ABA48
:10516000F1EE10FA54D294ED150A90ED291A01EEE1
:105170002A0A30EE0B0A10EE101AB1423CDDB0EEF6
:10518000680A3FE098ED4F0AD8ED4E0A94ED191ADF
:10519000D9ED6F1A30EE600AF0EE410AD9ED8B2A94
:1051A00051EE800AD4ED1A1A20EE8A2AF0EE610A36
:1051B00042EE800A70EE820A10EE901AB14202DDD1
:1051C000C5ED278A08E010EE901AB94202D985EDA4
:1051D000279A01E0C5ED270A02EE291A84ED191A73
:1051E000D9ED7D0A20EE800A40EE291AC4ED1A1A84
:1051F000BDEC0A8BBDE8F08710EE101AB94201D958
:10520000B0EE490A98ED4E8A90ED991A11EE008A97
:1052100094ED170A90ED371A11EE080A99ED531A1A
:1052200020EE0AAA94ED180A01EE080A30EE0A0AE6
:1052300010EE100AB04202DDC5ED288A08E010EE3B
:10524000100AB84202D985ED289A01E085ED280AB6
:1052500098ED520A1849243930EEC00A01F11C00B9
:10526000FBF7AEF994ED070AD8ED530A30EE200AA9
:1052700085ED290AD9ED1B0A94ED150A60EEAA0AFC
:1052800000EEA90A84ED150A94ED160A0BEE290A20
:1052900084ED160A94ED170A0AEE290A84ED170A1E
:1052A000D9ED450A94ED180A60EE880A00EEA90AC5
:1052B00084ED180A9CE70000E4070020704770475F
:1052C000FCF748BC30B593B030216846FBF763F873
:1052D00014210CA8FBF75FF81D480025016841F078
:1052E00080510160006800F08050119019480168F9
:1052F00041F4804101600068022400F48040119074
:105300000120039010200490009406940820CDE919
:105310000750A820CDE9090404200B906846FCF74B
:105320009FFD08B172B6FEE70CA90F2081E831009D
:105330004FF4A0500F904FF48050109005210CA80E
:10534000FCF7A2FC002801D072B6FEE713B030BD16
:1053500040380240007000400248016841F470018A
:105360000160704788ED00E00148FDF71AB80000C1
:10537000D4040020F0B50268254C264D264E274F58
:10538000274B4FF0804CA04209D0604507D0A8427F
:1053900005D0B04203D0B84201D0984204D122F0E7
:1053A000700E4A6842EA0E02A0421BD0604519D036
:1053B000A84217D0B04215D0B84213D0984211D0AD
:1053C000184DA8420ED0184DA8420BD0174DA84238
:1053D00008D0174DA84205D0164DA84202D0164D50
:1053E000A84203D122F44075CA682A434D6922F0CD
:1053F00080022A4302608A68C2620A688262A0420E
:1054000001D0984201D10969016301214161F0BDD8
:10541000000001400004004000080040000C004073
:1054200000040140004001400044014000480140A8
:1054300000180040001C00400020004010B501F0A2
:105440001F030121046A99408C430462016A9A4057
:105450001143016210BD0000F0B5026A22F00102A2
:105460000262036A42688469124E24F073050C6874
:105470002C4323F002058B682B430D4DA84201D02D
:10548000B04205D123F00807CB683B4323F0040367
:10549000A84201D0B04205D14D6922F440721543B3
:1054A0008A692A4342608461496841630362F0BDAE
:1054B0000000014000040140F0B5026A22F0100231
:1054C0000262026A436884690D6824F4E64444EA8F
:1054D00005248D6822F0200242EA05120F4D104E7D
:1054E000A84201D0B04206D1CF6822F0800242EA41
:1054F000071222F04002A84201D0B04207D14D6904
:1055000023F4406343EA85038D6943EA85034360DE
:105510008461496881630262F0BD000000000140BF
:1055200000040140F0B5026A22F480720262026A4D
:105530004368C46922F4007224F073050C68124EAB
:105540002C438D6842EA05220E4DA84201D0B0429C
:1055500006D1CF6822F4006242EA072222F4806278
:10556000A84201D0B04207D14D6923F4405343EA29
:1055700005138D6943EA05134360C4614968C1633B
:105580000262F0BD000001400004014030B5026A33
:1055900022F480520262046A4268C3690D6823F4EF
:1055A000E64343EA05238D6824F4005444EA0534B5
:1055B000084DA84202D0084DA84204D14D6922F4FA
:1055C000804242EA85124260C36149680164046214
:1055D00030BD0000000001400004014010B5806BA8
:1055E0000021C185C184FDF76DF910BD70B5846BD4
:1055F0002068406994F83D10C0F3C01000252129AF
:1056000004D118B1E584204600F08AF8206840698A
:1056100094F83E10C0F38010222904D118B1E5851A
:10562000204600F056F8206C40F010002064204620
:10563000FDF748F970BD10B50146806B096809682F
:10564000C9052FD40021C18501680C3151E8002F14
:1056500022F4807241E80023002BF5D10168143157
:1056600051E8002F22F0010241E80023002BF5D180
:105670000168143151E8002F22F0400241E8002374
:10568000002BF5D1202180F83E10016B012909D1B2
:1056900001680C3151E8002F22F0100241E800238C
:1056A000002BF5D1016B012902D0FDF711FB10BDD4
:1056B000818DFDF706F910BD10B5806B016B0129D6
:1056C00002D0FDF739FB10BD818D4908FDF7F9F8CF
:1056D00010BD01680C3151E8002F22F4907241E8AE
:1056E0000023002BF5D10168143151E8002F22F07E
:1056F000010241E80023002BF5D1016B012909D1FA
:1057000001680C3151E8002F22F0100241E800231B
:10571000002BF5D1202180F83E1000210163704755
:1057200001680C3151E8002F22F0C00241E800234B
:10573000002BF5D1202180F83D10704708B590F876
:105740003E10222901D0022008BD82684FF4805308
:105750009A4201D1016921B1816A9A421BD04AB1B2
:105760000AE00268816A5268C2F308020A80816A0C
:10577000891C08E0026972B10268526802F07F0277
:105780000A70816A491C8162C18D491E0904090C95
:10579000C18503D019E002685268F1E70168CA6860
:1057A00022F02002CA600168CA6822F48072CA60CE
:1057B00001684A6922F001024A61202180F83E1006
:1057C000016B012903D0FDF783FA002008BD0021F9
:1057D000016301680C3151E8002F22F0100241E80A
:1057E0000023002BF5D101680A68D20602D50A68A9
:1057F00049680091818DFDF764F8E6E770B50446CD
:1058000000680169E26821F4405111430161216996
:10581000A068E26908436169114308432168CA68C6
:1058200049F20C639A430243CA6020684169A26945
:1058300021F440711143416131492068884202D00E
:105840003049884202D1FCF7C9FA01E0FCF7B6FA08
:10585000E2690023192164253226B2F5004F6268FF
:1058600028D0A0FB0101930F9200FAF71DFD01461D
:10587000B0FBF5F06FF01802504301EB800006EB2F
:105880000010B0FBF5F000F0F002B1FBF5F002EB18
:105890000012B1FBF5F06FF01803584301EB8000E4
:1058A00006EB0010B0FBF5F000F00F00216810448B
:1058B000886070BDA0FB010192185B41FAF7F4FC0F
:1058C0000146B0FBF5F00201B1FBF5F06FF01803F3
:1058D000584301EB800006EBC000B0FBF5F000F090
:1058E000F80002EB4002B1FBF5F0584301EB8000F9
:1058F00006EBC000B0FBF5F000F00700D6E70000B3
:10590000001001400014014038B5816282850025F5
:10591000134604460564222084F83E00A26B1C480E
:10592000D063A26B1B481064A26B1B48D064A06BB1
:105930000A4605652168A06B091DFBF74FFC20682E
:1059400001684068009084F83C50206948B12068A4
:105950000C3050E8001F41F4807140E80012002A2A
:10596000F5D12068143050E8001F41F0010140E8F3
:105970000012002AF5D12068143050E8001F41F0D1
:10598000400140E80012002AF5D1002038BD000097
:1059900037560008B9560008ED5500080148FCF7D5
:1059A000A7BF00001C050020FEE70907090E00281C
:1059B00004DB00F1E02080F80014704700F00F00D5
:1059C00000F1E02080F8141D7047000000B58BB096
:1059D00000200121CDE9060108910090019002907C
:1059E00003900590049069460B48FAF7ABFE0A480D
:1059F000FBF726FA02210848FAF791FE69460748A4
:105A0000FAF7A0FE0548FBF71BFA02210348FAF754
:105A100086FE0BB000BD00002803002050030020CC
:105A20000188B0F90820891A41F28832914202DDDA
:105A3000C168491E05E041F28832D14202DAC168EC
:105A4000491CC16070470000FCF78CF8FFF73AFC76
:105A5000FDF756FFFDF726FFFDF79AFFFDF7ECFF78
:105A6000FDF7B0FFFDF7DAFEFDF7FAFEFDF76EFF7A
:105A7000FEF700F83A48FCF753FC0C213948FCF7D4
:105A800015FEFFF7A3FF3848FBF7DAF90221364885
:105A9000FAF745FE012235493548FDF703F9364846
:105AA0009FED340ADFED390A80ED500A9FED330A8D
:105AB0002C4980ED420A9FED320A80ED340A9FEDB9
:105AC000310A80ED260A9FED300A80ED180AC0EDFC
:105AD0000A0ADFED2F0AC0ED4F0ADFED2E0AC0EDF6
